:020000040800F2
:100000008804002045010008F90D0008F9070008E0
:10001000FD0700083D04000863160008000000000A
:10002000000000000000000000000000990F000820
:100030007D04000800000000810E0008DD110008AA
:100040005F0100085F0100085F0100085F01000810
:100050005F0100085F0100085F0100085F01000800
:100060005F0100085F0100085F0100085F010008F0
:100070005F0100085F0100085F0100085F010008E0
:100080005F0100085F0100085F0100085F010008D0
:100090005F0100085F0100085F0100085F010008C0
:1000A0005F0100085F0100085F0100085F010008B0
:1000B000411200085F0100085F0100085F010008AD
:1000C0005F0100085F0100085F0100085F01000890
:1000D0005F010008F51300085F0100085F010008D8
:1000E0005F0100085F0100085F0100085F01000870
:1000F0005F0100085F0100085F0100085F01000860
:100100005F0100085F0100085F0100085F0100084F
:100110005F0100085F0100085F0100085F0100083F
:100120005F0100085F0100085F0100085F0100082F
:10013000DFF80CD000F024F90048004769180008E7
:10014000880400200648804706480047FEE7FEE78F
:10015000FEE7FEE7FEE7FEE7FEE7FEE7FEE7FEE777
:10016000E1110008310100082DE9F04D81EA030496
:1001700004F0004B21F0004514464FF0000A23F034
:10018000004150EA050220D054EA01021DD0C5F317
:100190000A570246C5F31303C1F31300C1F30A560D
:1001A00040F4801543F48013A7EB0608101BD646D5
:1001B00008F2FD3873EB050002D308F1010801E0F5
:1001C00092185B41B8F1000F03DA00200146BDE848
:1001D000F08D00204FF48011064684460EE0171B78
:1001E00073EB050705D3121B63EB050306434CEACB
:1001F000010C49084FEA300092185B4150EA0107B0
:10020000EDD152EA030012D082EA040083EA05012C
:10021000084305D0101BAB4106D20122002306E0A3
:1002200000224FF0004302E06FF0010253101AEB7E
:1002300006004CEB085110EB0A0041EB0B01BDE846
:10024000F04D00F040B80EB5C10F80EAE0700844F0
:10025000CA07002140F233438DE80E000A460B46E0
:1002600000F040F803B000BD70B5C1F30A5201F0D0
:1002700000450024C1F3130140F2FF3341F4801123
:100280009A4201DA002070BD40F233439A42A2F252
:10029000334203DC524200F006F800E090402C4369
:1002A000F1D0404270BD202A04DB203A21FA02F04E
:1002B0000021704721FA02F3D040C2F120029140A0
:1002C00008431946704710B5141E73F1000408DA8C
:1002D000401C41F1000192185B411A4301D120F00A
:1002E000010010BD2DE9F04D92469B4611B1B1FAC7
:1002F00081F202E0B0FA80F22032904600F052F82B
:1003000004460F4640EA0A0041EA0B0153465A46AA
:10031000084313D0114653EA010019D0C8F1400236
:100320005046FFF7C0FF05460E4650465946424626
:1003300000F038F8084305D0012004E02046394693
:10034000BDE8F08D0020054346EAE0762C433743B4
:100350000A986305E40AA0EB08000022FD0A44EABB
:1003600047540A3002D500200146E9E7010510197B
:100370006941DDE9084500196941BDE8F04DA2E792
:10038000064C074D06E0E06840F0010394E80700E2
:1003900098471034AC42F6D3FFF7CEFE301B00086E
:1003A000501B0008202A04DB203A00FA02F100204A
:1003B00070479140C2F1200320FA03F319439040A3
:1003C000704710B500F070FC10BD70B5044600F029
:1003D000DDFCA02000F0C5FC00F08EFC204600F003
:1003E000C0FC00F089FC00F0D1FCA12000F0B9FCB9
:1003F00000F082FC00F08FFC0546012000F0A5FC17
:1004000000F0D2FC284670BD70B505460C4600F0E1
:10041000BDFCA02000F0A5FC00F06EFC284600F01A
:10042000A0FC00F069FC204600F09BFC00F064FC9E
:1004300000F0BAFC052000F023F870BD00BFFEE715
:1004400030B502460B46002012E012F8014B604026
:1004500008210BE000F0800424B12F2484EA40043A
:10046000E0B201E04406200E4C1EE1B20029F1DCAE
:100470001C1EA3F10105EBB2E7D130BD70470000AF
:100480000146114A12884A434FF0E0235A61002284
:100490009A611A46126942F001021A6100BF4FF0D8
:1004A000E022106900F001021AB100F48032002A43
:1004B000F5D04FF0E022126922F001024FF0E02364
:1004C0001A6100229A617047500000200146114ACB
:1004D00012784A434FF0E0235A6100229A611A468B
:1004E000126942F001021A6100BF4FF0E022106968
:1004F00000F001021AB100F48032002AF5D04FF06A
:10050000E022126922F001024FF0E0231A6100227A
:100510009A6170474E00002008B50121042000F0C8
:10052000C1FC0121082000F0BDFC0121102000F0D9
:10053000B9FC04208DF803001020ADF80000032062
:100540008DF802006946094800F072F82020ADF8E5
:1005500000006946064800F06BF84FF40050ADF813
:1005600000006946034800F063F808BD000C014034
:10057000000801400010014008B501210C2000F0E6
:1005800091FC4FF48060ADF8000010208DF803005E
:1005900003208DF802006946234800F049F84FF423
:1005A0008061214800F0E1F84FF40060ADF80000F0
:1005B00010208DF8030069461B4800F039F84FF40D
:1005C0000061194800F0D1F80420ADF80000694638
:1005D000164800F02DF80421144800F0C6F8082051
:1005E000ADF800006946114800F022F808210F48D4
:1005F00000F0BBF84FF40040ADF8000069460B482E
:1006000000F016F84FF40041084800F0AEF808205A
:10061000ADF800006946044800F00AF808210248D5
:1006200000F0A3F808BD0000000C014000080140E4
:100630002DE9F04102460025002600200023002479
:10064000002791F803C00CF00F0591F803C00CF0DF
:10065000100CBCF1000F03D091F802C04CEA050564
:1006600091F800C0BCF1000F31D0146800202BE0DD
:100670004FF0010C0CFA00F3B1F800C00CEA0306CD
:100680009E4220D183004FF00F0C0CFA03F7BC43BD
:1006900005FA03FC4CEA040491F803C0BCF1280FEE
:1006A00006D14FF0010C0CFA00FCC2F814C00AE0AD
:1006B00091F803C0BCF1480F05D14FF0010C0CFAC2
:1006C00000FCC2F810C0401C0828D1D31460B1F857
:1006D00000C0BCF1FF0F34DD546800202EE000F1B3
:1006E000080C4FF0010808FA0CF3B1F800C00CEA4E
:1006F00003069E4221D183004FF00F0C0CFA03F742
:10070000BC4305FA03FC4CEA040491F803C0BCF1B5
:10071000280F05D100F1080C08FA0CF8C2F8148073
:1007200091F803C0BCF1480F07D100F1080C4FF05D
:10073000010808FA0CF8C2F81080401C0828CED333
:100740005460BDE8F0810246002093680B400BB175
:10075000012000E00020704702460020D3680B40D3
:100760000BB1012000E0002070474161704701613A
:1007700070470AB1016100E0416170472DE9F0471F
:10078000044689469246E001FFF75DFD0746154A9B
:10079000154BFFF7E9FC0546FFF766FD00B213496C
:1007A00008804FEAC910FFF74EFD05460D4A0E4B73
:1007B000FFF7DAFC0746FFF757FD00B20C49088047
:1007C0004FEACA10FFF73FFD0546064A064BFFF702
:1007D000CBFC0746FFF748FD00B206490880BDE89C
:1007E000F0870000CDCCCCCCCCCCFC3F220000204C
:1007F000240000202600002000BFFEE700BFFEE727
:1008000070B504460D462A4621460248FFF7B1FF5F
:1008100070BD0000000C014010B54FA000F048FC76
:1008200052A000F045FC56A000F042FC4FF40061DD
:100830005848FFF791FF28B94FF400615548FFF77A
:1008400096FF04E04FF400615248FFF78EFF10213D
:100850005048FFF778FFE0B94F480078401C4E49F8
:100860000870084600780A280FDD4C48007810B957
:1008700001204A49087049480078022802D1032023
:10088000464908700A204449087045A000F010FC51
:100890000CE000204049087040480078032802D14D
:1008A00002203E49087041A000F002FC202143488C
:1008B000FFF749FFD0B942480078401C4049087012
:1008C000084600780A281BDD3E48007818B9012048
:1008D0003C49087006E03B480078022802D103201A
:1008E000384908700A202C49087009E00020344972
:1008F000087034480078032802D10220314908707A
:100900004FF400513048FFF71EFFD0B92F48007850
:10091000401C2E490870084600780A281BDD2C4828
:10092000007818B901202A49087006E028480078A4
:10093000022802D10320264908700A2016490870AF
:1009400009E000202149087021480078032802D1DD
:1009500002201F49087010BD585F476F5F5A6572CB
:100960006F5F466C61673A25640D0A00595F476FF7
:100970005F5A65726F5F466C61673A25640D0A00C5
:100980005A5F476F5F5A65726F5F466C61673A25C1
:10099000640D0A00000C0140330000200D0000200F
:1009A0004744204953204F4B0D0A0000474420493B
:1009B00053204552524F520D0A00000000080140DA
:1009C000340000200E0000200010014035000020FF
:1009D0000F00002010B59D4800889D490988401AE5
:1009E00000B29C4908809C4800889C490988401AAC
:1009F00000B29B4908809B4800889B490988401A9F
:100A000000B29A4908809A480078012803D0984893
:100A10000078022858D18F480088002854D08D488B
:100A2000B0F9000000281CDA8A480088404200B271
:100A3000884908808F48007808B9012000E000202C
:100A40008C4908704FF480618B48FFF785FE894917
:100A50000978884205D0874801784FF48060FFF715
:100A6000CFFE04218448FFF777FE48BB042182486B
:100A7000FFF77DFE81480088401C00B27F49088056
:100A80000846B0F900007349B1F9001088421BDB39
:100A900000207A4908806D48B0F900006C49088050
:100AA0007448007840B27649C87004217248FFF754
:100AB0005CFE02206E49087001207249087003E054
:100AC00004216D48FFF751FE6F480078012803D0DC
:100AD0006D480078022858D161480088002854D019
:100AE0005F48B0F9000000281CDA5D4800884042E9
:100AF00000B25B4908806548007808B9012000E031
:100B00000020624908704FF400615B48FFF724FE43
:100B10005E490978884205D05C4801784FF400604E
:100B2000FFF76EFE08215448FFF716FE48BB082168
:100B30005148FFF71CFE56480088401C00B254493B
:100B400008800846B0F900004449B1F90010884215
:100B50001BDB00204E4908803F48B0F900003F49A8
:100B600008804A48007840B2454908710821424847
:100B7000FFF7FBFD02204449087001204549087039
:100B800003E008213C48FFF7F0FD434800780128C6
:100B900003D041480078022856D134480088002804
:100BA00052D03248B0F9000000281ADA2F480088E5
:100BB000404200B22D4908803848007808B9012029
:100BC00000E000203549087080212B48FFF7C4FD64
:100BD00032490978884204D0304801788020FFF7F4
:100BE0000FFE40212448FFF7B7FD48BB40212248B3
:100BF000FFF7BDFD2A480088401C00B22849088044
:100C00000846B0F900001949B1F9001088421BDB11
:100C10000020234908801348B0F9000012490880D9
:100C20001E48007840B21649487140211248FFF72B
:100C30009CFD02201849087001201A49087003E041
:100C400040210D48FFF791FD10BD0000220000205B
:100C50001C00002028000020240000201E0000208E
:100C60002A00002026000020200000202C00002068
:100C70000D00002010000020000801401600002098
:100C8000000000202E0000200E0000201100002097
:100C9000180000202F0000200F000020120000206C
:100CA0001A0000203000002008B50121082000F0C3
:100CB000F9F814208DF80300C020ADF800000320DF
:100CC0008DF8020069460448FFF7B2FCC0210248D3
:100CD000FFF74DFD08BD0000000C014010B580215C
:100CE0000448FFF730FD04460A20FFF7EFFB2046DB
:100CF00010BD0000000C014010B5012000F06EF89E
:100D0000012000F05DF8FFF7E9FF0446002000F045
:100D100057F8204610BD70B50025012000F05EF8A0
:100D200000240EE0012000F04BF8FFF7D7FF012868
:100D300002D1802020410543002000F041F8601CD2
:100D4000C4B2082CEEDB284670BD10B50446204620
:100D500000F044F8012000F033F8002000F030F8F3
:100D600010BD70B5054600240DE08021214101EA47
:100D7000050000F033F8012000F022F8002000F018
:100D80001FF8601CC4B2082CEFDB70BD10B5012049
:100D900000F024F8012000F013F8002000F01EF805
:100DA000002000F00DF810BD10B5002000F016F87E
:100DB000012000F005F8012000F010F810BD00003F
:100DC00010B50446224640210348FFF7D2FC0A2012
:100DD000FFF77CFB10BD0000000C014010B504467D
:100DE000224680210348FFF7C4FC0A20FFF76EFB70
:100DF00010BD0000000C01407047000070B50021DC
:100E000000230F22C47804B3154C246804F4E06472
:100E1000C4F5E064210AC1F10403CA40447804FA2D
:100E200003F184781440214309010E4C0678A15542
:100E3000047804F01F050124AC4005786D11AD0065
:100E400005F1E025C5F8004109E0047804F01F052C
:100E50000124AC40044D0678761145F8264070BD5B
:100E60000CED00E000E400E080E100E00249014315
:100E7000024A1160704700000000FA050CED00E026
:100E80007047000029B1064AD2690243044BDA6177
:100E900004E0034AD2698243014BDA6170470000E3
:100EA0000010024029B1064A92690243044B9A613C
:100EB00004E0034A92698243014B9A617047000043
:100EC0000010024030B500210022002400232D4DE7
:100ED0006D6805F00C0121B1042905D0082923D142
:100EE00005E0294D056022E0274D05601FE0254DF6
:100EF0006D6805F47012234D6D6805F48034022589
:100F000005EB92421CB9214D554305600BE01D4D88
:100F10006D6805F400351DB11C4D5543056002E0B8
:100F2000194D5543056002E0174D056000BF00BF35
:100F3000144D6D6805F0F0010909154D6B5C0568ED
:100F4000DD4045600F4D6D6805F4E061090A104D04
:100F50006B5C4568DD4085600A4D6D6805F4605145
:100F6000C90A0B4D6B5C4568DD40C560054D6D6879
:100F700005F44041890B074D6B5CC568B5FBF3F583
:100F8000056130BD0010024000127A0000093D00EA
:100F90003900002049000020704700000548007813
:100FA000012804D100200349087001207047002067
:100FB000FCE700003600002000B587B0012188035F
:100FC000FFF770FF01210420FFF76CFF18208DF858
:100FD0001B004FF40070ADF8180003208DF81A00C4
:100FE00006A92248FFF724FB48208DF81B004FF488
:100FF0008060ADF8180003208DF81A0006A91B4880
:10100000FFF716FB4FF4E13002900020ADF814001A
:101010000C20ADF812000020ADF81000ADF80E0065
:10102000ADF80C0002A9124800F0A6FA012240F225
:1010300025510F4800F07AFA4FF4A060FFF716FF31
:1010400025208DF8040001208DF8070002208DF87E
:10105000050001208DF8060001A8FFF7CFFE012151
:10106000034800F020FA07B000BD0000000801406E
:101070000038014070B505460E46002404E0285DA6
:1010800000F006F8601C84B2B442F8DB70BD0000CA
:1010900010B504462146054800F0DFFA00BF802164
:1010A000024800F00CFA0028F9D010BD00380140C9
:1010B00070B50446002504E0605DFFF7E9FF681C99
:1010C000C5B2605D0028F7D170BD10B500F002F820
:1010D00010BD00000CB5002001900090334800685E
:1010E00040F480303149086000BF3048006800F4A7
:1010F000003000900198401C0190009818B90198A8
:10110000B0F5A06FF1D12948006800F4003010B1AB
:101110000120009001E0002000900098012843D1B8
:101120002348006840F01000214908600846006824
:1011300020F0030008600846006840F002000860E4
:101140001A4840681949486008464068486008469F
:10115000406840F4806048600846406820F47C1095
:1011600048600846406840F4E81048600846006857
:1011700040F08070086000BF0C48006800F000700C
:101180000028F9D00948406820F00300074948606A
:101190000846406840F00200486000BF03484068CD
:1011A00000F00C000828F9D10CBD0000001002402E
:1011B00000200240042808D14FF0E021096941F0E5
:1011C00004014FF0E022116107E04FF0E0210969CE
:1011D00021F004014FF0E0221161704770470000D8
:1011E00010B51348006840F0010011490860084636
:1011F0004068104908400E494860084600680E499A
:1012000008400B4908600846006820F48020086008
:101210000846406820F4FE0048604FF41F008860D4
:10122000FFF753FF4FF000600449086010BD000055
:10123000001002400000FFF8FFFFF6FE08ED00E09E
:1012400010B50121880700F025F801280AD10649C8
:10125000087006480088401C04490880012188075E
:1012600000F009F810BD0000130000201400002059
:10127000CA4302827047CA430282704721B1028882
:1012800042F00102028004E002884FF6FE731A4029
:101290000280704730B50246002000230024158AE2
:1012A00005EA0103958905EA010413B10CB1012097
:1012B00000E0002030BD1AB183890B43838102E036
:1012C00083898B438381704701894FF6F8721140FF
:1012D00001817047002202881D4B98420ED01D4BA1
:1012E00098420BD0B0F1804F08D01B4B984205D0EC
:1012F0001A4B984202D01A4B984204D14FF68F7382
:101300001A404B881A43174B984207D0164B984205
:1013100004D04FF6FF431A40CB881A4302808B88D3
:1013200083850B8803850A4B98420BD0094B984262
:1013300008D00E4B984205D00D4B984202D00D4B71
:10134000984201D10B7A0386012383827047000003
:10135000002C01400034014000040040000800401F
:10136000000C00400010004000140040004001400C
:1013700000440140004801401FB501210846FFF725
:1013800081FD4FF08040FFF79FFF0020ADF80A007D
:10139000ADF8060042F20F70ADF8080041F61F40AC
:1013A000ADF8040000208DF80C0001A94FF080403A
:1013B000FFF790FF01218807FFF75AFF012211462E
:1013C0009007FFF778FF4FF4A060FFF74FFD1C2058
:1013D0008DF8000001208DF803008DF801008DF8D4
:1013E00002006846FFF70AFD01218807FFF746FF64
:1013F0001FBD000010B540F225511E4800F06CF8EA
:10140000012835D11B4800F023F9C4B21A480078EE
:1014100088B93A2C05D1012017490870174908707E
:1014200006E0AA2C04D10120134908701349087062
:101430001348047016E010480078012812D11048B3
:101440000E49097844540D480078401C0B49087037
:1014500008460078102805DB0020074908700120A5
:101460000849087040F22551024800F00DF800BF0D
:1014700010BD000000380140370000203800002077
:10148000780000203600002010B50022002340F62E
:101490006A14A14200D100BF0A1201249440A3B2F1
:1014A000DC43048010BD21B1828942F40052828164
:1014B00004E082894DF6FF731A408281704702462C
:1014C0000020B1F5007F00D100BF13880B400BB1A5
:1014D000012000E00020704770B502460024002380
:1014E0000025002040F66A16B14200D100BFC1F3CA
:1014F000421501F01F03012606FA03F3012D02D164
:101500009689334006E0022D02D1168A334001E06D
:10151000968A33400C12012606FA04F416883440E9
:1015200013B10CB1012000E0002070BDF0B50346FE
:10153000002400260025002040F66A17B94200D199
:1015400000BF1846C1F3421401F01F06012707FA35
:1015500006F5012C01D10C3004E0022C01D1103031
:1015600000E014301AB107682F43076002E00768F3
:10157000AF430760F0BD00002DE9F04786B0054697
:101580000E460024A24600BFA1460027B08900B144
:1015900000BF2F462C8A4CF6FF700440F0880443AD
:1015A0002C82AC894EF6F3100440B0883189084390
:1015B000718908430443AC81AC8A4FF6FF40044074
:1015C000B0890443AC8201A8FFF77CFC1F48874226
:1015D00002D1DDF810A001E0DDF80CA0A88900F42C
:1015E000004040B10AEBCA0000EB0A103168490024
:1015F000B0FBF1F807E00AEBCA0000EB0A10316813
:101600008900B0FBF1F86420B8FBF0F00401200978
:10161000642101FB1089A88900F4004040B1322008
:1016200000EBC900B0FBF1F000F00700044308E054
:10163000322000EB09106421B0FBF1F000F00F0044
:1016400004432C8106B0BDE8F0870000003801405B
:1016500001468888C0F308007047C1F30802828001
:10166000704700BFFEE7000010B53E480078D8B9CB
:101670004FF480613C48FFF76FF838B100214FF418
:101680008060FFF7BDF80020384908700421364813
:10169000FFF762F820B904213348FFF768F803E048
:1016A00004213148FFF761F831480078D8B94FF488
:1016B00000612D48FFF750F838B100214FF4006069
:1016C000FFF79EF800202B49087008212648FFF7F5
:1016D00043F820B908212448FFF749F803E008211E
:1016E0002148FFF742F824480078C8B980211E48F5
:1016F000FFF732F830B100218020FFF781F8002099
:101700001E49087040211848FFF726F820B94021EB
:101710001548FFF72CF803E040211348FFF725F8A0
:1017200010480078012806D11548008818B940F6FD
:101730001C30134908800E480078012806D1114852
:10174000008818B940F61C300E4908800A48007815
:10175000012806D10C48008818B940F6E3500A4920
:10176000088010BD0D00002000080140100000207E
:101770000E000020110000200F00002012000020A9
:101780001C0000201E0000202000002002E008C8ED
:10179000121F08C1002AFAD170477047002001E0EB
:1017A00001C1121F002AFBD1704710B5FF20FEF7C0
:1017B0000CFE0446552C01D1002010BD5521FF2000
:1017C000FEF722FEFF20FEF700FE0446552C01D155
:1017D0000020F2E70120F0E72DE9F04105460E4632
:1017E0001746002407E02919C8B2FEF7EEFD40B203
:1017F0003055601CC4B2BC42F5DBBDE8F0812DE978
:10180000F04105460E461746002406E0315D2A19D0
:10181000D0B2FEF7F9FD601C84B2BC42F6DBBDE835
:10182000F081000010B56FF00400FFF7C3FC0A4818
:1018300000680A49B0FBF1F00949087008460078D1
:1018400000EB4001C1EBC0104FF6FF7101EAC00090
:101850000449088010BD00005400002000127A00E6
:101860004E000020500000204FF4A060FFF7FEFA69
:10187000FEF782FEFEF750FEFFF79EFBFFF7D2FF5A
:10188000FFF77AFDFEF79DFDFFF78FFF9149087086
:101890004FF480619048FEF75FFF904908704FF465
:1018A00000618D48FEF758FF8D49087080218A48F5
:1018B000FEF752FF8B4908700BE18B480078012836
:1018C000FAD18A48007802286CD189480078022829
:1018D00068D188480078022864D1FFF75FFB0128AF
:1018E00029D10F218448FEF7ABFD84490870824856
:1018F0000078AA281BD18048C07B097888421AD179
:101900007D48407840B27E4908707B48807840B27C
:1019100048707948C07840B288700B4693F902202D
:1019200093F9011093F90000FEF728FF03E010215E
:101930007148FFF79FFB73480078012831D1724846
:1019400000780128FAD1714800780128F6D10622E2
:101950006B490020FFF753FF6420FEF791FD06223C
:101960006B490020FFF738FF002018E0684909564E
:10197000634A1256914204D066490978491C654A67
:10198000117064490978062908D100215D4A117057
:101990005D4A11705D4A11705E4A1170401C062844
:1019A000E4DB8DE0514800780328FAD050480078F5
:1019B0000328F6D04F4800780328F2D04548007835
:1019C000002879D106224E49FFF706FF3220FEF7A4
:1019D00057FD4B4991F90010C801FEF734FC06464B
:1019E0004D4A4E4BFEF7C0FB0446FEF73DFC00B2ED
:1019F0004B490880424991F90110C801FEF723FCC8
:101A00000646454A454BFEF7AFFB0446FEF72CFC65
:101A100000B2444908803A4991F90210C801FEF722
:101A200012FC06463C4A3D4BFEF79EFB0446FEF781
:101A30001BFC00B23C4908803148C0782749087037
:101A40002F480079264908702D48407925490870AB
:101A50004FF480612048FEF77FFE204909788842D4
:101A600005D01E4801784FF48060FEF7C9FE4FF4A0
:101A700000611948FEF770FE19490978884205D0BF
:101A8000174801784FF40060FEF7BAFE8021124833
:101A9000FEF762FE13490978884204D011480178A4
:101AA0008020FEF7ADFE0220104908701049087032
:101AB0001049087004E0FFE7FFF7D6FDFEF78AFF44
:101AC00000200949087000BFFEF7A6FE0020174954
:101AD0000880F2E6310000200008014010000020DC
:101AE0001100002012000020130000200D00002033
:101AF0000E0000200F000020780000200C000020C5
:101B0000000000202E0000202F00002030000020C8
:101B10000600002032000020CDCCCCCCCCCCFC3F49
:101B20001C0000201E0000202000002014000020C7
:101B3000501B000800000020680000008C170008FF
:101B4000B81B000868000020200400009C17000853
:101B50000000000000000000000000000000000085
:101B60000000000000000000000000000000000075
:101B70000000000000000000000000000000000065
:101B8000000000000000000000000000000102034F
:101B90000401020304060708090204060800000005
:101BA0000000000000A24A04000000000000000045
:081BB000010203040607080905
:0400000508000131BD
:00000001FF
