:020000040000FA
:10000000900B00209D010000F1220000C51F0000A0
:1000100000000000000000000000000000000000E0
:10002000000000000000000000000000752B000030
:100030000000000000000000D9270000992C0000FB
:10004000E91E0000EB1E0000291F00002B1F00000E
:100050002D1F0000AF01000035180000B1010000A5
:10006000AF010000033400002F1E0000AF010000AC
:100070005D170000F9150000AF010000452E0000DB
:10008000492E0000AF010000AF010000592D000013
:100090005B2D0000AF010000AF0100000134000043
:1000A000C71F0000AF010000C92A0000AF01000017
:1000B000AF010000AF010000AF010000772B00008E
:1000C00000F002F800F03EF80CA030C80838241800
:1000D0002D18A246671EAB4654465D46AC4201D180
:1000E00000F030F87E460F3E0FCCB6460126334274
:1000F00000D0FB1AA246AB4633431847A04200008B
:10010000C0420000103A02D378C878C1FAD852072A
:1001100001D330C830C101D504680C6070470000BD
:100120000023002400250026103A01D378C1FBD813
:10013000520700D330C100D50B6070471FB51FBDFB
:1001400010B510BD01F050F81146FFF7F7FF03F0AE
:100150004DFB01F068F803B4FFF7F2FF03BC03F0B6
:100160005FF9000070B505460C46164602E00FCC5C
:100170000FC5103E102EFAD2082E02D303CC03C5B1
:10018000083E042E07D301CC01C5361F03E02178B9
:100190002970641C6D1C761EF9D270BD084880471A
:1001A00008480047FEE7FEE7FEE7FEE7FEE7FEE75A
:1001B000FEE7000004480549054A064B7047000069
:1001C000512D0000C100000090020020900B002083
:1001D0009003002090030020F8B5042A2CD3830755
:1001E00012D00B78491C0370401C521E83070BD0A1
:1001F0000B78491C0370401C521E830704D00B78F7
:10020000491C0370401C521E8B079B0F05D0C91A56
:10021000DF002023DE1B08C90AE0FFF7A3FFF8BDBB
:100220001D4608C9FD401C46B4402C4310C0121F97
:10023000042AF5D2F308C91A521EF0D40B78491CCF
:100240000370401C521EEAD40B78491C0370401CFA
:10025000012AE4D409780170F8BD01E004C0091F47
:100260000429FBD28B0701D50280801CC90700D06E
:100270000270704700290BD0C30702D00270401CE7
:10028000491E022904D3830702D50280801C891EDF
:10029000E3E70022EEE70022DFE7002203098B42BA
:1002A0002CD3030A8B4211D300239C464EE0034615
:1002B0000B433CD4002243088B4231D303098B42C9
:1002C0001CD3030A8B4201D394463FE0C3098B42FF
:1002D00001D3CB01C01A524183098B4201D38B0158
:1002E000C01A524143098B4201D34B01C01A5241FB
:1002F00003098B4201D30B01C01A5241C3088B4240
:1003000001D3CB00C01A524183088B4201D38B002A
:10031000C01A524143088B4201D34B00C01A5241CC
:10032000411A00D201465241104670475DE0CA0FA3
:1003300000D04942031000D34042534000229C4663
:1003400003098B422DD3030A8B4212D3FC2289016D
:1003500012BA030A8B420CD3890192118B4208D343
:10036000890192118B4204D389013AD0921100E0A5
:100370008909C3098B4201D3CB01C01A52418309B9
:100380008B4201D38B01C01A524143098B4201D3E6
:100390004B01C01A524103098B4201D30B01C01A11
:1003A0005241C3088B4201D3CB00C01A524183088B
:1003B0008B4201D38B00C01A5241D9D243088B42E1
:1003C00001D34B00C01A5241411A00D20146634684
:1003D00052415B10104601D34042002B00D54942E8
:1003E000704763465B1000D3404201B50020C04611
:1003F000C04602BD70477047704700000246C80FF4
:10040000C00781434B0030B54B405B009B0D20D0B3
:100410001923DB06C91801231B05994220DB03249D
:10042000A40704251346AB400BD3002B04D1EB06E5
:1004300013409B00E34204D40124640700231219F3
:100440005941FF231B0599420BD2C9000143500FAC
:1004500009E0CB0204D501430803024305D0054857
:1004600030BDFF21C905084330BD084607210905F5
:10047000884330BD0000C07FF0B50C46871A9C4110
:100480000D46861A9D4103D2C01BA141D21963417A
:100490000D0D1F0DC94EEC1BAE435CD07F057F0DCB
:1004A0000026002F51D02D05AC46A943DD020123C3
:1004B000ED0A1B051D4320231B1B24D41746E740D0
:1004C000381871412F46E740CC199D402818314615
:1004D00061410C0D27D161449A4013D50023401C83
:1004E000594152000ED14008400001224B005205F4
:1004F000D34207D305204007C14201D5B04900E0EF
:10050000B0493046F0BD6B00002A00D001229A1895
:100510001F23203C1B1B01D5002302E0E5402818C7
:1005200071410C0DD7D0012424050919C407CD074A
:1005300040084908E40F28436144002CD5D000242A
:10054000401C61419A40D0D1CDE76A05520DD9D106
:10055000C90FC907D5E79C4D4E00002801D00124E2
:1005600000E0002434195F00002A01D0012600E0D9
:100570000026BE19954FAC420CD8AE420AD8B44200
:1005800006D001256D05EC42BCD010461946F0BDE1
:100590009942FCD000203946F0BDF0B51FB40C469E
:1005A0000F46811A9F412546861A9D4106D2012594
:1005B000ED076F40401ABC4152187B41210D1E0DC2
:1005C0008D1BAC467D4D8D437ED075056D0D7CD069
:1005D0000D05AE46AC431B031B0B794D52429D41AA
:1005E000202366469B1B14D31746F7403818002675
:1005F0000090744160462F460741E41900989D40E1
:100600002818664116D4714671189A4025D50123E1
:1006100020E093182A466A415200002B00D0521C59
:100620001E23203E9B1B002B61DD3541EE17281851
:100630006641E8D5001876415B1C9A4000D3401C07
:100640004B05F3181524E34010D3002B52D071460C
:100650007118D30FC01802D3491C05B0F0BD012397
:10066000DB079A42F9D140084000F6E70122520523
:10067000B21801D1002853D00123CC0ADB029943E0
:10068000891E002A08D1020C03D0020C0004103984
:1006900002E00246002020390023550B05D112024A
:1006A0000823550B01D152010D23550C01D1120124
:1006B0001B1DD50C01D192009B1C150D01D15200C0
:1006C0005B1C2025EE1A01E02CE022E00546F540F7
:1006D00015439840CA1AE10769181305C918002A7A
:1006E000BBDA032040070818C10FC9070FE07146A5
:1006F0006118B2E7F10740080843711071444A00DD
:100700000CD001235B059A42A7D2C90FC90700206C
:10071000A3E74905490D26D1002001E00028F4D1C6
:1007200000219AE7284D6600002801D0012100E051
:10073000002171185F00002A01D0012600E0002688
:10074000BE19224FA94210D8AE420ED8B14208D0ED
:1007500001256D05E94206D01946A8024140104620
:100760007BE79C4201D0214677E70020394674E7B9
:1007700010B50C465C4005D50124E4076340FFF743
:100780000CFF10BDFFF778FE10BD30B40C465C4086
:1007900004D50124E407634030BC6DE630BCFCE6C0
:1007A00070B50124E40761400D465D4002D4FFF7B7
:1007B00063FE70BD6340FFF7F0FE70BDFF070000F1
:1007C0000000F0FF0000F07F0000E0FF0000F87F75
:1007D000F0B5F94D0C091E092C402E402F468BB068
:1007E000A7437DD0B543FCD0002E7AD0002CFCD09E
:1007F0000D465D40ED0F2543AC1BFF25AD0464198C
:100800000894C502440DC9022143500DDC02044383
:100810000120C00701430443D2020191200C110CB6
:1008200000958C46010423468B430A9161460904D6
:10083000E24D8A430991010A7D44491980390978BA
:1008400005464D4301266D18F605751B6943C90C15
:10085000640B891C4C436418B5012C1B250C2E0419
:10086000B4434C434D43210C691889090591009DFF
:10087000E90701D00121C90704912C4601996708B5
:10088000CD072F434C08059DE10B4D432D0C294608
:100890006646754302950D4645432E46029D7D1BD7
:1008A000B44100950D465D4301942C0C2F040D4678
:1008B0005543AE462D0C3D43029503947546049C6A
:1008C0002D04641B049406D2029C039D641C002624
:1008D00075410395029401AC70CC009F7D1B01E033
:1008E0003EE162E1B4410904009507910194059944
:1008F000A4086143090C0C464443650BE7040C460D
:1009000066467443A646640B3C43039502947446C2
:10091000049DE4042C1B049406D2029C039D641CD9
:10092000002675410395029401AC70CC009F7D1B9D
:10093000B44101940C465C430095650FE7000C46FA
:100940005443A646640F3C43039502947446049DA9
:10095000E4002C1B049406D2029C039D641C002618
:1009600075410395029401AC70CC009F7D1BB4418E
:10097000AE09AF06049DC900AD092F43049DA4062E
:10098000AD060495079D344369180791059DE10B59
:100990004D432D0C29466646754302950D46454349
:1009A0002E46029D7D1BB44100950D465D4301948A
:1009B0002C0C2F040D465543AE462D0C3D4302959D
:1009C00003947546049C2D04641B049406D2029C77
:1009D000039D641C002675410395029401AC70CC04
:1009E000009F7D1BB44101948C050694079C890AE5
:1009F000611800950791019C0599A4086143090CB1
:100A00000D464543680BEF040D46644665436C0B89
:100A10003C43049FED047D1BAC4602D20025641CC0
:100A20006841009E019D371B85410846584301954A
:100A30000C46460FC5005443600F28436546E4004A
:100A40002C1B02D20025401C6E41019D3F1AB5416E
:100A50002846BD09800628438446A009BF064E02E9
:100A60000699A40676180743079D002068410A9955
:100A7000079019430020099B00906046FF1913431B
:100A80004041E20F64003A43A4460446D71A8C4121
:100A9000A04203D90120009020463A46C70F94187F
:100AA00040416246D20F2243644664000494009C95
:100AB000BE466400D71AA446044602978C41774686
:100AC000002F01D1A04204D96046401C8446029AFE
:100AD0002046C40FA64694184041049A0546D20FFA
:100AE000224364466400D31A8D417146002901D126
:100AF000A84202D928461A46641C10430122002845
:100B000000D0164361020020079B891904465C410E
:100B10000223002C02DB491813466441089DCE0ACB
:100B20002D145D194B056705E10A2C050D1908996F
:100B30003E43C9076940002B08D0934006D30022EA
:100B4000761C5141002B01D1760876001C4A002DFD
:100B500043DB154241D0AA433FD030460BB0F0BD35
:100B600006180D464D41174C7642AC411AD39518E4
:100B70001C465C41134A6D42A24113D30122520527
:100B80004C00D4420AD15C00D4420BD04B4002D579
:100B900092021143E2E749004908DFE75940C90FD3
:100BA000C90718E000200849D8E7054801420DD1DF
:100BB0000342F7D0F2E700000000FF07E039000031
:100BC0000000F07F0000E0FF0000F87F114859406E
:100BD0000143C01241400020C0E70123089A9B0650
:100BE0009A4205DC032252078918C90FC907B5E7E5
:100BF000052252078918074A1143D2125140ADE726
:100C000070B515461C4602460B4628462146FFF79E
:100C1000DFFD70BDFFFFFF7F0346CA02400D10B528
:100C200010430A1504D00124E4072043002A05DB01
:100C30000A4CA21A04D4D040FF2A00DD002010BDC7
:100C40004A00002B01D0012000E0002010180122F2
:100C50005205D042F2D8C817C04310BD1E04000090
:100C60001F22030C02D10F22000402D0030E03D076
:100C700004E00020014670470002083A030F01D14A
:100C80000001121F830F01D18000921E002801DB9A
:100C90004000521E120551184205C012411810465C
:100CA0007047C10FC90700D040420122920711438B
:100CB000D6E701218907D3E7F0B58B4C0F0925460C
:100CC00089B0BD437BD01D092646AE43FAD00E46FF
:100CD0005E402740F60F3E43254071D0240121425B
:100CE000FBD0FF24AD19A4042D1B039501252D0570
:100CF000DB02DB0AC9022B43C90A29431E01090191
:100D0000040F130F050121431701880B8203914340
:100D10002D098C46A90B1E438A039543B30B9A03F6
:100D200096433F09BA0B9403A74302962E467E438F
:100D30000497B6464E19D7190C46019654430597A9
:100D40007E43371B7646BF1B3601B646BE0B3619AF
:100D500000967646BC043719009C01D3641C0094AD
:100D60006400002F01D001263443029E049F754386
:100D700066467E430496760034196E00341900945A
:100D8000029C019E1C196643751BAE46069465467F
:100D90004519059C05956C43594375460891691A98
:100DA0000191049E01465143A41B0491611A009CC9
:100DB0000791E10605D061090122114302E072E0CA
:100DC0006EE06109089D00272C0A2D066918049D14
:100DD0007C412A0A2D066918019D6241AC0DAD02C5
:100DE0006D185441079A910D920255196141029A6A
:100DF000644658435443069B059A5A43121A131BE0
:100E00009A0E9B015B187A41010B0005C3185141F2
:100E1000220A200644195A419A4200D2491C012054
:100E20004002814203D315230226F64302E0142335
:100E30000326F6432020C51AA9401746AF40DA40E2
:100E40000A4320460399D84009147318190551180C
:100E5000039A3843D2075140AC4009D00122944054
:100E600006D30022401C5141002C01D14008400013
:100E70001E4A934212D3012203989206904207DB46
:100E80000520400709181A480143C012414004E0F8
:100E9000032040070818C10FC907002009B0F0BDA2
:100EA0000020F107FAE705180C464C4111486D4245
:100EB000A04115D394181A465A410E4864429041F5
:100EC0000ED301204A004005824209D35A008242D3
:100ED00006D35940C90F084AC90700201143DDE76E
:100EE00000200649DAE700000000FF07FE070000C7
:100EF000FFFFFF7F0000E0FF0000F07F0000F87FB1
:100F00000121C9050123411842001B06D3185B0EBD
:100F10000AD0C1100722D206891840075242D14296
:100F200001D5520089187047090208D50146002AE8
:100F300003D0C10FC9070020704710467047420216
:100F400002D0002002497047072109050143F4E758
:100F50000000F87FF0B5FF252D04C609C209FF2760
:100F600004462E400137CB093E4348402A402B40DF
:100F70000746002A6BD0002B69D0AA4267D0AB424B
:100F800065D0002800DA32460125ED0529432C43BF
:100F900009022002090AD21A4B0C7F24E31A434C9F
:100FA000000A7C44E35C7D242404121914145B00C1
:100FB000A218884201D3521C00E0400049420C466E
:100FC0005C4324115C43DB016415E318040A5C43B1
:100FD000C502200D0C4644436419250A5D432303D2
:100FE000EC0C0D46654300030019EB184C42A3427C
:100FF00001D35B18401CD4052018002B07D05B00E0
:10100000C91804D3401C002901D1400840003F21E9
:1010100089048A4209D3002A08DC1106090F04D08A
:10102000032149074018C00FC007F0BD012241004D
:10103000120689187F2252069142F6D205214907ED
:10104000C84201D59010F0BDFF20C005F0BD002FB3
:1010500000DA32461648AA4207D2AB4205D219023C
:10106000090E17D0F80FC007F0BDFF2563002D064D
:10107000AB42F9D84900A942F6D8AB4201D1A94206
:10108000F2D0A94201D1002101E061004908D00558
:101090000843F0BD1102090EFBD0FF200243D0052A
:1010A000F0BD0A460146104654E70000F632000043
:1010B0000000C07F0102C21504D00123DB071943E1
:1010C000002A0ADB9E239A1A02D40846D0407047B1
:1010D000FF2241001206914201D900207047C0173B
:1010E000C04370471F22030C02D10F2200041CD002
:1010F000030E01D10002083A030F01D10001121FB3
:10110000830F01D18000921E002801DB4000521E97
:10111000D2055118021251181922904004D3491CCB
:10112000002801D14908490008467047C10FC90786
:1011300000D04042012292071143D3E701218907E1
:10114000D0E7000010B5FF231B0644009C421DD8C9
:101150004C009C421AD80346124A0B4307D4401A4B
:1011600002D3EFF3008010BDEFF3008010BD081A2A
:1011700006D2EFF3008001219043C907084302E043
:10118000EFF30080904380F3008810BD0D231B0413
:101190001A4204D01146002000F006F810BD00F0FD
:1011A0001BF810BD00000090C80212D54803400F84
:1011B000002804D0C803C043012188407047EFF3E2
:1011C00000800001000903210907084380F300881B
:1011D000704700207047000010B5024800F02BF85F
:1011E00010BD00000000C07F754600F053F8AE4609
:1011F000050069465346C008C000854618B020B5B2
:10120000FEF7D8FF60BC00274908B6460026C0C5D7
:10121000C0C5C0C5C0C5C0C5C0C5C0C5C0C5403DAE
:1012200049008D46704710B50446C046C04620466A
:10123000FEF791FF10BD10B50C461107090F0929E3
:1012400004D00A290AD008290CD104E0114608204C
:10125000FFF7AAFF06E0510606D501E0510601D5C9
:101260000120C007214610BDD10607D5010109099B
:10127000CC084907000E0006044309E0410F200294
:101280004907000A0143200E00061D22D1410143F7
:101290000846E7E7004870473002002010B50120FB
:1012A000800601F0AFFC0021084600F0E0F80B22B8
:1012B0000321002000F08EF80921002000F03AF907
:1012C000002000F01AF9002000F0FBF802210020B5
:1012D00000F028F8002000F05DF90D200121814088
:1012E000094A116000BF022101F09EF9002201218C
:1012F000104600F03CF800BF01200449C86200BF5E
:10130000002000F089F910BD00E100E0400000502D
:101310004D210906496B0122824011434D221206DC
:101320005163704755224D231B069A63002808D14C
:101330001A46526A920892005A621A46526A0A4340
:101340005A6201280ED14D221206526A0C239A438A
:101350004D231B065A621A46526A8B001A434D23CC
:101360001B065A6200224D231B069A63704710B574
:1013700055234D242406A363002811D123469B68DE
:101380000724A402A3434D242406A3600B03940264
:1013900023434D242406A46823434D242406A3603C
:1013A000012812D14D231B069B690724A402A343E5
:1013B0004D242406A3610B03940223434D242406E9
:1013C000A46923434D242406A36100234D2424064D
:1013D000A36310BD10B555234D242406A363002834
:1013E00012D123461B681B091B012360022903D06D
:1013F000012901D0032907D14D231B061B680124B5
:1014000023434D2424062360012815D14D231B06B8
:101410001B691B091B014D2424062361022903D0EB
:10142000012901D0032907D14D231B061B69012483
:1014300023434D2424062361022903D0012901D02E
:1014400003290FD14D231B061B6A9B099B014D24C9
:101450002406236223461B6A0C01144323434D24B4
:101460002406236200234D242406A36310BD5522C5
:101470004D231B069A6300280DD11A46126870236B
:101480009A434D231B061A601A4612680B011A4331
:101490004D231B061A6001280ED14D221206126937
:1014A00070239A434D231B061A611A4612690B01D9
:1014B0001A434D231B061A6100224D231B069A6313
:1014C000704755214D2212069163002806D111461E
:1014D000496A102291434D2212065162012807D118
:1014E0004D210906496A202291434D22120651627C
:1014F00000214D2212069163704755214D2212069C
:101500009163002807D11146896801225202914354
:101510004D2212069160012807D14D2109068969E3
:10152000420291434D221206916100214D22120682
:101530009163704710B555224D231B069A6300280E
:101540000FD11A469268120912019A601A469268DF
:101550000B071B0FFF24013423431A434D231B06A3
:101560009A60012811D14D221206926912091201C6
:101570004D231B069A611A4692690B071B0F040242
:1015800023431A434D231B069A6100224D231B0659
:101590009A6310BD55214D22120691631146896A46
:1015A0000122824011434D22120691620021916373
:1015B000704701464D200006006B01228A40104012
:1015C000002801D0012070470020FCE701460029D7
:1015D00007D14D2000064068012252021040400A07
:1015E0007047012906D14D20000640694A0210408B
:1015F000400AF5E70020F3E710B50020FFF7D9FF18
:10160000002805D00120034908700020FFF780FE64
:1016100010BD00002000002055214D2212069163CC
:10162000002807D1114609680122D20311434D2237
:1016300012061160012807D14D2109060969C2036C
:1016400011434D221206116100214D2212069163B1
:101650007047000030B555249B25ED05EC622C4603
:1016600064690C4D2C409B25ED056C610C07240929
:101670000443D506ED0A2C431D052D0D2C439B2557
:10168000ED056D692C439B25ED056C610024EC6232
:1016900030BD0000FFFF00E010B555239B24E4059A
:1016A000E36223461B68094C23409B24E405236026
:1016B00023461C6803460B4313431C439B23DB0553
:1016C0001C6000239B24E405E36210BDC7CFFFFF2D
:1016D00055209B21C905C8620846406802218843FD
:1016E0009B21C90548600020C862704755209B2196
:1016F000C905C86208464069090208439B21C9051B
:1017000048610020C862704755219B22D205D162F2
:1017100011460969014311610021D16270470146F8
:101720009B20C0054069012292071040800F70473E
:10173000014602488A008058704700008000804DB2
:1017400055209B21C905C86208464068802108438E
:101750009B21C90548600020C86270477047552129
:101760009B22D205D16211460968072212049143D7
:101770009B22D205116011460968014311600021C6
:10178000D162704710B50120C00601F03BFA032278
:10179000120303210820FFF77FFF114800F066FCC9
:1017A000044623461E22322101200007FFF752FF84
:1017B0000C48FFF7A9FF00BF01200B49486300BF99
:1017C00000BF086300BF8004FFF7C9FFFFF78EFF6B
:1017D00000F00CF800F018F8FFF77AFF10BD0000D9
:1017E0000000E040000600404000005055209B21D2
:1017F000C905C86208460068102108439B21C90535
:1018000008600020C862704755209B21C905C86246
:1018100008464068012108439B21C9054860002013
:10182000C86200BF9B20C0054068C007C00F0028E9
:10183000F8D1704770470000F1B588B032480168B0
:10184000089802F00DFB02D2304809B0F0BD2E48D6
:1018500080300169089802F081FA01D22B48F4E740
:1018600000252426122425E0A000274A11580898B4
:1018700002F0F6FA06D226467019C10F0918C905FA
:101880000C0E17E0A000204A1158089802F066FAE2
:1018900006D225467019C10F0918C9050C0E09E0BA
:1018A000A0002018373805900598FFF73FFC074641
:1018B0003846CAE7701B0128D6D1A0002018373857
:1018C0000590A800104908580790B00008580690E5
:1018D0000598FFF72BFC04900799069802F0ECFAA4
:1018E00002900799089802F0E7FA0949009002F07F
:1018F0005FFA01900299FFF72DFB0390049902F023
:10190000BDF907463846A0E7883F000000C079448B
:101910000000A040F0B58BB0FE480088401CFD4997
:10192000088001F055FAFC49FC48006802F098FA7A
:1019300002D20220FA4948700021F848006802F0FB
:101940008FFA16D2F749F548006802F031FA0446DA
:10195000FFF7B0FB0004000EF1498870F149EF4831
:10196000006802F025FA0446FFF7A4FBEC49C870B2
:101970001FE0EA4800680121C90748400546E949D7
:1019800002F016FA0446FFF795FB0004000E8021D2
:101990000843E3498870E14800680121C9074840CD
:1019A0000546E04902F004FA0446FFF783FBDC49F0
:1019B000C870DD48006801F055FB0546DB4902F0C0
:1019C000F7F90446FFF776FB0004000ED4490871CE
:1019D000D548006801F046FB0546D44902F0E8F915
:1019E0000446FFF767FBCE494871D148006800F014
:1019F00005FB0546CD4902F0DBF90446FFF75AFB2B
:101A00000004000EC6498871C948006800F0F6FA63
:101A10000546C64902F0CCF90446FFF74BFBC04926
:101A2000C8710821BE4802F00DF90012BC490872C5
:101A30000821BB4802F006F9B9494872BD49B548CA
:101A40000088FEF734FC002905D10120BA4908704E
:101A50000020B0490880C821AE480088FEF727FC66
:101A600000297DD1B549AD48006802F0F9F91DD2D1
:101A70000120B3490870B349A848006802F0F0F9A2
:101A800014D20120B0490870B049A448006802F09F
:101A9000E7F90BD20120AE490870AE499F480068B3
:101AA00002F0DEF902D20120AB490870AA480078A2
:101AB00001283ED1A5499948006802F04FF91DD888
:101AC0000320A6490870A648007850280FD009784E
:101AD0000722501AFFF72AFB054600F0C7FA044612
:101AE00023461E22322101200007FFF7B3FD00200C
:101AF0009949087050209A490870E4E005209749F8
:101B000008709748007851280FD009780722501A9A
:101B1000FFF70CFB054600F0A9FA044623461E22F7
:101B2000322101200007FFF795FD51208C490870F4
:101B3000C9E087480078012840D182497748006889
:101B400002F00CF91FD802208449087084480078FC
:101B50004B2811D009780722501AFFF7E7FA00E066
:101B600026E1054600F082FA044623461E22322171
:101B700001200007FFF76EFD0020754908704B201B
:101B8000774908709FE00320744908707448007812
:101B90004C280FD009780722501AFFF7C7FA0546DC
:101BA00000F064FA044623461E2232210120000779
:101BB000FFF750FD4C206A49087084E062480078C5
:101BC00001283ED15D495548006802F0C7F81DD88C
:101BD0000120624908706248007846280FD00978D1
:101BE0000722501AFFF7A2FA054600F03FFA044612
:101BF00023461E22322101200007FFF72BFD002083
:101C0000514908704620564908705CE0022053494B
:101C100008705348007847280FD009780722501AD7
:101C2000FFF784FA054600F021FA044623461E22F7
:101C3000322101200007FFF70DFD472048490870B9
:101C400041E03F48007801283DD1464933480068CB
:101C500002F084F81DD80020404908704048007800
:101C600041280FD009780722501AFFF75FFA05467E
:101C700000F0FCF9044623461E2232210120000711
:101C8000FFF7E8FC00202E49087041203449087015
:101C900019E00120314908703148007842280FD0FE
:101CA00009780722501AFFF741FA054600F0DEF9DD
:101CB000044623461E22322101200007FFF7CAFCFA
:101CC000422027490870284800792749C97800919F
:101CD0000190254883784278017824A000F0A6F886
:101CE0001348006800F08AF90790FFF709F90446E5
:101CF0000D460D48006801F0B5F90790FFF700F9AF
:101D000006460F4605480068FFF7FAF80991089063
:101D100007483DE0340000200000B44230000020BD
:101D20009C000020000020412C00002000007A448C
:101D300028000020409C0000120000200000A44267
:101D40004C0000200000A8424D0000200000AC42E2
:101D50004E0000200000B0424F000020360000205E
:101D6000500000200000A042640000204144445282
:101D70003A252E327820252E327820252E327820D2
:101D8000252E327820252E3278200D0A0000000002
:101D900000680595049406901D4800680197009618
:101DA00002900B461B4801781B48089A00F03EF849
:101DB0001A4801F085F916490968884225D23F2062
:101DC000000600F053F91649096888421DD91548E4
:101DD0000088401C13490880084600887D2149017D
:101DE000884212DD08460F49088005200E494870D8
:101DF00008210D4801F026FF00120B490872082146
:101E0000094801F01FFF084948720BB0F0BD0000FF
:101E10002C00002021000020DC42000000002042B5
:101E200028000020100000209C0000207047704710
:101E300072B610499322D20511611146486000BF65
:101E40009321C9050968202211402029F8D00321D7
:101E50009322D205D16000BF9321C90509682022D1
:101E600011402029F8D000219322D205116162B6D9
:101E7000704700009966AA550146074A9323DB057F
:101E80001A618A0892005A600122DA601A46906844
:101E900000221A61704700009966AA5572B6114A6D
:101EA0009323DB051A61820892005A601A469160FA
:101EB00000BF9322D205126820231A40202AF8D0AE
:101EC00002229323DB05DA6000BF9322D205126859
:101ED00020231A40202AF8D000229323DB051A6120
:101EE00062B670479966AA55704710B50221A520C1
:101EF000C00500F039F8002815D0A521C90589686A
:101F00000907C90FC943C900082211400846A52185
:101F1000C905896891430143A522D2059160022138
:101F2000104600F004F810BD704770477047C26952
:101F300001238B401A43C2617047000000BF00209C
:101F40000849086100BF00BF15208006006807210E
:101F5000090488431521890608600846006808605E
:101F600000BF7047C00000500246906901238B40BB
:101F70001840002801D0012070470020FCE7000035
:101F800000BF00200E49086100BF00BF1520800679
:101F9000006807210904884315218906086008465E
:101FA000006801210904084315218906086000BF63
:101FB000084680681021884315218906886070478B
:101FC000C00000507047704770B50246481CC40FEF
:101FD0002418E405230E00200BE04400641C640078
:101FE000145B24048500555B2C438500024E74511C
:101FF000401C9842F1DB70BD10020020F1B58AB0A0
:102000000A98FFF79BF808900898FEF779FF0446B6
:102010000022104BFEF750FE064600220E4BFEF744
:10202000D7FB00220D4B01910090FEF745FE0C4AB4
:102030000C4B03910290FEF7CBFB00220A4B05915B
:102040000490FEF7C5FB07910690FEF7D7F90BB099
:10205000F0BD000000001440000010400000694086
:1020600037894160E5D030400000B040F1B50098BC
:10207000FEF746FF0446044A044BFEF71DFE0646E3
:10208000FEF7CAFD80B2F8BD90B932A8363871406B
:1020900010B536480079000234494979084334497B
:1020A000088034480088098840187D21C90088428A
:1020B0004ADA2E480078304908702C484078487039
:1020C0002B4800784006000E8870002016E0294951
:1020D000098809188900294A5158098809124200BB
:1020E000D21C254B99542349098809188900234A91
:1020F00051580A784100091D5A54401C1C4909884E
:102100008842E4DB1A4800884000C01C81B21A48AB
:1021100001F098FD1A4908800846017814480088A3
:102120004000C01C144A1154154800880012104980
:1021300009884900091D50540D4800884000411D80
:10214000104600F06DFF0FE0084800780A4908705B
:10215000064840788021084307494870022088706B
:102160000321054800F05CFF10BD0000E4000020E2
:10217000820000208000002066010020E80100208D
:102180008400002010B51E48007900021D4909880E
:1021900089001D4A515808801A480088800011465D
:1021A0000858008816494979084316490988890062
:1021B0005158088012480078144908701048407837
:1021C00048700F48807888700D48C078C8700C48F7
:1021D000007908710A484079487106210B4801F0DE
:1021E00031FD0B4908800846007808498871084885
:1021F00000880012C8710821044800F011FF10BDCA
:10220000E400002080000020E8010020660100209A
:102210008400002010B529482949086029484860F1
:10222000294888602948C8602948086129484861C8
:10223000801E88612848C8610020284908604860DD
:1022400022490880FF202649087006202549087089
:10225000224800881949088020484068000C194924
:1022600008801E488088184908801D480078194950
:10227000891E08801B4800784880032207208006BA
:1022800000F023FC1348801E808817490880084608
:1022900000881649884206D1FF201149087006209F
:1022A0001049087009E00B48801E00780C4908703E
:1022B0000848801E80780B49087010BD700000200F
:1022C000E80100206C0000206E0000207200002059
:1022D0007C0000207600002088000020D000002034
:1022E00086000020870000207E000020FFFF000005
:1022F000704700001FB510A103C903910290052289
:1023000002A9302000F009F905226946102000F0EA
:102310006EF8002406E06846005DA52800D003E0C2
:10232000601CC4B2052CF6DB00BF052C02D00120D6
:1023300004B010BD0020FBE7A5A5A5A5A5000000E1
:1023400000BF00202049486000BF00BF2920400690
:102350000068702188432921490608600846006802
:102360001021084329214906086000BF08468068FB
:1023700002218843801C29214906886000BF002073
:102380001149086000BF00BF292040060068C0084E
:10239000C000292149060860084600680321084357
:1023A00029214906086000BF084680680221884349
:1023B000292149068860084680681021884310302A
:1023C00029214906886070474000005029204006B6
:1023D0008068022188432921490688600846806870
:1023E0001021884310302921490688607047F8B5CC
:1023F00007460D461646292040068068102188436E
:10240000292149068860384601F0A2F9009000248D
:1024100005E0FF2001F09CF92855601CC4B2B442CD
:10242000F7DB2920400680681021884310302921DD
:10243000490688600098F8BD70B50446292040061A
:10244000806810218843292149068860204601F0D0
:102450007FF9FF2001F07CF90546292040068068BD
:10246000102188431030292149068860284670BD14
:1024700070B504460720FFF7DFFF054629462720F1
:1024800000F06FF84020284000280AD00A22214698
:102490006120FFF7ACFFFF21E22000F062F800208E
:1024A00070BD0120FCE770B5054629204006806814
:1024B000022188432921490688600A222946A02052
:1024C00000F02BF829204006806802218843801CF8
:1024D00029214906886000BF29204006C068C0073E
:1024E000C00F0028F8D10720FFF7A6FF04462146B9
:1024F000272000F036F810202040002805D0FF21CA
:10250000E12000F02EF8102070BD2020204000288F
:1025100001D02020F8E7FF20F6E7F8B507460D4682
:102520001646292040068068102188432921490643
:102530008860384601F00CF90090002404E0285D22
:1025400001F006F9601CC4B2B442F8DB2920400651
:10255000806810218843103029214906886000983E
:10256000F8BD70B505460C4629204006806810214C
:102570008843292149068860284601F0E9F8064683
:10258000204601F0E5F829204006806810218843A4
:102590001030292149068860304670BDC206D20E2F
:1025A00001219140014A11607047000080E100E084
:1025B00010B5002819DA1A4A03071B0F083B9B08BD
:1025C0009B00D2588307DC0EFF23A3409A438B075E
:1025D0001B0E8407E40EA3401A43114B0407240F7B
:1025E000083CA408A4001A5118E00E4A03231B0259
:1025F000D21883089B00D2588307DC0EFF23A34028
:102600009A438B071B0E8407E40EA3401A43054B25
:10261000032424021B198408A4001A5110BD0000D1
:102620001CED00E000E100E010B5002819DA1A4ABC
:1026300003071B0F083B9B089B00D2588307DC0E47
:10264000FF23A3409A438B071B0E8407E40EA3408D
:102650001A43114B0407240F083CA408A4001A5184
:1026600018E00E4A03231B02D21883089B00D2589D
:102670008307DC0EFF23A3409A438B071B0E8407BE
:10268000E40EA3401A43054B032424021B198408BB
:10269000A4001A5110BD00001CED00E000E100E0B4
:1026A00010B50120400600F0ADFA00219920C005C8
:1026B00000F03AF800219920C00500F02DF8002123
:1026C0009920C00500F018F810219920C00500F0ED
:1026D0001BF800BF01200749C86000BF00BF0861A8
:1026E00000BF00BF486100BF9920C00500F024F87A
:1026F00010BD00008000005002688C239A430260E5
:1027000002680A4302607047026890239A4302609D
:1027100002680A4302607047026883239A4302609A
:1027200002680A4302607047026820239A430260ED
:1027300002680A4302607047016880221143016009
:102740007047026807231B039A43026002680A432A
:10275000026070470268034B1A40026002680A4335
:1027600002607047CF7FFFFF02681123DB029A43AC
:10277000026002680A4302607047000010B5012041
:10278000400600F03FFA00210E48FFF7E3FF00BFCC
:1027900001200D49886200BF00210A48FFF7D1FFE0
:1027A000002108480C38FFF7CCFF00210548FFF74F
:1027B000DBFF044800F00AF802480C3800F006F885
:1027C00010BD00002400804C400000500168012230
:1027D000D2031143016070477047000010B51748DD
:1027E0004068000C16490880144880881549088004
:1027F0001248008814490880104949680F4A126835
:10280000514308461149FDF748FD114908800B481E
:1028100080891049088010480068FEF74BFCC0B260
:102820000E49088000F02CF880210D48FDF731FD9D
:1028300000210B488030018010BD0000D000002036
:102840006C0000206E0000207000002040420F004D
:10285000720000207C000020300000208800002052
:10286000E400002010B5FFF7D5FC0448007800F024
:10287000D7F9044600F096FB10BD00008700002049
:1028800010B5544800785449097888426FD15148AE
:102890004078032803D04F484078062856D14D4849
:1028A000807800024B49C97808434C4908800846A3
:1028B00000887D21C900884237DA49480078801EA7
:1028C00081B2444801F0BEF9464908804448007886
:1028D000801E40490C5C42490978491E3D4A515CC2
:1028E00009020C433F480088A0420DD110464078B1
:1028F000032802D0062806D102E0FFF7C9FB02E058
:10290000FFF740FC00BF33E03248007836490870DA
:10291000304840788021084333494870042088704B
:102920000321314800F07CFB10BD2A4800782E4975
:10293000087028484078802108432B4948700220BD
:1029400088700321284800F06BFBEDE721480078F0
:10295000254908701F484078802108432249487063
:10296000012088700321204800F05AFBDCE72DE0AD
:102970001A480088052812D11648407806280ED13A
:102980001A481B498880084680781A490870032233
:1029900017490720800600F0C5F800F067F90F48D6
:1029A0000088062813D10B48407806280FD10F481D
:1029B00011380F49888008460078074908700322BB
:1029C0000B490720800600F0ADF800E0ACE700BF3F
:1029D000AAE70000E400002086000020800000201C
:1029E000980000208400002066010020BBAA00009F
:1029F000740000208700002070B51348006800F0C4
:102A000031FB0546114901F0D3F90446FEF752FBAC
:102A100080B20F4948600F480068FFF7EFFA05469B
:102A20000A4901F0C5F90446FEF744FB80B20849A3
:102A3000086009480078012804D1FFF7CFFE002084
:102A40000549087070BD00002C00002000007A4489
:102A5000D0000020280000200D00002010B5044602
:102A600018480470292040068068022188432921E3
:102A700049068860052213492A20FFF74EFD0121EF
:102A80002120FFF76EFD01212220FFF76AFD28219A
:102A90002520FFF766FD0A213120FFF762FD0F2197
:102AA0002620FFF75EFD0F212020FFF75AFD292089
:102AB0004006806802218843801C292149068860DD
:102AC00010BD0000640000207047F0B589B00646D4
:102AD0000D461746781CC10F0918C905090E089143
:102AE00020216846FDF7D7FB002415E03046FFF7AC
:102AF000C3F9A1006A465050361DA0006946085A25
:102B0000A1006852A00069460858010C6000401CF2
:102B100040002952601C84B208988442E6DB09B068
:102B2000F0BD0000F8B50E461546681CC10F091827
:102B3000C9050F0E29463046FFF746FA0B480068D4
:102B4000FFF776F909480068FFF772F9002409E0F9
:102B5000A200074B9958A200044B1B68D018FFF73E
:102B60009DF9641CBC42F3DBF8BD00008C00002022
:102B7000100200207047704770B504460D460B4E9A
:102B800000BF00F047F8002800D003E03046761E72
:102B90000028F6D100BF06482043052109074862F6
:102BA0000846456000F07AF870BD0000102700006C
:102BB0000000695A10B5044605200007846000F043
:102BC0006DF810BD014605221207106A80088000CA
:102BD00002460A43104682B2024B1A4305231B07E2
:102BE0001A6270470000695A05210907086A08211E
:102BF000084381B2024A114305221207116270474D
:102C00000000695A05210907C96801430522120716
:102C1000D160704705200007806AC007C00F704769
:102C200000B5014600200B0000F0ECFB0705080B87
:102C30000E1114171A004B20400114E04B208001A4
:102C400011E04B20C0010EE04B2000020BE04B20B6
:102C5000400208E0E120000205E0E120400202E03D
:102C6000E120400200BF00BF00BD00001020FFF7C0
:102C700095FC0D20FFF792FC00BFBFF34F8F044877
:102C80000449C860BFF34F8F00BF00BFFEE70000DC
:102C90000400FA0500ED00E07047000010B50520C3
:102CA0000007406A002804D0012811D0022814D15E
:102CB0000FE005200007006A8007800F032803D17A
:102CC0001C481D49086002E01C481B49086004E0DC
:102CD00003E01B481849086000BF00BF052000073B
:102CE0004068002809D005200007406841001248CC
:102CF0000068FDF7D2FA10490860052000078068D7
:102D000000280AD005200007806841000D480068AF
:102D1000FDF7C3FA0B49086003E00748006809495A
:102D20000860094904480068FDF7B7FA07490860D8
:102D300010BD0000006CDC02000000200090D003F9
:102D4000409C00000400002040420F0008000020CA
:102D500010B5FFF7A3FF10BD7047704710B50446CC
:102D60001A480470292040068068022188432921DE
:102D700049068860052215493020FFF7CEFB052261
:102D800012492A20FFF7C9FB01212120FFF7E9FBA7
:102D900001212220FFF7E5FB1A212420FFF7E1FBA8
:102DA00028212520FFF7DDFB0F212620FFF7D9FB87
:102DB0000E212020FFF7D5FB292040068068022144
:102DC0008843801C29214906886010BD64000020CA
:102DD000F0B585B000200490039002900920FEF722
:102DE000A7FC02900298FDF764FF04460022104BF6
:102DF000FDF762FF00220F4B01910090FDF7E8FC08
:102E00000646FDF7FBFA04900B48049901F054F8CC
:102E100005460A4900F0CCFF04460499FEF79AF8EB
:102E200003900398FEF708FD0549086005B0F0BD62
:102E3000000014400000B0400000A04000007A44B0
:102E4000300000207047000008B5452000060069EA
:102E50000007000F2E490860084600684008086017
:102E600045200006006A2B490860294800680300D5
:102E700000F0C8FA0705060A304C4C424C0045E009
:102E800001202549086041E00020244908600CE049
:102E90004520000600F083F82149204A1268885432
:102EA0001E480068401C1D49086045200006006A55
:102EB000C007C00F0028EBD101201A49087017483D
:102EC0000068194908701548026815491748FDF748
:102ED00083F91BE00F4800680E4800680D48006841
:102EE0000C480068012000231A461946009045202E
:102EF000000600F03EF809E00120002302221946F6
:102F000000904520000600F034F800BF00BF08BD67
:102F10005400002058000020940000205C00002095
:102F2000B00000200D00002098000020E4000020E8
:102F3000FFB581B0044615461E460A9FA069800968
:102F40008001A061A1692846304338430143A16153
:102F50000449096808090299FDF79FF9A06005B0C6
:102F6000F0BD000004000020C16A10221143C162BC
:102F7000704770B5049C95010E0135439E003543A2
:102F8000660035436D1C456170BDC1680122114367
:102F9000C1607047C16802221143C1607047014699
:102FA0000868704738B504460020034603222146CE
:102FB000009045200006FFF7BBFF45200006FFF705
:102FC000D3FF012003460222002100904520000685
:102FD000FFF7CFFF1020FFF715FE00BF09200D49B6
:102FE000886200BF00BF0820086300BF45200006BC
:102FF000FFF7D0FF45200006FFF7C7FF0321102091
:10300000FFF7D6FA102001218140034A116000BF6A
:1030100038BD00008000005000E100E041607047D2
:1030200070B504460E4600200D490860002514E0E6
:103030002178641C45200006FFF7F0FF0F21284689
:10304000FDF735F9002907D100BF054800680028C1
:10305000FBD00020024908606D1CB542E8D370BD6A
:1030600094000020F1B588B00898FEF767F8069044
:103070000698FDF745FF044600220D4BFDF71CFEA8
:10308000064600220B4BFDF717FE00220A4B01916A
:103090000090FDF79DFB0022084B03910290FDF785
:1030A00097FB05910490FDF7A9F909B0F0BD000068
:1030B0000000144000E06A400000B04000002E40D4
:1030C000F1B50098FDF71CFF0446044A044BFDF7D8
:1030D000F3FD0646FDF7A0FD80B2F8BD583AC98160
:1030E000A5934C40FEB5044600250A2C7ED100264F
:1030F000C8E09B20C005406880210840C009002826
:103100000AD1FEF71DFB00BF9B20C005406880214F
:103110000840C0090028F7D10A20FEF709FBA94999
:103120000880084600882D18A748007801287DD11E
:10313000A648FFF7C5FFA3490988884276DA002030
:10314000A3490880A349088097E00120A24908709C
:10315000042048709B480088FFF784FF9F49019036
:1031600000F026FE0746FDF7A5FF0004000E9A4971
:10317000087194480088FFF775FF9849019000F0A6
:1031800017FE0746FDF796FF93494871944800885B
:10319000FEF734FF9149019000F00AFE0746FDF763
:1031A00089FF0004000E8C4988718D480088FEF765
:1031B00025FF8A49019000F0FBFD0746FDF77AFFE5
:1031C0008549C8710821844800F03CFD00128249FD
:1031D00008720821804800F035FD7F494872084692
:1031E000FFF761F97F490870084600E04EE000787B
:1031F000202804D176480088401C7549088075480D
:103200000088401C734908800A2171480088FDF736
:103210004EF8002908D153200006806840218843D9
:1032200040305321090688600F2100E026E06948FC
:103230000088FDF73CF8002908D15320000680687B
:10324000402188434030532109068860642000F003
:10325000D5F95C480088FFF705FF0746FDF750FEEB
:1032600002460B46019100905FA0FEF7DFFD5A4831
:10327000407860498881FFF7BFFB66E7142000F0C3
:10328000BDF9761C142E00DA33E796E01E2CFCD133
:1032900000268FE09B20C005406880210840C009BF
:1032A00000280AD1FEF74CFA00BF9B20C0054068F9
:1032B00080210840C0090028F7D11E20FEF738FA07
:1032C00047490880084600882D183F4800780128A3
:1032D0006CD149480078012834D141200006FEF71E
:1032E000C5FE3F490988884260DA002038490880D5
:1032F0003849088025E05320000680684021884333
:1033000040305321090688600120334908700320AA
:1033100048700821304800F095FC00122E490872D0
:1033200008212D4800F08EFC2B4948720846FFF713
:10333000BAF82C490870284840782E498881FFF750
:103340005BFBD8E72D48FEF791FE254909888842A6
:103350002CDA00201E4908801E49088025E05320F1
:103360000006806840218843403053210906886068
:10337000012019490870032048700821164800F000
:1033800061FC0012144908720821134800F05AFC2D
:10339000114948720846FFF786F8124908700E482E
:1033A000407814498881FFF727FBD8E7142000F004
:1033B00025F9761C142E00DA6CE714212846FCF758
:1033C0006CFFFEBD420000200C00002000003042D7
:1033D0003E000020400000209C00002000007A44B5
:1033E000440000200E000020563A2025302E326680
:1033F0000D0A0000D00000201200002000006041F3
:103400007047704730B47446641E2578641CAB4224
:1034100004D3635D5B00E31830BC18471D46F8E732
:1034200000BFFEE7F0B58BB0012000F00BF99B2048
:10343000C005406880210840C009002816D1FEF769
:103440007FF900BF9B20C005406880210840C0096B
:103450000028F7D10A20FFF745FE454908601E20E5
:10346000FFF740FE43490860FFF7B2FC424943487A
:10347000006800F0F5FC42D241494048006800F085
:103480006DFC3CD23F48FFF71BFE39490968884272
:1034900026D23D48FFF714FE3549096888421FD9F6
:1034A00034480068FF21F531884215D253200006C8
:1034B000806802218843801C53210906886001200E
:1034C000324908700A2000F0BDF831A0FEF7AEFCCA
:1034D000FF20324988811FE00A20304988811BE0A3
:1034E0002848FFF7EDFD22490968884203D90820E2
:1034F0002A49888110E00920284988810CE0284960
:103500001E48006800F000FC03D106202349888192
:1035100002E0072021498881FFF76EFA154800680C
:10352000FEF76CFD0790FDF7EBFC04460D461048D6
:103530000068FFF797FD0790FDF7E2FC06460F468F
:103540000E480068FDF7DCFC099108900948006806
:10355000059504940690064800680197009602902D
:103560000B461048089AFEF761FC0BB0F0BD000056
:103570002C0000202800002000000CC23000002099
:10358000000082420000E041000070420C00002078
:103590004D4F535F49535F4F4E0D0A00D00000203E
:1035A00000C079443843000070B503210F4800681B
:1035B000FCF773FE05460E49FCF76FFE0D490870D7
:1035C00003210A480068FCF768FE05460849FCF735
:1035D00064FE04467D20C0004443074844610069FE
:1035E000012108430449086170BD0000000000206B
:1035F00040420F006900002000E000E070B5034683
:1036000000220E4E75690E4E36785E4334460B4EE0
:10361000B1690FE0094EB06988420BD0884202D2EE
:103620000E1AB21802E02E1A7618B2180146A242FB
:1036300000D300E0EEE700BF70BD000000E000E056
:103640006900002030B50446002504E07D20C0005C
:10365000FFF7D4FF6D1CA542F8D330BD00BF00209A
:103660003A49C86100BF00BF292040060068072111
:103670000907884329214906086008460068012196
:103680000907084329214906086000BF08468068E9
:103690008021884329214906886000BF00202B49EA
:1036A000486100BF00BF29204006006807210905C6
:1036B0008843292149060860084600680121090558
:1036C000084329214906086000BF08468068202178
:1036D0008843203029214906886000BF00201B490B
:1036E000086100BF00BF29204006006807210904C7
:1036F0008843292149060860084600680121090419
:10370000084329214906086000BF08468068102147
:103710008843103029214906886000BF00200B49EA
:10372000886100BF00BF2920400600680721090604
:1037300088432921490608600846006803210906D4
:10374000084329214906086000BF70474000005027
:1037500010B501460022002029235B069B688024C7
:10376000A34329246406A36000BF3CE080230B40F0
:10377000802B09D129235B069B682024A343203397
:1037800029246406A36007E029235B069B682024A4
:10379000A34329246406A3604B06190E29235B0664
:1037A0009B688024A343803329246406A36000BF60
:1037B00000BF4306180E29235B06DB685B06DB0FA0
:1037C000012463406340002B01D0012318432923C7
:1037D0005B069B688024A34329246406A36000BF82
:1037E00000BF531CDAB2082AC0DB10BD08B500BF09
:1037F0009920E649C86300BF00BF086000BF00BF52
:10380000486000BF00BF886000BF00BFC86000BF45
:1038100000BF086100BF0320FFF7D4F9FFF7E4F908
:1038200000210846FFF7A8F90020FFF7C3F9FFF7CA
:10383000BBFEFEF783FBFFF711FFFFF713F8142021
:10384000FFF700FFD2A0FEF7F1FA00BF0020D44935
:10385000486000BF00BF5320000600687021884305
:1038600053210906086008460068102108435321C7
:103870000906086000BF084680680221884353217A
:103880000906886000BF0020C549886100BF00BFED
:1038900053200006006807210906884353210906C2
:1038A00008600846006801210906084353210906FB
:1038B000086000BF084680684021884353210906FC
:1038C0008860FEF7EDFEFEF759FFFDF75BFFFDF7A1
:1038D000E5FCFEF735FDFEF779FDFEF70BFD002850
:1038E00003D1B0A0FEF7A2FA13E0B3A0FEF79EFA50
:1038F0000BE0FEF725FDFEF769FD0B20B44988813A
:10390000FFF77AF81420FFF79DFEFEF7F3FC00287E
:10391000EFD109E0FFF786FD53200006806880079D
:10392000C00F002800D000E0F4E700BF0020FFF740
:1039300095F82AE1A7480078002841D1A6490880D7
:10394000FF20A6494870A648FEF792FDA5490870D9
:1039500008460078002819D10821A14800F072F922
:10396000A14908809E48007A00029D49497A08438F
:103970009D490988884209D1052299499B48FCF74D
:103980002BFC9B480088401C994908809948008876
:10399000401C98490880642196480088FCF787FC01
:1039A00000290CD192480088002805D00020FFF79C
:1039B000D5F901208749087000208E490880C2E0AF
:1039C0000020FDF703FE8C4908700A20FFF78AFBF0
:1039D0008A4908601E20FFF785FB89490860AA20F4
:1039E0007E4908708448007800287DD18548007899
:1039F000002858D1487084480078FDF75AF90646E7
:103A00000022824BFCF7CCFE0446FCF7F7FC00904A
:103A1000FEF72CFB7A490968884203D902206F49D6
:103A2000087082E078480078FDF743F90446784A48
:103A3000784BFCF7B5FE0646FCF7E0FC0090FEF77D
:103A400015FB6F490968884205D201206349087057
:103A50007149087069E09B20C005406880210840DA
:103A6000C009002818D1FDF76BFE00BF9B20C005E0
:103A7000406880210840C0090028F7D1FDF74FFEBB
:103A80006649086008460068002802D1534908705A
:103A900002E001205149087000206149088001209E
:103AA0005D49087041E05C480078002827D15D48F6
:103AB000FFF706FB51490968884220D97F20C005DD
:103AC000FEF7D4FA4E490968884215D9564800785D
:103AD000F02814DA00204149487053480078401C0F
:103AE00051490870084600E019E00078F02806D136
:103AF00000204449087002E0012047490870002076
:103B0000364908704948FEF7B1FA3D4909688842CC
:103B10000BD20120314908703F49087005E00120AF
:103B2000384908702D4908704870FDF7F3FE2B489E
:103B3000FEF7B9FC3E49087008460078202802D1FB
:103B400000202549088024480088401C224908801C
:103B5000084600887D21C900884204DD35A0FEF7B3
:103B600065F9FEF70DFA152080068068C006C00FC3
:103B7000002801D1FEF704FA0120FFF763FD174882
:103B8000407813498881FEF737FFD3E6C001005023
:103B900056657273696F6E3A312E302E310D0A0000
:103BA000800000504E524632344C30312020697330
:103BB00020206F6B210A0D004E524632344C3031BA
:103BC0002020697320206572726F72210A0D000037
:103BD000D000002037000020240000209C0000209E
:103BE000A60000200F000020380000206400002004
:103BF0003C0000203A000020210000202C00002082
:103C000028000020230000203600002000001A4079
:103C10006666666666661C4026000020140000206A
:103C20001000002066662842220000200000E040CC
:103C30000E0000206E72665F54696D656F757421A9
:103C40000D0A000070B502460B46FF25FF2408E070
:103C50001178521C61400748405C684004460648A1
:103C6000455C18465E1EB3B20028F1D128022043FD
:103C700070BD00001C4000001C41000070B5012513
:103C80000400ED074C4020D4441A01D2001B09194E
:103C9000C60D4B00F2B2FF2A29D01B0E2CD0000219
:103CA0000C02D31A2C43DC402843051910D2280AF1
:103CB00002D3401C6D0611D0761EF6058019FF2A2E
:103CC00000DA70BDC00DC00570BD694000F0FAF8A3
:103CD00001200543C541521C761CE8E764089C405E
:103CE000C90161408900E7D10124A043E4E71B0E2C
:103CF000440200D0034870BD002AFCD1C00FC007A9
:103D000070BD00BF0000C07F01230200DB050A4335
:103D10000DD4DA4203D49A4207D488427047D8427D
:103D200014D4D94212D48842704780427047DA4294
:103D300003D59A42F9D5814270475B004200DA42CE
:103D400004D24A00DA4201D28142704710B5024AD9
:103D5000FDF7F8F910BD00BF0900120401230200AD
:103D6000DB050A430DD4DA4203D49A4207D48842D1
:103D70007047D84214D4D94212D488427047804246
:103D80007047DA4203D59A42F9D5814270475B0009
:103D90004200DA4204D24A00DA4201D2814270473C
:103DA00010B5024AFDF7CEF910BD00BF0900160498
:103DB00070B5420064414B005C41120E39D01B0EBD
:103DC00038D0FF2A3CD0FF2B3AD040024902400AAB
:103DD000490A060045184E43000A090AD21848430A
:103DE000ED017F3A0104731A4019190C4318990F19
:103DF00004D001215B0849075B1A521CD80904D37F
:103E0000401CF50301D19D0607D0FF2A08D2D50535
:103E100006D0E4072043401970BD0125A843F4E70C
:103E2000002A01DCE00770BD2402FF202043C0050A
:103E300070BD1B0EFF2A03D0FF2B01D0E00770BD21
:103E4000FF2645003606B54206D84D00B54203D8D8
:103E5000D218FF2A00D0E7E7004870BD0000C07FFD
:103E600001230A00DB0502430DD4DA4203D49A424F
:103E700007D481427047D94214D4D84212D4814227
:103E8000704789427047DA4203D59A42F9D5884291
:103E900070475B004A00DA4204D24200DA4201D2A3
:103EA000884270474840414010B5024A4840FDF7FB
:103EB00049F910BD0900160470B501250400ED078D
:103EC0004C4022D4441A02D26C40001B0919C60D82
:103ED0004B00F2B2FF2A4BD01B0E50D000020C0256
:103EE000D31A2C43DC40A843051B05D5AD0019D3DC
:103EF0006D08761E521E37D0F605280A01D28019A9
:103F000070BD70416D0603D070BD6940FFF7BCFE07
:103F10009C4009026140490001D0401E70BD01244F
:103F2000A04370BD6D081DD001202B0C01D12D04C4
:103F300010302B0E01D12D0208302B0F01D12D0195
:103F4000001DAB0F01D1AD00801CEB0F01D16D0046
:103F5000401C6D00361A121A680AF5054019012A2C
:103F600002DB70BD002070BDC036300AC00770BDD6
:103F70001B0E440201D1FF2B00D1024870BD002A64
:103F8000F0D070BD0000C07F6072D548409F9F4850
:103F900080CB7048801F3748C05E0C4880D8D84717
:103FA00000BBA847CD398447B3A95047B3BC2547C8
:103FB000667C04470020D546CD72AC469A578C46A5
:103FC00000B46546CDFE3C4600401C4600E4014678
:103FD0008F10D945EC29B6459A919945000882453C
:103FE000E1225D45E1CE3C4529D8214585430B457D
:103FF000C38DF044A480D0440060B544EC419E449D
:10400000148E8A4400607344CD645644336B3D443F
:104010004AD42744391C15442FD5044400C181409B
:1040200001C0804101C0804100C1814001C0804188
:1040300000C1814000C1814001C0804101C0804178
:1040400000C1814000C1814001C0804100C1814068
:1040500001C0804101C0804100C1814001C0804158
:1040600000C1814000C1814001C0804100C1814048
:1040700001C0804101C0804100C1814000C1814038
:1040800001C0804101C0804100C1814001C0804128
:1040900000C1814000C1814001C0804101C0804118
:1040A00000C1814000C1814001C0804100C1814008
:1040B00001C0804101C0804100C1814000C18140F8
:1040C00001C0804101C0804100C1814001C08041E8
:1040D00000C1814000C1814001C0804100C18140D8
:1040E00001C0804101C0804100C1814001C08041C8
:1040F00000C1814000C1814001C0804101C08041B8
:1041000000C1814000C1814001C0804100C18140A7
:1041100001C0804101C0804100C1814000C0C10197
:10412000C30302C2C60607C705C5C404CC0C0DCD27
:104130000FCFCE0E0ACACB0BC90908C8D81819D997
:104140001BDBDA1A1EDEDF1FDD1D1CDC14D4D515C7
:10415000D71716D6D21213D311D1D010F03031F1B7
:1041600033F3F23236F6F737F53534F43CFCFD3DE7
:10417000FF3F3EFEFA3A3BFB39F9F83828E8E929D7
:10418000EB2B2AEAEE2E2FEF2DEDEC2CE42425E587
:1041900027E7E62622E2E323E12120E0A06061A1F7
:1041A00063A3A26266A6A767A56564A46CACAD6DA7
:1041B000AF6F6EAEAA6A6BAB69A9A86878B8B97917
:1041C000BB7B7ABABE7E7FBF7DBDBC7CB47475B547
:1041D00077B7B67672B2B373B17170B05090915137
:1041E0009353529296565797559594549C5C5D9D67
:1041F0005F9F9E5E5A9A9B5B995958988848498957
:104200004B8B8A4A4E8E8F4F8D4D4C8C4484854506
:1042100087474686824243834181804080807F7EFB
:104220007D7C7B7A7978777676757473727171702C
:104230006F6E6E6D6C6C6B6A6A69686867666665DE
:104240006464636362616160605F5F5E5E5D5D5C6C
:104250005C5B5B5A5A5959585857575656555555DD
:104260005454535352525251515050504F4F4F4E3D
:104270004E4D4D4D4C4C4C4B4B4B4A4A4A4949498B
:1042800048484847474747464646454545444444CD
:1042900044434343434242424241414181828384F9
:1042A00085868788898B8C8D8E8F91929395969732
:1042B000999A9C9D9FA0A2A3A5A7A8AAACAEB0B2B4
:1042C000B3B5B7B9BCBEC0C2C5C7C9CCCED1D4D7AF
:1042D000D9DCDFE2E6E9ECF0F3F7FAFE41434D50BA
:1042E0005F53746174757320A3BA25642054656D9F
:1042F00070203A2025302E326620565F56616C754C
:1043000065203A2025302E32665620205641442022
:10431000256420495F56616C7565203A2025302E52
:104320003366412020495F56616C7565203A20252F
:1043300064200D0A0000000054656D70203A2025AD
:10434000302E326620565F56616C7565203A202506
:10435000302E326656202056414420256420495F85
:1043600056616C7565203A2025302E336641202039
:10437000495F56616C7565203A202564200D0A005E
:10438000524632344C3031206973206E6F7420668F
:10439000696E6420212E2E2E00000000BC43000018
:1043A000000000209C0000000401000058440000B0
:1043B0009C000020F40A0000200100000090D003BF
:1043C0000090D0034000000000000000000000004A
:1043D00000000000000000000000000000000000DD
:1043E00000000000000000000000000000000000CD
:1043F00000000000000000000000000000000000BD
:1044000000000000000000000000000000000000AC
:1044100000000000000000000000000080430000D9
:10442000001AB1B10100000000000000000000000F
:10443000000000000000000000000000000000007C
:104440000000FF00000000000000001CFF03001C33
:08445000000000000000000064
:04000005000000C136
:00000001FF
