:020000040800F2
:1000000050360020AD0200087F400008153A000875
:100010007D400008610900087D4E000800000000D6
:10002000000000000000000000000000ED010008DA
:10003000A10900080000000049020008F142000880
:10004000C7020008C7020008C7020008C70200086C
:10005000C7020008C7020008C7020008C70200085C
:10006000C7020008C7020008C7020008C70200084C
:10007000C7020008C7020008C7020008C70200083C
:10008000C7020008C7020008C7020008C70200082C
:10009000C7020008C7020008C7020008C70200081C
:1000A000C702000885430008C7020008C70200080D
:1000B00091430008C7020008C7020008C7020008F1
:1000C000C7020008C7020008C7020008C7020008EC
:1000D000C7020008C7020008C7020008C7020008DC
:1000E000C7020008C7020008C7020008C7020008CC
:1000F000C7020008C7020008C7020008C7020008BC
:10010000C7020008C7020008C7020008C7020008AB
:10011000C7020008C7020008C7020008C70200089B
:10012000C7020008C7020008C7020008C70200088B
:10013000C7020008C7020008C7020008C70200087B
:10014000C7020008C7020008C7020008C70200086B
:10015000C7020008C7020008C7020008C70200085B
:10016000C7020008C7020008C7020008C70200084B
:10017000C7020008C7020008C7020008C70200083B
:10018000C7020008C7020008C7020008C70200082B
:10019000C702000800000000C7020008C7020008EC
:1001A000C7020008C7020008C7020008C70200080B
:1001B000C7020008C7020008C7020008C7020008FB
:1001C000C7020008C7020008C7020008C7020008EB
:1001D000C7020008C7020008DFF80CD000F03EFBA1
:1001E0000048004769580008503600202C4B196819
:1001F0000868B0E8F04F80F30988BFF36F8F4FF0C5
:10020000000080F311887047000000000848006873
:10021000006880F308884FF0000080F3148862B60D
:1002200061B6BFF34F8FBFF36F8F00DF00BF00BF1A
:1002300008ED00E0DFF80C00016841F47001016096
:10024000704700BF88ED00E0EFF30980BFF36F8FC8
:10025000134B1A681EF0100F08BF20ED108A20E91A
:10026000F04F106009B44FF0500080F31188BFF3D5
:100270004F8FBFF36F8F06F07BFA4FF0000080F3D3
:10028000118809BC19680868B0E8F04F1EF0100F1B
:1002900008BFB0EC108A80F30988BFF36F8F7047F6
:1002A00034000020EFF305807047000006488047C7
:1002B00006480047FEE7FEE7FEE7FEE7FEE7FEE74B
:1002C000FEE7FEE7FEE7FEE775430008D9010008F8
:1002D0002DE9F05F0546002092469B46884606467B
:1002E000814640241BE0284641464746224600F00E
:1002F000FEF853465A46C01A914110D3114618468B
:10030000224600F0E5F82D1A67EB01084F46224619
:100310000120002100F0DCF817EB00094E41201EFF
:10032000A4F10104DFDC484631462A464346BDE8D5
:10033000F09F40EA01039B0703D009E008C9121FA0
:1003400008C0042AFAD203E011F8013B00F8013B8F
:10035000521EF9D27047D2B201E000F8012B491EBB
:10036000FBD270470022F6E710B513460A46044652
:100370001946FFF7F0FF204610BD2DE9F04D81EA48
:10038000030404F0004B21F0004514464FF0000A2E
:1003900023F0004150EA050220D054EA01021DD0AA
:1003A000C5F30A570246C5F31303C1F31300C1F3A3
:1003B0000A5640F4801543F48013A7EB0608101B7F
:1003C000D64608F2FD3873EB050002D308F10108A8
:1003D00001E092185B41B8F1000F03DA00200146FA
:1003E000BDE8F08D00204FF48011064684460EE0F3
:1003F000171B73EB050705D3121B63EB05030643BD
:100400004CEA010C49084FEA300092185B4150EA6F
:100410000107EDD152EA030012D082EA040083EA18
:100420000501084305D0101BAB4106D20122002371
:1004300006E000224FF0004302E06FF0010253108B
:100440001AEB06004CEB085110EB0A0041EB0B01D4
:10045000BDE8F04D00F05BB80EB540F233410291BB
:100460000021CDE900110A460B4600F05FF803B009
:1004700000BDC1F30A5210B5C1F3130140F2FF33BE
:1004800041F480119A4201DA002010BD40F233435A
:100490009A42A2F2334203DC524200F028F810BD27
:1004A000904010BD30B50B460146002020220124AB
:1004B00009E021FA02F59D4205D303FA02F5491B32
:1004C00004FA02F52844151EA2F10102F1DC30BD48
:1004D000202A04DB203A00FA02F100207047914004
:1004E000C2F1200320FA03F3194390407047202AF9
:1004F00004DB203A21FA02F00021704721FA02F3CE
:10050000D040C2F12002914008431946704710B50F
:10051000141E73F1000408DA401C41F10001921826
:100520005B411A4301D120F0010010BD2DE9F04DCF
:1005300092469B4611B1B1FA81F202E0B0FA80F224
:1005400020329046FFF7C4FF04460F4640EA0A00F7
:1005500041EA0B0153465A46084313D0114653EA69
:10056000010019D0C8F140025046FFF7C0FF054610
:100570000E46504659464246FFF7AAFF084305D0AB
:10058000012004E020463946BDE8F08D00200543F7
:1005900046EAE0762C4337430A986305E40AA0EB69
:1005A00008000022FD0A44EA47540A3002D5002020
:1005B0000146E9E7010510196941DDE9084500191F
:1005C0006941BDE8F04DA2E72DE9FE4F804681EA82
:1005D0000300C00F0C46009021F0004123F00045BD
:1005E000B8EB0200A94105D24046214690461C4680
:1005F0000B46024623F00040104347D0270DC7F3B7
:100600000A00C3F30A510290401A019040286BDAA5
:10061000C3F3130040F4801B0098924620B10023DE
:10062000D2EB030A63EB0B0B01985946C0F1400271
:100630005046FFF74DFF06460D4650465946019A73
:1006400000F01EF910EB08006141002487EA115206
:1006500084EAE7731A4340D0009A62B3019A012AF0
:100660004FEA075215DC001B61EB02014FF000421C
:1006700002EA0752CDE90042001C41F580113246E2
:100680002B46FFF753FF03B0BDE8F08F40462146ED
:10069000F9E7001B61EB0201001C41F58013001813
:1006A0005B412018A2F5001747EB030140EAD57023
:1006B000B6196D4111E06D084FEA360645EAC0757E
:1006C0004FEA0752001B61EB0201001C41F580114B
:1006D00049084FEA30000019514132462B4603B019
:1006E000BDE8F04FFFF713BF009801224000002340
:1006F000D0EB020263EBE073009821464FEAE0740E
:10070000B8EB000061EB0401E9E783F000435BE72D
:1007100081F0004158E72DE9FE4F81EA030404F01F
:10072000004421F0004100944FF0000B23F00043FF
:1007300050EA01045ED052EA03045BD0C3F30A54CA
:10074000C1F30A552C44A4F2F3340194A0FB0254E3
:10075000C1F3130141F48011C3F3130343F4801375
:1007600001FB024400FB034E840A970A44EA8154C9
:1007700047EA8357A4FB076802958D0A05FB0785A6
:100780004FEA932C04FB0C542705029D4FEA0658B0
:1007900047EA1637B5EB08056EEB070C870E920E8D
:1007A00047EA811742EA8312A7FB0201B6EB0B016D
:1007B00064EB00042B0D43EA0C335E1844EB1C5031
:1007C000DA465146E7FB0201C5F313044FEA0B3347
:1007D00043EA14534FEA0432019C43EA0603A4F1AE
:1007E0000C040294009CCDE900B4FFF79FFE03B017
:1007F000BDE8F08F00200146F9E7C1F30A52C1F3CA
:10080000130140F2FF3341F480119A4202DA0020D2
:100810000146704740F233439A42A2F2334202DC6F
:100820005242FFF764BEFFF753BE000030B5041E0E
:1008300071F1000404DB4FF00044404264EB01011D
:10084000141E73F1000405DB1C464FF000435242B6
:1008500063EB0403994208BF904230BD064C074D3C
:1008600006E0E06840F0010394E807009847103480
:10087000AC42F6D3FFF7B4FC54740008747400085B
:10088000202A06DBCB17203A41FA02F043EAE07354
:1008900006E041FA02F3D040C2F120029140084341
:1008A00019467047DFF8A490294E2A4DDFF8A8803A
:1008B000642700BF99F81400012804D098F80010AC
:1008C00001293CD03EE098F80000B8BB44F6E43083
:1008D000308003F0A5FC012429683088C1F8940019
:1008E000C4F16401414391FBF7F12A68C2F89C10FE
:1008F000604390FBF7F12868C0F8A810142005F0B9
:10090000F3FD641C2E2CE7DBC82005F0EDFD134839
:1009100003F070FC30802968C1F89400362141430F
:10092000B1FBF7F12A68C2F89C102E214843B0FBB6
:10093000F7F02968C1F8A800012101E002E00021D8
:1009400088F80010642005F0CFFDB3E7DC0000203C
:100950000200002074020020B4000020786301002F
:10096000FEE70000064910B500200875054944F669
:10097000E430088003F082FCBDE8104003F02CBC9A
:10098000DC0000200200002010B505F0D5FC034972
:1009900000200870BDE8104005F0EEBCB500002056
:1009A000704700000FB410B5C0B043AB4FF4807176
:1009B0006846429A04F074FA094C4FF0FF312068FF
:1009C00006F0E8F9694607A004F05AFA00231A462F
:1009D0001946206806F032F840B010BC5DF814FBF0
:1009E0001C0000202573000072B6FEE72DE9F04FD1
:1009F000044690F858009BB00F464FF0000B0128BA
:100A000012D0012084F85800002617961896206806
:100A10004FF0A048DFF81C91DFF81CA1474D40457E
:100A200006D12846009508E002201BB0BDE8F08FF3
:100A300048450AD15046CDF800A002F0FAFF0090D8
:100A4000206802F0F6FF40B109E0E06D40F02000C0
:100A5000E06584F858600120E7E7009850B1E06D48
:100A600040F02000E0654FF0010B00BF84F85860B3
:100A70005846DAE720684146884201D0A84201D1B1
:100A80002F4800E02F48D7F800C02F4B40F61F72C8
:100A9000BCF1000F2DD0D0F808C094F838802CF4A9
:100AA000604C4CEA483CD7F804804CEA080CC0F88B
:100AB00008C0D4F800C08C4501D0AC4504D1896889
:100AC000AB6801F0010109E0D9F80810DAF8085024
:100AD00001F0010105F001059B68294303F00103C2
:100AE0001943C3D1BB6839681943836893431943D9
:100AF0001DE0876827F46047876027688F4201D030
:100B0000AF4204D18968AB6801F0010109E0D9F86E
:100B10000810DAF8085001F0010105F001059B68A2
:100B2000294303F001031943A0D1816891438160F7
:100B30009CE7000000040050000500500001005038
:100B40000003005000070050000600502DE9F84F48
:100B500000270446009790F85800DFF81C840D46E3
:100B6000B946012811D0012684F85860206802F0A7
:100B70005CFF60B1E06D40F02000E0655FF00107D0
:100B800084F858903846BDE8F88F0220FBE7D5E995
:100B900000210C23206803EA91131844036B01F031
:100BA0001F014FF01F0C0CFA01FCC2F3846223EA10
:100BB0000C038A4013430363206802F036FF824629
:100BC000206802F02EFF5AEA00003CD1AA6829688A
:100BD0002068B2F1004F37D002F02FFF2068416942
:100BE00021F00041416120686969C268C2F3C10215
:100BF000520091402A69042A31D000EB82002B6810
:100C0000026EDFF878C303F0F84302EA0C020B43EC
:100C10001A4342F00041016622682869A96902EB83
:100C20008000026E22F080720A430266297F2268E9
:100C30002869012910D0002102EB8000026E22F009
:100C400000720A4302667DE0002202F0F6FE206890
:100C5000416941F00041C5E74FF00071ECE7002128
:100C600002F0D9FE400320684FF0000172D002F07C
:100C7000D2FE90FAA0F0B0FA80F1286842036ED05C
:100C800090FAA0F0B0FA80F0814204D1002211461F
:100C9000206802F0E1FE0121206802F0BCFE400362
:100CA00020684FF001015DD002F0B5FE90FAA0F08F
:100CB000B0FA80F12868420359D090FAA0F0B0FA57
:100CC00080F0814204D100220121206802F0C4FE9C
:100CD0000221206802F09FFE400320684FF00201CD
:100CE00048D002F098FE90FAA0F0B0FA80F128689F
:100CF000420344D090FAA0F0B0FA80F0814204D1CF
:100D000000220221206802F0A7FE0321206802F0E1
:100D100082FE400320684FF0030133D002F07BFED7
:100D200090FAA0F0B0FA80F1286842032FD090FA30
:100D3000A0F0B0FA80F0814204D1002203212068A3
:100D400002F08AFE2068816811F0010F22D0ACE029
:100D500000E004E002F05FFEC0F384618DE7C0F3C1
:100D6000846091E702F057FEC0F38461A2E7C0F30C
:100D70008460A6E702F04FFEC0F38461B7E7C0F3DA
:100D80008460BBE702F047FEC0F38461CCE7C0F3A8
:100D90008460D0E72A7B296850F8B03FC1F3120C79
:100DA00023EA0C0302F0180C754A22FA0CF20A40EE
:100DB00013430360E968414577D1286841031CD09B
:100DC00090FAA0F1B1FA81F1491C01F01F01092943
:100DD0004FEA403132D8002912D000BF90FAA0F17A
:100DE000B1FA81F101F1010101F01F0106FA01F6EA
:100DF00009D100BFC0F3846109E0C0F38461E3E777
:100E0000C0F38461EEE790FAA0F1B1FA81F101F14B
:100E1000010101F01F0146EA816102D1C0F3846043
:100E200003E090FAA0F0B0FA80F000F1010000F0C9
:100E30001F0000EB400041EA005132E000290ED0D3
:100E400090FAA0F1B1FA81F101F1010101F01F0165
:100E500006FA01F606D100BFC0F3846106E0C0F3D4
:100E60008461F1E790FAA0F1B1FA81F101F1010199
:100E700001F01F0146EA816102D1C0F3846003E002
:100E800090FAA0F0B0FA80F000F1010000F01F002D
:100E90003C4A00EB400002EB005041EA000141F007
:100EA0000071AA68206802F0C8FD37482B68034229
:100EB0003FF466AE21684FF0A04C3448344E354DB7
:100EC000614501D0A94201D1024600E03246926854
:100ED000DFF8C48002F0E072434503D0DFF8BC8045
:100EE000434521D15FEA02281ED4614506D02C4B30
:100EF00099427FF445AEA94200D0304642F4000149
:100F0000826822F0E0720A4382602648264900681F
:100F1000B0FBF1F0401C00EB4000800000E0401E00
:100F200000900028FBD12BE6DFF8808043450FD1ED
:100F30005FEAC2180CD4A94202D11D4B9942F2D0EB
:100F4000614502D0A94200D0304642F080710CE0E9
:100F5000DFF860804345E6D15302E4D4A942E2D0F1
:100F6000614500D0304642F48001826822F0E07290
:100F70000A43826004E6000000007F4000F0FF03A7
:100F8000FFFF0700000020FE000008800003005063
:100F90000007005000010050000021C31000C09065
:100FA0000006005030000020400D0300000052C732
:100FB00000050050000084CBF8B54FF00005040098
:100FC0002E46009502D0E06D10B107E00120F8BD7B
:100FD000204600F009F9266684F858602068816888
:100FE000C1F3407119B18168734A11408160206872
:100FF0008168C1F3007189B98168704A114041F07C
:10100000805181606E486F490068B0FBF1F040008C
:10101000801C00E0401E00900028FBD12068816801
:10102000C1F3007141B9E16D41F01001E165216E3C
:1010300041F001012166012502F0F7FCE16DC906CE
:1010400000D430B1E06D40F01000E0650125284685
:10105000F8BDE06D20F4807040F00200E06520688B
:10106000816811F0010F27D14FF0A043564A9842F2
:1010700001D0904204D19968966801F001010AE01C
:1010800052498968524E01F00101B66806F0010626
:101090003143504EB66806F0010631430CD19842F8
:1010A00001D0904201D14C4800E04C486168826810
:1010B00022F47C120A438260E168E06B627F08439D
:1010C000A16841EA4231084394F8241040EA014003
:1010D000012904D1218D424A02EB41410843E16AD2
:1010E00029B101F47871226B014342EA01002268C0
:1010F000D1683C4B19400143D16020680169626BA3
:1011000021F0406111430161206802F08AFC70BB4C
:10111000207F94F838102268800340EA4100D168AB
:1011200044F2020399430143D160206900282068FA
:1011300001690AD041F480310161206850F8C01F74
:1011400022696FF30D01114307E021F48031016141
:10115000206850F8C01F6FF30D01016094F8400043
:1011600001280CD02068016921F00101016160694A
:1011700001282068016B21F00F0111D013E0D4E9A0
:1011800011010843D4E913121143084321680A6985
:1011900040F2FC739A43104340F001000861E6E717
:1011A000226A521E11430163E06D20F0020040F0FC
:1011B0000100E0654BE70000C0FFFF5FC0FFFF7F5D
:1011C00030000020400D03000001005000040050DA
:1011D00000050050000600500003005000070050BA
:1011E0000000FEFF0740F0FF2DE9F0439BB00446EE
:1011F000142115A8FFF7B6F854216846FFF7B2F896
:101200004FF00051206800253D4F0326DFF8F49091
:101210008A133D4CB0F1A04F11D03C4B98426CD199
:10122000904668460092119100F0CCFD08B1FFF79E
:10123000DBFB3868401C3860012846D04DE068462A
:101240000092119100F0BEFD08B1FFF7CDFB3868A8
:10125000401C3860012807D1E06C40F40050E06485
:10126000E06C00F400501A90E06C40F00400E06480
:10127000E06C00F004001A90E06C40F00200E064C2
:10128000E06C00F002001A90E06C40F00100E064B5
:10129000E06C179500F001001A900220CDE91506C8
:1012A00015A91B4800F048F84FF480401795CDE988
:1012B000150615A9484600F03FF806201795CDE918
:1012C000150615A94FF0904015E0E06C40F4005071
:1012D000E064E06C00F400501A90E06C40F0020012
:1012E000E064E06CCDF8548000F00200CDE91665B2
:1012F0001A9015A9484600F01FF81BB0BDE8F0830E
:1013000020000020000400480010024000010050AE
:101310000008004870B5044600F03CF90546601C22
:1013200002D004484068044400F034F9401BA04255
:10133000FAD370BD240000202DE9F04FDFF8209291
:10134000002301260324A9F1040B85B00F2709F11E
:10135000040AABF1040EFAE006FA03F52A407CD049
:1013600091F804C00CF0030CBCF1010F02D0BCF1E9
:10137000020F26D1D0F808C0CDF800C04FEA430CC8
:1013800004FA0CF8CDF810C0DDF800C02CEA080C07
:10139000CDF800C0D1F80C80DDF810C008FA0CF8C8
:1013A000DDF800C048EA0C08C0F80880D0F804C096
:1013B0002CEA050C0D79C5F300159D4045EA0C0596
:1013C00045600D79ED43AD070ED0C5684FEA43087F
:1013D00004FA08FC25EA0C05D1F808C00CFA08FC50
:1013E0004CEA050CC0F80CC00D7905F00305022D80
:1013F00016D1DD0800EB850CCDF808C0DCF82080A4
:101400005D074FEAD56C07FA0CF528EA05080D6967
:1014100005FA0CF5DDF808C045EA0805CCF82050BF
:1014200005684FEA430CCDF808C004FA0CFC25EA25
:101430000C0591F804C00CF00308DDF808C008FAA8
:101440000CF848EA0508C0F800804D6815F4403FE4
:101450007CD0444DD5F860C000E077E04CF0010C42
:10146000C5F860C02D6E23F0030C05F00105009552
:101470003D4D65440295AD684FEA837C4FEA1C7888
:1014800007FA08FC25EA0C05B0F1904F06D0DFF80A
:10149000DCC0604505D14FF0010C20E04FF0000C9E
:1014A0001DE0DFF8CCC0604502D14FF0020C16E021
:1014B000DFF8C0C0604502D14FF0030C0FE0DFF849
:1014C000B8C0604502D14FF0040C08E0DFF8ACC0B2
:1014D000604502D14FF0050C01E04FF0060C0CFA0C
:1014E00008FC4CEA050C029DC5F808C0D9F800506C
:1014F000CC46D1F8048095435FEAC82800D515434F
:10150000CCF80050DAF80050D446D1F80480954366
:101510005FEA882800D51543CCF80050DBF800506E
:10152000DC46D1F8048095435FEA883800D515433E
:10153000CCF80050DEF80050F446D1F80480954312
:101540005FEAC83800D51543CCF800505B1C0A6828
:1015500032FA03F57FF400AF05B0BDE8F08F00006C
:10156000080401400010024000000140000400484F
:1015700000080048000C0048001000480014004813
:101580000069084000D0012070470AB181617047AE
:101590008162704701488068704700002400002085
:1015A00030B590F8DD20022A37D090F8DC20012AEF
:1015B00033D0012480F8DC40022280F8DD2003686B
:1015C000D3F8A02322F002050A7802F002022A438F
:1015D00022F03C050A7902F03C022A4322F470759D
:1015E0008A682A4322F480658A8902F480622A4349
:1015F0000D69C3F8A45305684B69C5F8A83303689F
:101600008969C3F8AC130168C1F8A02380F8DD40F4
:10161000002180F8DC10084630BD022030BD10B536
:1016200090F8DD20022A16D090F8DC20012A12D092
:10163000012200F8DC2F0223437050F8DC3CD3F881
:10164000A04324F001040C43C3F8A04342700021DE
:101650000170084610BD022010BD10B590F8DC20C6
:10166000012A21D0012280F8DC20022380F8DD301D
:101670004B1C1BD00368D3F8CC4344F00204C3F8DE
:10168000CC430368D3F8CC4324F00C040C43C3F8D8
:10169000CC430168D1F8CC3343F00103C1F8CC331B
:1016A00080F8DD20002010BD022010BD0168D1F8B7
:1016B000CC3323F00203C1F8CC33EAE738B5040099
:1016C00056D0022084F8DD000025C4F8E050C4F8AC
:1016D000E450C4F8E850C4F8EC50C4F8F050C4F832
:1016E000F450C4F8F850207AC0071BD02149206874
:1016F000884208D12048016E41F080610166006E89
:1017000000F0806000902168086820F44042208A40
:1017100000F44040104320F44052A08A00F44050AE
:1017200010430860204600F029F8207A800708D589
:101730002168086820F44072A08900F440701043CA
:101740000860012084F8DD0084F8DC505FF00001BF
:10175000C1EBC10004EB8000491C8561C5610562D5
:1017600045628562C9B205630629F1D9002038BDFA
:10177000012038BD006801400010024008B5006833
:101780000649884208D10648016E41F08061016631
:10179000006E00F08060009008BD0000006801400D
:1017A0000010024070B50D460446FFF7F3FE0646F2
:1017B00007E0681C05D0FFF7EDFE801BA8420DD89E
:1017C00065B12068D0F88803C043C003F1D401207C
:1017D00084F8DD00002084F8DC0070BD072084F868
:1017E000DD00032070BD70B590F8DD30022B1DD0F8
:1017F00090F8DC30012B19D0012380F8DC30022472
:1018000080F8DD40EC25046805EBC1156159CE0672
:1018100005D54FF6C076B14332400A43625180F895
:10182000DD30002180F8DC10084670BD022070BD5C
:1018300070B590F8DD30022B23D0022380F8DD3024
:10184000062920D08023046803EBC115635923F0D7
:1018500007069368334323F01806D3683343635174
:101860009425046805EBC115136863519824036837
:1018700004EBC11152685A50012180F8DD1000209C
:1018800070BD022070BD0368196821F007049168DB
:10189000214321F01804D1682143196003681168BD
:1018A0005961516802689161E6E72DE9F04F90F8BF
:1018B000DD40022C25D090F8DC40012C21D04FF0E7
:1018C000010980F8DC90022480F8DD4000274FF009
:1018D000070C062918D09C2404EBC116012A39D024
:1018E0008024A8254FF4005A4FF4405B05EBC11546
:1018F00004EBC114022A2FD0042A45D0082A0BD1A8
:1019000044E00220BDE8F08F012A0AD0022A0CD060
:10191000042A0ED0082A10D080F8DDC080F8DC70D0
:101920000EE002681968D1610AE002681968516224
:1019300006E002681968916202E002681968D162E3
:1019400090F8DD10072948D080F8DD9080F8DC7031
:101950000020D7E7196835E04FF0A408D0F800C0A0
:1019600008EBC1111A684CF8012059680029016878
:101970000A5922F440522ED00A5101680A59D3F86C
:1019800004C042EA0C0218E0196821E04FF0AC08EC
:10199000D0F800C008EBC1111A684CF80120596852
:1019A000002901680A5922F4404214D00A51016802
:1019B0000A59D3F804C042EA8C020A5159685145C9
:1019C00003D1996802689151BAE75945B8D199682D
:1019D00002685151B4E70A51B2E7012092E710B50D
:1019E00090F8DC20012A0ED0012200F8DC2F02231F
:1019F000437050F8DC3C1C680C431C6042700021B2
:101A00000170084610BD022010BD70B5044690F864
:101A1000DD00022811D094F8DC0001280ED0012549
:101A200084F8DC50022084F8DD00204601F0B5FE89
:101A300084F8DD50002084F8DC0070BD022070BD09
:101A400010B590F8DC20012A10D0012200F8DC2F1C
:101A50000223437050F8DC3CD3F894430C43C3F8A2
:101A60009443427000210170084610BD022010BD51
:101A70002DE9F041044690F8DD0015460E46022897
:101A800026D094F8DC00012821D0012784F8DC70EE
:101A9000022084F8DD00062E1CD0204601F0ECFE6A
:101AA000C6EBC60004EB80002968016269684162E8
:101AB000A9688162E968C1622969016331462046EB
:101AC00001F0EDFD062E15D0E86A40B112E00220CB
:101AD000BDE8F0811146204601F016FEE0E78021C6
:101AE000206801EBC6114258EB6D22F4007242EA05
:101AF0004322425084F8DD70002084F8DC00E7E7E0
:101B00002DE9F041044690F8DD00022824D094F835
:101B1000DC0001281FD0012584F8DC50022084F865
:101B2000DD00EC20266800EBC113F058176820F0A8
:101B3000100040EA071020F480175068384320F462
:101B40008037D068384320F400379068384397696D
:101B5000012F03D00CE00220BDE8F08120F0040743
:101B60001069384320F002075069384340F0010003
:101B7000F050204601F093FD84F8DD50002084F8F9
:101B8000DC00E9E7024881684268114481607047DF
:101B90002400002010B50024032000F09BF80F2043
:101BA00000F008F808B1012401E000F047F82046F1
:101BB00010BD000030B505461B4887B0016E41F4EA
:101BC00000610166006E06A900F40060009001A8A3
:101BD00000F066FB00F096FB1449154AB0FBF1F1EA
:101BE0001448491E0260416040F2E7320021C0E91A
:101BF0000321816000F08BFE040012D10D4800F03B
:101C0000FDFE04000DD1192000F036F8102D07D28A
:101C100000222946192000F03DF80748056000E041
:101C2000012407B0204630BD0010024040420F00A2
:101C3000002C014030050020240000200D4808B58C
:101C4000016E41F001010166016E01F00101009198
:101C5000816D41F080518165806D002200F08050DF
:101C600000900F21901E00F015F8BDE8084000F02C
:101C7000A1B8000000100240002809DB00F01F029C
:101C8000012191404009800000F1E020C0F80011DE
:101C900070470000F0B40E4B1B680C46C3F30223E0
:101CA000C3F10705042D00D90425191D072901D208
:101CB000002300E0DB1E012606FA05F1491E214043
:101CC00099409E40761E16403143F0BC03F0FEB8AA
:101CD0000CED00E0064900F0070208684FF6FF032C
:101CE000184040EA0220034A104308607047000091
:101CF0000CED00E00000FA052B492C4B0A6832215C
:101D00004A432B4940B1B0F5007F086829D020F440
:101D1000C06040F480602CE00868C0F341200228D5
:101D200004D051F8800F20F4807022E0D1F88000B8
:101D300020F48070C1F88000086820F4C06040F48E
:101D400000700860B2FBF3F0401C00E0401E4A69DE
:101D5000520501D50028F9D1486940050AD503206C
:101D60007047C0F34120022806D051F8800F40F49C
:101D70008070086000207047D1F8800040F48070C7
:101D8000C1F88000086820F4C06040F4007008606A
:101D9000B2FBF3F0401C00E0401E4A695205DBD55F
:101DA0000028F9D1D8E700003000002040420F00A1
:101DB000007000400248816841F4804181607047B2
:101DC000007000402DE9F843044600680026BB4D32
:101DD00000035ED5A86D0027C00008D4A86D40F0B0
:101DE0008050A865A86D012700F080500090DFF8B2
:101DF000D092D9F8001041F48071C9F80010FFF7B3
:101E0000C9FB804606E000BFFFF7C4FBA0EB08005B
:101E100002282BD8D9F80000C005F5D5D5F89000D8
:101E200010F4407014D0216D814211D0D5F890008B
:101E3000D5F8901020F4407041F48031C5F890102E
:101E4000D5F8901021F48031C5F89010C5F89000B5
:101E5000C00711D0FFF79EFB804641F2883907E0AA
:101E6000FFF798FBA0EB0801494501D903260BE0D9
:101E7000D5F890008007F3D5D5F89000216D20F4B7
:101E800040700843C5F890001FB1A86D20F0805045
:101E9000A8652078C00707D0D5F88800616820F0D1
:101EA00003000843C5F888002078800707D5D5F8D7
:101EB0008800A16820F00C000843C5F8880020784D
:101EC000400707D5D5F88800E16820F030000843C6
:101ED000C5F888002078000707D5D5F88800216963
:101EE00020F0C0000843C5F888002078C00607D558
:101EF000D5F88800616920F440700843C5F888006F
:101F00002078800607D5D5F88800A16920F44060C4
:101F10000843C5F888002078400607D5D5F8880022
:101F2000E16920F440500843C5F888002078000695
:101F300007D5D5F88800216A20F440400843C5F849
:101F400088002088C00507D5D5F88800616A20F48C
:101F500040300843C5F888002068800307D5D5F8CD
:101F60009C00A16A20F003000843C5F89C0020886B
:101F7000800507D5D5F88800E16A20F440200843A1
:101F8000C5F88800208840050FD5D5F88800216B5A
:101F900020F440100843C5F88800206BB0F5801F7E
:101FA00003D1E86840F48010E860208800050FD570
:101FB000D5F88800616B20F440000843C5F888001C
:101FC000606BB0F5800F03D1E86840F48010E860E2
:101FD0002088C0040FD5D5F88800A16B20F0407090
:101FE0000843C5F88800A06BB0F1807F03D1E86892
:101FF00040F48010E86020884FF0006180040ED526
:10200000D5F88800E26B20F040601043C5F88800E6
:10201000E06B884203D1E86840F48010E8602088D3
:1020200040040ED5D5F88800226C20F040601043A3
:10203000C5F88800206C884203D1E86840F480101D
:10204000E860208800040FD5D5F88800616C20F086
:1020500040500843C5F88800606CB0F1805F03D140
:10206000E86840F48030E8602068C0030FD5D5F8F8
:102070008800A16C20F040400843C5F88800A06C9F
:10208000B0F1804F03D1E86840F48030E860206808
:1020900040030FD5D5F89C00E16C20F440100843B4
:1020A000C5F89C00E06CB0F5001F03D1E86840F46F
:1020B0008010E8603046BDE8F88300000010024060
:1020C000007000402DE9F0470E4605004FF0000774
:1020D00025D0DFF8AC81D8F8000000F00F00B04246
:1020E0000CD2D8F8001021F00F013143C8F80010CD
:1020F000D8F8000000F00F00B04210D12968614C00
:10210000C80741F2883A5AD06868DFF87C91032802
:1021100008D0022820682DD0400500282CDB0120A3
:10212000BDE8F08720688001F9D5E06800F003027F
:10213000E068C0F30310401C032A19D0534A00BFC3
:10214000B2FBF0F0E268C2F306225043E268C2F349
:102150004162521C5200B0FBF2F0484517D9A0680A
:1021600010F0F00F0CD0880711D5A86840B10EE030
:10217000474AE5E78003D0E700F0D6F8484506D99E
:10218000A06820F0F00040F08000A0608027A068E8
:10219000696820F003000843A060FFF7FBF981465F
:1021A00006E000BFFFF7F6F9A0EB090151453AD868
:1021B000A068696800F00C00B0EB810FF2D12868CC
:1021C000810714D5400703D5A06840F4E060A06003
:1021D0002878000705D5A06820F4605040F4E0603E
:1021E000A060A068A96820F0F000084304E0802FF8
:1021F00003D1A06820F0F000A060D8F8001040469D
:1022000001F00F01B14216D9016821F00F013143ED
:102210000160FFF7BFF9074607E000BFFFF7BAF913
:10222000C11B514501D903207AE7D8F8000000F01E
:102230000F00B042F2D12878400705D5A068E968C0
:1022400020F4E0600843A0602878000706D5A06865
:10225000296920F4605040EAC100A06000F064F8F1
:10226000A1680C4AC1F30311515C01F01F01C84081
:102270000949086009480068BDE8F047FFF79ABCC3
:10228000002002400010024000B4C4040024F40006
:10229000001BB7003C740008300000202400002020
:1022A0000F2202600C4A936803F0030343609368B3
:1022B00003F0F0038360936803F4E063C360926803
:1022C0004FF4E06303EAD20202610448006800F0C0
:1022D0000F0008607047000000100240002002401C
:1022E0000548064900688968054AC1F30221515C26
:1022F00001F01F01C840704730000020001002406C
:102300004C7400080548064900688968054AC1F30D
:10231000C221515C01F01F01C8407047300000200D
:10232000001002404C740008184910B58868C0F3CA
:1023300081021748012A0BD08A68164BC2F381022A
:10234000022A06D08A68C2F38102032A03D0002041
:1023500010BD184610BDCA6802F00304CA68C2F373
:102360000312521C032C02D0B0FBF2F001E0B3FBCD
:10237000F2F0CA68C968C2F306225043C1F3416152
:10238000491C4900B0FBF1F010BD000000100240F4
:102390000024F400001BB7002DE9F84304007AD0B4
:1023A0002078F84DC00747D0A868E96800F00C0015
:1023B00001F003010C2802D0082817D001E00329FE
:1023C00014D06068B0F5803F17D0B0F5A02F286812
:1023D00017D020F480302860286820F480202860FE
:1023E0006068E0B1FFF7D6F8064614E0286880037D
:1023F00022D560680028D2D01EE0286840F48030E2
:10240000EDE740F480202860F7E700BFFFF7C2F84F
:10241000801B642870D828688003F7D50CE0FFF78C
:10242000B9F8064605E000BFFFF7B4F8801B642842
:10243000F0D828688003F7D4207880074CD5A868A6
:10244000E96800F00C0001F003010C2802D0042818
:102450000DD001E002290AD0E068002828682BD0BE
:1024600040F480702860FFF795F8064619E0286868
:10247000400502D5E068002891D06868217C20F0F2
:10248000FE4040EA01606860BF480068FFF792FBC9
:10249000002800D120E072E1FFF77CF8801B0228C1
:1024A000B8D828684005F7D56868217C20F0FE4040
:1024B00040EA016068600FE020F480702860FFF758
:1024C00069F8064605E000BFFFF764F8801B0228A4
:1024D000A0D828684005F7D42078000729D560697E
:1024E0000028D5F8940013D040F00100C5F89400FE
:1024F000FFF750F8064606E090E000BFFFF74AF805
:10250000801B022886D8D5F894008007F6D510E005
:1025100020F00100C5F89400FFF73CF8064604E0FF
:10252000FFF738F8801B022878D8D5F89400800788
:10253000F6D42078400761D5A86D0026C00008D4E5
:10254000A86D40F08050A865A86D012600F080506D
:1025500000908E480168C90511D40168804641F495
:1025600080710160FFF716F8074604E0FFF712F8E4
:10257000C01B022852D8D8F80000C005F6D5A068C4
:10258000012815D00528D5F8900016D020F00100BC
:10259000C5F89000D5F8900020F00400C5F8900030
:1025A000A06841F28838B8B1FEF7F4FF07460EE0A4
:1025B000D5F8900040F00100F0E740F00400C5F8C5
:1025C0009000F5E7FEF7E6FFC11B414526D8D5F898
:1025D00090008007F6D50CE0FEF7DCFF074604E02C
:1025E000FEF7D8FFC11B414518D8D5F890008007E9
:1025F000F6D41EB1A86D20F08050A8652078800622
:1026000029D5A0690028D5F8980013D040F0010022
:10261000C5F89800FEF7BEFF064606E075E000BF6D
:10262000FEF7B8FF801B02286FD8D5F89800800706
:10263000F6D510E020F00100C5F89800FEF7AAFFDB
:10264000064604E0FEF7A6FF801B02285DD8D5F8F9
:1026500098008007F6D4E069F0B3A968C1F381015E
:1026600003295DD00228286820F08070286003D0FC
:10267000FEF790FF04464BE0FEF78CFF064604E0B1
:10268000FEF788FF801B02283FD828688001F7D416
:10269000F4E908016FF00F0202EB01110843218AEF
:1026A0005204490802EB4151A26841EA0221084361
:1026B000217D4FF07E42490802EB41610843217BB6
:1026C00040EAC160E968324A11400843E86028687E
:1026D00040F08070286000E05EE0E86840F08070C4
:1026E000E860FEF757FF044605E000BFFEF752FF23
:1026F000001B022809D828688001F7D54CE000BFEC
:10270000FEF748FF001B022802D90320BDE8F8832A
:1027100028688001F4D4E8681E490840E8603BE07E
:102720000128F3D0E868226A00F00301914226D123
:10273000616A00F0F0020901103991421FD1A26ACA
:1027400000F4FE41B1EB022F19D194F82C2000F0D7
:102750007841B1EBC26F12D1218E00F4C00249085A
:102760004905A1F50011914209D194F8341000F007
:10277000C06049084906A1F1007181420CD00120D6
:10278000C4E7000000100240240000200070004058
:102790000C809F01FCFFEEFE0020B7E770477047FA
:1027A0007047000030B590F83C20012A45D0012246
:1027B00080F83C20CA688B6822F440721A434B6848
:1027C00022F480621A430B6822F400621A430B69F8
:1027D00022F480521A434B6922F400521A430B6BC5
:1027E00022F480421A430B8B22F4702242EA034205
:1027F000CB6922F080521A43114D03680024AB428A
:1028000005D0104DAB4202D00F4DAB4210D10D8D13
:1028100022F4700242EA05520D6A22F080722A43C5
:102820004D6A22F000722A43C96A22F000520A431C
:102830005A6480F83C40002030BD022030BD0000CA
:10284000002C0140003401400050014070477047A7
:1028500070470000F0B590F83C20012A43D00125D4
:1028600080F83C50022280F83D2003685A689C683A
:102870001E4E1F4FDFF87CC0B34203D0BB4201D0D5
:10288000634504D122F4700E4A6842EA0E02DFF872
:1028900068E002EA0E02D1F800E04EEA020EC3F848
:1028A00004E00268B24212D0B2F1804F0FD0134B55
:1028B0009A420CD0124B9A4209D0124B9A4206D03F
:1028C000BA4204D0104B9A4201D0624504D18968C3
:1028D00024F080031943916080F83D50002180F876
:1028E0003C100846F0BD0220F0BD0000002C014065
:1028F00000340140005001408FFFFFFD0004004004
:1029000000080040000C004000400140704710B536
:10291000040003D094F83D0010B107E0012010BD81
:10292000002084F83C00204600F022F8022084F8C1
:102930003D00211D206801F031FD012084F8480090
:1029400084F83E0084F83F0084F8400084F8410099
:1029500084F8420084F8430084F8440084F8450079
:1029600084F8460084F8470084F83D00002010BD3C
:1029700010B586B0044614216846FDF7F3FC2168C3
:102980001B48B1F1804F0CD01A4A914207D1016E19
:1029900041F400510166006E00F40050059006B04D
:1029A00010BD816D41F001018165816D01F0010172
:1029B0000591C16C41F00201C164C06C694600F030
:1029C0000200059008200090022001900020029053
:1029D0000390012004900848FEF7AEFC0022082175
:1029E0001C20FFF757F91C20FFF746F9D7E7000036
:1029F00000100240003401400004004890F83D10EF
:102A0000012901D001207047022180F83D100168A2
:102A1000CA6842F00102CA6000681349884214D0B3
:102A2000B0F1804F11D0114988420ED01049884230
:102A30000BD01049884208D00F49884205D00F4971
:102A4000884202D00E49884207D181680D4A114060
:102A5000062906D0B1F5803F03D0016841F001019D
:102A60000160002070470000002C0140000400407D
:102A700000080040000C00400034014000400140CC
:102A8000005001400700010070B5044690F83C007A
:102A9000002501281CD0012684F83C60022084F81F
:102AA0003D0022689068334B184020F47F409060CE
:102AB0000868B0F5005F2ED016DC402849D009DC4C
:102AC000D0B1102818D0202816D0302849D113E0D2
:102AD000022070BD50282AD0602830D070280FD036
:102AE000B0F5805F3DD13DE010F00F0F39D10111FD
:102AF000A1F58031072934D822680146104625E027
:102B0000CB68D1E90121206801F0C7FC2068816809
:102B100041F0770109E0CB68D1E90121206801F09B
:102B2000BCFC2068816841F4804181601AE0CA6879
:102B30004968206801F086FE5021206806E0CA68D6
:102B40004968206801F0D0FE6021206801F0B0FCE7
:102B500008E0CA684968206801F074FE40212068D6
:102B6000F4E7012584F83D60002084F83C00284605
:102B700070BD000088FFCEFF2DE9F0410068B0F184
:102B8000804F53D12A4C2068C068C04380074DD481
:102B9000DFF8A08008214046FEF7F2FC0026264D13
:102BA000012708B1E87828B108214046FEF7E8FC83
:102BB00060B10DE0EF702068016A21F0A0010162B0
:102BC0002068016A41F02001016229E0287940B1C2
:102BD00008214046FEF7D4FC20B3287901280FD005
:102BE00020E00421124800F0CDFB68612068016AF2
:102BF00021F0A00101622068016A01622F7111E0D9
:102C000004210B4800F0BEFB28612068016A21F016
:102C1000A00101622068016A41F0200101622E7169
:102C20002068466221686FF004000861BDE8F08109
:102C30007003002000040048B80000202DE9F04196
:102C4000054690F83C0000260C46012810D00120D3
:102C500085F83C0072B1042A1CD0082A2CD00C2A1A
:102C600050D00126002085F83C003046BDE8F081B8
:102C70000220FBE7D4E90012E368286801F0F4FDC4
:102C80002868816921F00C01816128688169A26846
:102C900011430FE0D4E90012E368286801F036FE22
:102CA0002868816921F44061816128688169A2688E
:102CB00041EA02218161D5E72868D4E9002C277B0D
:102CC000036A016A21F480710162C16923F42063FF
:102CD00021F0030141EA0C0121F0F00C39074FF417
:102CE00020674CEA116107EA02221A43C1610262BD
:102CF0002868C16921F00C01C1612868C169A26816
:102D000011432BE02868D4E90021E768036AD0F872
:102D100020C02CF4805CC0F820C0D0F81CC023F484
:102D200020432CF4407C4CEA012121F4704C4FF6F6
:102D3000FF7101EA07314FF4204741EA0C0107EA2D
:102D400002321A43C16102622868C16921F44061FC
:102D5000C1612868C169A26841EA0221C16181E7B5
:102D600010B5040003D094F83D0010B107E0012035
:102D700010BD002084F83C00204600F022F802201C
:102D800084F83D00211D206801F008FB012084F833
:102D9000480084F83E0084F83F0084F8400084F83E
:102DA000410084F8420084F8430084F8440084F829
:102DB000450084F8460084F8470084F83D00002070
:102DC00010BD704710B5044679B1042912D0082906
:102DD00015D00C2918D0102919D094F8430000BF41
:102DE00094F84720012817D114E094F83E0094F895
:102DF0004420F7E794F83F0094F84520F2E794F870
:102E0000400094F84620EDE794F84100E8E794F894
:102E10004200E5E7012A01D0012010BD0220B1B334
:102E200004293AD008293DD00C2940D0102941D09E
:102E300084F8430084F847000122206801F020FB59
:102E40001E492068884214D0B0F1804F11D01C492F
:102E500088420ED01B4988420BD01B49884208D0BB
:102E60001A49884205D01A49884202D01949884235
:102E700007D18168184A1140062906D0B1F5803F74
:102E800003D0016841F001010160002010BDFFE79F
:102E900084F83E0084F84400CEE784F83F0084F8CC
:102EA0004500C9E784F8400084F84600C4E784F888
:102EB0004100BFE784F84200BCE70000002C01405D
:102EC0000004004000080040000C004000340140B5
:102ED0000040014000500140070001002DE9F04191
:102EE00004460068C66805694FF00007A90713D5B6
:102EF000B10711D5F91E0161012020772068806992
:102F00008007204602D0FFF737FE04E000F0E0F82B
:102F1000204600F0A2F92777680716D5700714D568
:102F200021686FF004000861022020772068806922
:102F300010F4407F204602D0FFF71EFE04E000F0B0
:102F4000C7F8204600F089F92777280715D53007FC
:102F500013D521686FF008000861042020772068ED
:102F6000C0698007204602D0FFF706FE04E000F0AB
:102F7000AFF8204600F071F92777E80616D5F0067D
:102F800014D521686FF010000861082020772068B0
:102F9000C06910F4407F204602D0FFF7EDFD04E049
:102FA00000F096F8204600F058F92777E80708D097
:102FB000F00706D021686FF001000861204600F09C
:102FC000D7F9280601D4A80408D5300606D521680B
:102FD0006FF4025008612046FFF7E1FBE80508D5D1
:102FE000300606D521686FF4807008612046FFF72F
:102FF000D5FB680608D5700606D521686FF040003D
:103000000861204600F0D3F9A80608D5B00606D519
:1030100021686FF0200008612046FFF7C1FBE8023D
:1030200008D5F00206D521686FF4801008612046AB
:10303000FFF70DFCA80208D5B00206D521686FF491
:10304000001008612046FFF701FC680208D57002F5
:1030500006D521686FF4800008612046FFF7F8FB71
:1030600028020AD5300208D521686FF400000861F3
:103070002046BDE8F041FFF749BCBDE8F081000003
:1030800010B586B0044614216846FDF76BF90E4969
:103090002068884216D10D48C16C41F00101C1641D
:1030A000C06C002100F0010005904FF4004000903A
:1030B0000220CDE90101CDE9031069464FF09040AF
:1030C000FEF73AF906B010BD00340140001002408E
:1030D000704770B5044690F83C0000260D46012864
:1030E0000BD0012084F83C000C2A4AD007DC82B1C6
:1030F000042A20D0082A06D131E0022070BD102A0F
:1031000053D0142A63D00126002084F83C003046B6
:1031100070BD206801F0D6F92068816941F008018E
:1031200081612068816921F00401816120688169E1
:103130002A69114311E0206801F01AFA20688169B8
:1031400041F4006181612068816921F480618161BD
:10315000206881692A6941EA02218161D4E72068F7
:1031600001F056FA2068C16941F00801C161206888
:10317000C16921F00401C1612068C1692A69114354
:1031800011E0206801F094FA2068C16941F40061FF
:10319000C1612068C16921F48061C1612068C16991
:1031A0002A6941EA0221C161AEE7206801F0D0FA44
:1031B0002068016D41F0080101652068016D21F072
:1031C000040101652068016D2A69114311E020683E
:1031D00001F0FAFA2068016D41F400610165206890
:1031E000016D21F4806101652068016D2A6941EA61
:1031F0000221016588E710B5040003D094F83D0072
:1032000010B107E0012010BD002084F83C002046EA
:1032100000F022F8022084F83D00211D206801F012
:10322000BDF8012084F8480084F83E0084F83F008F
:1032300084F8400084F8410084F8420084F8430098
:1032400084F8440084F8450084F8460084F8470078
:1032500084F83D00002010BD7047704770B50446EB
:10326000022269B1042912D0082917D00C291CD0D8
:10327000102921D094F84300012824D0012070BDEA
:1032800094F83E000128F9D184F83E201DE094F81E
:103290003F000128F2D184F83F2016E094F8400066
:1032A0000128EBD184F840200FE094F84100012878
:1032B000E4D184F8412008E094F842000128DDD1EF
:1032C00084F8422001E084F843200122206801F0C4
:1032D000D7F81D4920681D4A1D4B1E4D88420BD052
:1032E000904209D0984207D01B4EB04204D01B4EEA
:1032F000B04201D0A84203D1466C46F40046466471
:103300002068884211D0B0F1804F0ED01449884215
:103310000BD01449884208D01349884205D0904206
:1033200003D0984201D0A84207D181680F4A1140CA
:10333000062906D0B1F5803F03D0016841F00101B4
:103340000160002070BD0000002C014000340140ED
:10335000004001400050014000440140004801404D
:103360000004004000080040000C0040070001007D
:1033700000680349884201D1FEF704BC7047000091
:10338000002C01400246002041B1042909D008293F
:103390000AD00C2901D11068006C70471068406B8E
:1033A00070471068806B70471068C06B704770473B
:1033B00090F88410012918D0012180F8841024216C
:1033C000C0F8881001680A680B6823F001030B60DD
:1033D00022F0005100224266036819602021C0F8E3
:1033E000881080F88420104670470220704770B51E
:1033F000044690F8840001281DD0012084F8840040
:103400002420C4F8880020680568026822F00102C0
:1034100002602068826822F060620A43826020466F
:1034200001F090FA206805602020C4F88800002090
:1034300084F8840070BD022070BD70B5044690F819
:10344000840001281DD0012084F884002420C4F8C1
:10345000880020680568026822F001020260206886
:10346000826822F060420A438260204601F06AFAD4
:10347000206805602020C4F88800002084F88400BB
:1034800070BD022070BD10B5040003D0D4F88800D0
:1034900010B107E0012010BD002084F88400204610
:1034A00000F026F82420C4F888002068016821F084
:1034B00001010160A06A10B1204601F065FA2046C2
:1034C00001F046FB0128E6D02068416821F49041D4
:1034D00041602068816821F02A01816020680168CC
:1034E00041F0010101602046BDE8104001F0B0BA92
:1034F0002DE9F0419CB00446142115A8FCF732FFD9
:1035000054216846FCF72EFF34492068344C0226CB
:10351000DFF8D08004270025884234D1102005959B
:1035200000906846FEF74EFC08B1FDF75DFAA06D0D
:1035300040F48010A065A06D00F480101A90E06C3B
:1035400040F00400E064E06C00F004001A90E06CCD
:1035500040F00800E064E06C052400F008001A90D8
:103560004FF48050CDE91665CDE91854159015A992
:103570004046FDF7E1FECDE91665CDE918541597F3
:1035800015A9194824E01949884223D168460097B3
:103590000395FEF717FC08B1FDF726FAA06D40F47D
:1035A0008020A065A06D00F480201A90E06C40F0AF
:1035B0000400E064E06CCDE9166500F004001A90A8
:1035C0004FF4406015900720CDE9185015A94046EA
:1035D000FDF7B2FE1CB0BDE8F081000000500040D5
:1035E0000010024000080048000C0048004800405D
:1035F0002DE9F8430446D0F88800984616460D4653
:10360000202802D00220BDE8F883A5B19EB1002099
:10361000C4F890002120C4F888001834FDF7BAFFE0
:10362000A6878146E68754F8100C2027183CB0F591
:10363000805F02D003E00120E5E7206910B12E464B
:10364000002510E000260EE08021204601F0CCFB92
:10365000C0B9DEB116F8010B21688862B4F85600D3
:10366000401EA4F85600B4F856004B464FF0000236
:10367000CDF800800028E7D14FF04001204601F04E
:10368000B3FB40B1C4F888700320BCE735F8020BE7
:10369000C0F30800E0E7C4F888700020B3E707290A
:1036A00030D2DFE801F00A10161C2228040000685E
:1036B000D0F8841341F0010122E00068D0F88413AF
:1036C00041F002011CE00068D0F8841341F00401CD
:1036D00016E00068D0F8841341F0080110E000689B
:1036E000D0F8841341F010010AE00068D0F8841388
:1036F00041F0200104E00068D0F8841341F040015B
:10370000C0F884137047000070B503681A68D3F8D6
:10371000A0534C6922F020022646144324F0C00234
:10372000202E2BD08C69022C28D0032C2BD0042CDB
:103730002ED022F0E00200BF22F40064CA692243C6
:1037400022F480640A6A224322F0C0644A6A224357
:1037500022F000648A6A2243CC6A22F0404242EAA4
:10376000840222F000544A6B096B224325F4803412
:1037700021431A600068C0F8A01370BD22F0C00297
:1037800042F02002D8E722F0800242F04002D3E764
:1037900022F0400242F08002CEE7F0B50024E42699
:1037A000056806EBC11755F807C0B82606EBC11629
:1037B000AE59402A20D00EDC082A2CD006DC012A83
:1037C0001AD0022A27D0042A31D115E0102A13D0AA
:1037D000202A2CD11FE0B2F5007F1CD005DC802A06
:1037E00019D0B2F5807F22D106E0B2F5806F03D008
:1037F000B2F5006F1BD10EE04FF0BC0E0EEBC11EF8
:103800005A6845F80E204FF0C00E05680EEBC11146
:103810009A686A500BE0C42404EBC1145A682A5118
:10382000C825046805EBC1119A6862501024FE2176
:10383000A1401A682CEA010CA240D96842EA0C02A5
:10384000A14011431A69D3F814C01546A2400A4397
:103850000CFA04FC99694CEA020CA14041EA0C0103
:10386000082D06D1B20504D4B20102D4DA69A2400F
:1038700011430068C151F0BD2DE9F04F8024036869
:1038800004EBC117DC5924F07044DC510568EC5995
:10389000E82303EBC1139E4655F803C0E42303EB72
:1038A000C1139B4655F803A0D5F8A033566924F000
:1038B00020043443202E24D09669022E21D0032EDA
:1038C00024D0042E27D024F4D07400BF24F4006642
:1038D000D469344324F48066146A344324F0C06607
:1038E000546A344324F00066946A344324F07046EA
:1038F000D46A3443566B24F40034B6F1005F0FD021
:1039000010E024F4C07444F02004DFE724F4807451
:1039100044F08004DAE724F0800444F48074D5E7AE
:1039200044F4003424F04008946B2CF03F0C2646FD
:1039300044EA080424F48028946D44EA0804DFF87B
:10394000D08004EA0804D2F8508048EA040992F8CA
:103950003C40D2F8408004F03F0444EA0C0424F0D8
:10396000004448EA0408546C2AF4807C44EA0C04BD
:10397000D2F848C0BCF5606F02D0BCF5F05F01D151
:10398000402E03D124F4F0544CEA040424F480467D
:10399000D46C3443566D062927D2DFE801F00309C1
:1039A0000F151B21126B23F4003343EA42031CE082
:1039B000126B23F4802343EA820316E0126B23F494
:1039C000002343EAC20310E0126B23F4801343EA9E
:1039D00002130AE0126B23F4001343EA421304E0DB
:1039E000126B23F4800343EA821345F807900568BD
:1039F00045F80E80056845F80B40D424026804EBB6
:103A0000C11156500068C0F8A033BDE8F08F000027
:103A1000FFFF06FEFEE700EB8100006E00F0F840BD
:103A200070478068C0F3C00070478068C0F38000B2
:103A300070478068C0F380007047042303EAD153C5
:103A400010B518444369C1F3045107248C40A343C3
:103A50008A401343436110BD00EB8100016E21F0E9
:103A6000004111430166704730B58BB000240894C3
:103A70000994202168460A94FCF774FC1D484FF015
:103A8000A041042501604FF44031C0E90114C46035
:103A90000461C0E90545047744770121016280F89B
:103AA0002440C462046380F83840C46380F8404016
:103AB000FDF782FA08B1FCF797FF08A90D480894B2
:103AC000FCF794FF08B1FCF78FFF0B48009006202D
:103AD0000190072002907F200594CDE903056946F7
:103AE0000448FDF733F8002801D0FCF77DFF0BB048
:103AF00030BD00009C0100200200300430B589B0C8
:103B000020216846FCF72EFC194818490024016062
:103B10004FF44031C0E90114C46004250461C0E9D8
:103B20000545047744770121016280F82440C4628E
:103B3000046380F83840C46380F84040FDF73CFAE5
:103B400008B1FCF751FF0B4800900620CDE90104B5
:103B50007F200594CDE9030569460548FCF7F6FF8B
:103B6000002801D0FCF740FF09B030BD0001005033
:103B7000080200200080F03E1CB505490120CDE977
:103B800000010023322203A1054803F0F9F91CBD0E
:103B90000400002073746172745F7461736B0000C1
:103BA000D161000870B586B014216846FCF7DAFBD5
:103BB0002D48C16C41F00401C164C16C01F00401E5
:103BC0000591C16C41F02001C164C16C01F020017C
:103BD0000591C16C41F00101C164C16C01F00101AA
:103BE0000591C16C41F00201C164C16C01F0020198
:103BF0000591C16C41F00801C164C06C012200F064
:103C0000080095024FF09046059029463046FDF792
:103C1000BCFC0022E0213046FDF7B7FC00244FF445
:103C20004050CDE90004694610480294FDF784FB3A
:103C300000950125CDE90254694630460195FDF70E
:103C40007BFBE020CDE90005CDE902546946304612
:103C5000FDF772FB1020CDE9000469460448029488
:103C6000FDF76AFB06B070BD00100240000400487A
:103C7000000800482DE9F043B5B000242E942F949D
:103C800030941C2127A83194FCF76CFB6021684616
:103C9000FCF768FB32943394202118A83494FCF785
:103CA00061FB1C2120A8FCF75DFB5E485C49C0E974
:103CB00000148460FDF702FD08B1FCF795FE0C21AD
:103CC0005848FDF7CAFC08B1FCF78EFE0A2155489A
:103CD000FDF768FD08B1FCF787FE02274FF00409E5
:103CE0002097CDE9219401268020CDE92406239454
:103CF00020A94C482696FDF753FC08B1FCF774FE4A
:103D0000DFF8248108252EAAB8F80000CDE92E049A
:103D100000214448CDE93045FDF78AFD08B1FCF7A4
:103D200063FE29942A9427AA00213E4827962D94C1
:103D3000FDF7E6FE08B1FCF757FE4AF680220021A7
:103D40003848FDF750FD08B1FCF74EFE0094019491
:103D50000294CDE903460594069407944FF0006061
:103D60000894CDE90940C012CDE90B404003CDE9EC
:103D70000D040F94109411941294149415941694A5
:103D80006A46002127481794FDF772FE08B1FCF738
:103D90002BFEB8F8000032AB5038329001220021DF
:103DA0002048FDF782FD08B1FCF71EFE502032903E
:103DB00032AB042200211B48FDF777FD08B1FCF768
:103DC00013FECDE91875CDE91A541C941D941E9468
:103DD00018AB0122002113481F94FDF716FE08B10D
:103DE000FCF702FE2020CDE91840CDE91A091C9508
:103DF00018AB022200210B48FDF707FE08B1FCF7C3
:103E0000F3FD00F03BFA03210648FDF719FE4FF4DD
:103E100000310448FDF7E3FD35B0BDE8F083000054
:103E200000680140740200200200002010B58CB030
:103E300000240594234804940694079408940A9453
:103E400009940094019402944FF08041039401601E
:103E5000A921C0E901144FF6FF71C0E90314846180
:103E6000FEF755FD08B1FCF7BFFD4FF480500490FC
:103E700004A91448FEF708FE08B1FCF7B5FD114887
:103E8000FEF76EFF08B1FCF7AFFD2020089008A9EF
:103E90000A940C48FEF7DEFC08B1FCF7A5FD0120F2
:103EA000CDE9004002940422694606480394FEF7D7
:103EB000C5FE08B1FCF798FD04210248FEF782FF19
:103EC0000CB010BD7003002030B59BB000241994D5
:103ED0001A9417941894149415941C210DA81694F0
:103EE000FCF740FA34216846FCF73CFA2E482D498D
:103EF00041F68F25C0E90014C0E902458021046124
:103F0000C0E90541FEF703FD08B1FCF76DFD4FF474
:103F10008050179017A92448FEF7B6FD08B1FCF7AA
:103F200063FD2148FFF767F908B1FCF75DFD1494C4
:103F3000159414A91C481694FEF78CFC08B1FCF7E4
:103F400053FD6020CDE90E540D90109411941294FD
:103F500000220DA914481394FFF7BBF808B1FCF731
:103F600043FD00944FF40050CDE904400394000356
:103F7000CDE9084001940294069407940A940B94A6
:103F8000694609480C94FEF70DFC08B1FCF72CFDBE
:103F90000548FFF775F800210348FFF75FF91BB0EC
:103FA00030BD000000340140BC030020184810B5AB
:103FB000164901604FF416514160002181600C22C6
:103FC000C160C0E904128161C16101624162816224
:103FD000FFF759FA08B1FCF707FD00210C48FFF77D
:103FE0002CFA08B1FCF700FD00210948FFF7FFF9A2
:103FF00008B1FCF7F9FC0648FFF7DAF9002803D00E
:10400000BDE81040FCF7F0BC10BD000000500040BF
:1040100008040020184810B5164901604FF4E1313A
:104020004160002181600C22C160C0E904128161FD
:10403000C161016241628162FFF725FA08B1FCF7B4
:10404000D3FC00210C48FFF7F8F908B1FCF7CCFCD1
:1040500000210948FFF7CBF908B1FCF7C5FC064879
:10406000FFF7A6F9002803D0BDE81040FCF7BCBC60
:1040700010BD0000004800409C040020FEE7FEE761
:1040800070B51B4886B0C16C41F00201C164C06CC0
:104090004FF4005500F00200059001200024CDE906
:1040A0000050CDE90204134E69463046FDF744F94D
:1040B000012229463046FDF768FA1020CDE90004B8
:1040C00002940D4C69462046FDF736F90122202165
:1040D0002046FDF75AFA002229463046FDF755FAE8
:1040E000012251022046FDF750FA06B070BD0000D3
:1040F000001002400008004800040048642002F05C
:10410000F3F9DFF848904FF480564FF090474FF4A2
:10411000005831463846FDF733FA054641464846D1
:10412000FDF72EFA0446012D01D1012C0AD0FCF72F
:1041300019FC2246294606A0FCF734FC642002F054
:10414000D3F9E6E700F012F8F8E7000000040048B1
:104150005F7265616479313A2564092C5F66617527
:104160006C74313A25640D0A0000000070B510210E
:104170001448FDF705FA144E144D1549012240B1BB
:1041800000240C704A7088780A2812D2401C88706B
:1041900070BD0A708A704878052802D2401C4870A9
:1041A00070BD30780028FBD1287D0028F8D12A7511
:1041B00070BDFCF7D7FB074804706C74FCF7E4FB98
:1041C000347070BD0008004800000020DC000020B2
:1041D000B800002001000020044900200860486069
:1041E0008860C860024948748874704700010020E4
:1041F000DC00002010B5FCF72FF941EC100B53EC5C
:10420000102B9FED050B51EC100BFCF7B6F8FCF7EB
:1042100030F980B210BD000000000000FD43E44111
:1042200000B587B0FFF726FD1248C16C41F00101CF
:10423000C164C06C142100F0010005906846FCF7D1
:1042400091F800210C48FDF7EAF94FF4FA70FDF7F8
:1042500061F84FF44070009002200190029000201D
:1042600003900D20049069464FF09040FDF764F8EC
:1042700007B000BD001002407402002030B587B0C6
:1042800014216846FCF76EF81748C16C41F0010133
:10429000C164C06C4FF4407400F00100059001202F
:1042A000CDE900400020029003204FF0904503909C
:1042B00069462846FDF740F8002221462846FDF7CA
:1042C00064F90A4844F694310268C2F89C10006808
:1042D0005021C0F8A81001210448FDF7A0F964207E
:1042E000FDF718F807B030BD00100240740200203E
:1042F00010B54FF0E020006902F09AFE012803D0CB
:10430000BDE8104002F0E0BA10BD10B594B03821FD
:104310006846FCF727F814210EA8FCF723F80020C4
:10432000FDF7EAFC092000904FF480300190012055
:10433000059002200324CDE907045521CDE90A1098
:104340000C900D9009946846FEF726F808B172B6F5
:10435000FEE70F20CDE90E0400201090119012907E
:1043600004210EA8FDF7AEFE002801D072B6FEE7CC
:1043700014B010BD0248016841F47001016070473B
:1043800088ED00E00148FEF7A9BD000030050020DF
:104390000148FEF7A3BD0000700300202DE9F04F97
:1043A00002682E4B2E4E2F4FDFF8BCC02F4C304DE5
:1043B0004FF0804B98420BD0584509D0B04207D0FF
:1043C000B84205D0604503D0A04201D0A84204D134
:1043D00022F070084A6842EA0802DFF89880DFF8A5
:1043E0009890DFF898A0984211D058450FD0B0426D
:1043F0000DD0B8420BD0604509D0A04207D040454F
:1044000005D0484503D0504501D0A84203D122F43D
:104410004076CA6832434E6922F08002324302601D
:104420008A68C2620A688262984209D0A04207D0B4
:10443000404505D0484503D0504501D0A84201D1A0
:1044400009690163012141610169C90703D001695B
:1044500021F001010161BDE8F08F0000002C014056
:104460000004004000080040000C004000340140FF
:10447000005001400040014000440140004801401C
:1044800010B501F01F030121046A99408C430462B6
:10449000016A9A401143016210BD10B5846842EA76
:1044A000032224F47F440A432243826010BD0000AB
:1044B0008268034B1A400A4342F00701816070474B
:1044C0008FFFCFFF2DE9F047056A026A22F0010253
:1044D0000262436882691F4C25F0020522400C6885
:1044E00022F0030214438A681C4E2A431A4D1C4FC3
:1044F000DFF870C0DFF87090DFF870A0A84209D034
:10450000B04207D0B84205D0604503D0484501D03D
:10451000504506D122F00808CA6842EA080222F093
:104520000402A84209D0B04207D0B84205D0604585
:1045300003D0484501D0504505D14D6923F440735F
:104540001D438B692B434360846149684163026268
:10455000BDE8F0878FFFFEFF002C014000340140D2
:10456000004001400044014000480140005001402B
:10457000F0B5056A026A22F010020262426883699D
:104580001C4C1E4E23400C6823F4407343EA042461
:1045900025F020038D681A4F43EA0513164DA842F3
:1045A00003D0B04201D0B84207D1D1F80CC023F0FB
:1045B000800343EA0C1323F04003A8420CD0B0421E
:1045C0000AD0104DA84207D00F4DA84204D00F4D7D
:1045D000A84201D0B84207D14D6922F4406242EAB4
:1045E00085028D6942EA850242608461496881637F
:1045F0000362F0BDFF8FFFFE002C0140003401403C
:10460000005001400040014000440140004801408A
:10461000F0B5056A026A22F4807202624368C269D8
:104620001C4C1E4E22400C6822F00302144325F459
:1046300000728D681A4F42EA0522174DA84203D036
:10464000B04201D0B84207D1D1F80CC022F40062C8
:1046500042EA0C2222F48062A8420CD0B0420AD076
:10466000104DA84207D0104DA84204D00F4DA842CB
:1046700001D0B84207D14D6923F4405343EA0513F2
:104680008D6943EA05134360C4614968C1630262EE
:10469000F0BD00008FFFFEFF002C01400034014000
:1046A00000500140004001400044014000480140EA
:1046B000F0B5056A026A22F4805202624268C36958
:1046C0001C4C1E4E23400C6823F4407343EA042420
:1046D00025F400538D681A4F43EA0533164DA8425E
:1046E00003D0B04201D0B84207D1D1F80CC023F4B6
:1046F000004343EA0C3323F48043A8420CD0B04279
:104700000AD0104DA84207D00F4DA84204D00F4D3B
:10471000A84201D0B84207D14D6922F4404242EA92
:1047200085128D6942EA85124260C461496801645C
:104730000362F0BDFF8FFFFE002C014000340140FA
:104740000050014000400140004401400048014049
:1047500030B5056A026A22F4803202624268036D53
:10476000124C23400C681C4325F400330D8943EAA6
:1047700005430F4DA8420ED00E4DA8420BD00E4D52
:10478000A84208D00D4DA84205D00D4DA84202D038
:104790000C4DA84204D14D6922F4803242EA052230
:1047A0004260046549688164036230BD8FFFFEFF8B
:1047B000002C014000340140004001400044014011
:1047C000004801400050014030B5046A026A22F4FA
:1047D000801202624268036D134D24F400142B40D2
:1047E0000D6843EA05230D8944EA05540F4DA8429C
:1047F0000ED00F4DA8420BD00E4DA84208D00E4D42
:10480000A84205D00D4DA84202D00D4DA84204D1BA
:104810004D6922F4802242EA85224260036549689C
:10482000C164046230BD0000FF8FFFFE002C014018
:104830000034014000400140004401400048014074
:104840000050014010B5036A046A24F001040462B8
:10485000846924F0F00444EA021423F00A020A43B3
:104860008461026210BD000070B5056A046A24F01C
:10487000010404628469154EB04214D0B0F1804F37
:1048800011D0134EB0420ED0124EB0420BD0124E89
:10489000B04208D0114EB04205D0114EB04202D005
:1048A000104EB04203D124F00304144301E044F05D
:1048B00001041A0724F0F00444EA126225F00A0306
:1048C00001F00A0119438261016270BD002C0140B0
:1048D0000004004000080040000C0040003401408B
:1048E000004001400050014010B5036A046A24F002
:1048F00010040462846923F0A00324F4704444EAA1
:10490000023243EA01118261016210BD30B5046ACE
:10491000056A25F010050562856925F4407545EAAC
:10492000022222F470454FF6FF7202EA033224F0AD
:10493000A0032A43A02404EA011119438261016201
:1049400030BD000030B5416EB9B10268916892681F
:10495000C1F342610B4B520F9C5CE50003F108046C
:10496000A25CB5FBF2F2A0F86A205A5C615CD2004E
:10497000B2FBF1F1A0F8681030BD0121A0F86A1077
:10498000F8E700002C74000890F82810090706D5F5
:1049900001684A68836B22F400421A434A6090F827
:1049A0002810C90706D001684A68C36A22F4003299
:1049B0001A434A6090F82810890706D501684A68AA
:1049C000036B22F480321A434A6090F8281049079A
:1049D00006D501684A68436B22F480221A434A6074
:1049E00090F82810C90606D501688A68C36B22F4BE
:1049F00080521A438A6090F82810890606D501680B
:104A00008A68036C22F400521A438A6090F82810D6
:104A1000490611D501684A68436C22F480121A4392
:104A20004A60416CB1F5801F06D101684A68836C09
:104A300022F4C0021A434A6090F82810090606D5ED
:104A400001684A68C06C22F4002202434A60704741
:104A50002DE9F84300260446C0F89060FCF79AFD63
:104A60008046206800684FF0200500076FF07E4701
:104A700013D54346002229042046009700F0B4F9DC
:104A800058B1216851E8000F20F0800041E8000291
:104A9000002AF6D1C4F8885021E020680068400759
:104AA00022D5434600224FF480012046009700F0B3
:104AB0009BF9C8B1216851E8000F20F4907041E8DB
:104AC0000002002AF6D12068083050E8001F21F0CB
:104AD000010140E80012002AF5D1C4F88C5084F896
:104AE00084600320BDE8F883C4F88850C4F88C5073
:104AF00044F86C6F666026760020F3E710B5026814
:104B000052E8001F21F4907142E80013002BF6D107
:104B10000E4B0268083252E8001F194042E80014A8
:104B2000002CF6D1C16E012908D1016851E8002F8F
:104B300022F0100241E80023002BF6D12021C0F81A
:104B40008C100021C166416710BD0000FEFFFFEF21
:104B50002DE9F0410446016880682269E369104349
:104B6000626900251A431043DFF84CC20A68934B70
:104B70001A4002430A6020684168E26821F440510B
:104B8000114341602168A069614501D0226A104348
:104B90008A688B4B1A4002438A602068C16A626A45
:104BA00021F00F011143C1628649236886488B4278
:104BB0000DD1D0F8880010F0030006D0012867D08E
:104BC000022854D0032851D164E001204FE07F49EE
:104BD0008B420BD1D0F8880010F00C0047D004288D
:104BE00045D0082852D00C2840D153E078498B4258
:104BF0000BD1D0F8880010F0300038D0102847D002
:104C0000202843D0302831D144E072498B420BD167
:104C1000D0F8880010F0C00029D0402838D0802873
:104C200034D0C02822D135E06B498B420ED1D0F868
:104C3000880010F440701AD0B0F5807F28D0B0F50D
:104C4000007F23D0B0F5407F10D123E063450DD124
:104C5000D0F8880010F4406009D0B0F5806F17D00C
:104C6000B0F5006F12D0B0F5406F13D010205B4A42
:104C70005B4F00264FF40041634539D160B10228F3
:104C80000DD004280DD0082831D10EE00220EEE727
:104C90000420ECE70820EAE7FDF722FB03E01146D9
:104CA00003E0FDF741FB01007BD0606A37F810207C
:104CB0006768B1FBF2F007EB4703834269D8B0EBBA
:104CC000073F66D8002308461946FBF701FB090297
:104CD00041EA106102027808101871413A46002337
:104CE000FBF7F6FA3F4AA0F54071914257D950E0E0
:104CF000E3694FF6EF788B422BD1092849D2DFE8E0
:104D000000F005080D48254848480E00FDF7E8FA70
:104D100001E0FDF7F7FA010001D142E01146606AB7
:104D200037F81000B1FBF0F04100606801EB500172
:104D3000B1FBF0F1A1F1100040452AD84FF6F07216
:104D400001EA0200C1F34201084328E0FDF7ECFA52
:104D5000E1E709281DD2DFE800F005080D1C1E1C44
:104D60001C1C0E00FDF7BCFA01E0FDF7CBFA0100B8
:104D700001D116E01146606A37F81000B1FBF0F17E
:104D8000606801EB5001B1FBF0F0A0F1100141456A
:104D900004D9012505E0FDF7C7FAE8E780B22168EC
:104DA000C8600120A4F86A0024F8680F2846E6606D
:104DB0002661BDE8F081000000800040F369FFCF6C
:104DC000FFF4FF1100380140001002400044004091
:104DD00000480040004C0040005000400024F40017
:104DE00014740008FFFC0F002DE9F04799461746A0
:104DF0000D4604464FF00008089E33E0701C31D089
:104E0000FCF7C8FBA0EB0900B04218D8BEB120687F
:104E10000168490726D5802D24D0402D22D0C169B4
:104E2000C94309070DD4082505622046FFF766FE31
:104E3000C4F8905084F884800120BDE8F0870320F6
:104E4000FBE7C069C04300050CD421684FF4006043
:104E500008622046FFF752FE2020C4F8900084F834
:104E60008480ECE72068C06935EA000004D00020A7
:104E7000B842C3D00020E0E70120F9E7FEE70000D8
:104E80000FB4054B10B503A9044A029800F000F9CD
:104E900010BC5DF814FB000051580008D800002039
:104EA0007CB5044600201D46164600290BD0491E3D
:104EB000CDE90041044B6A462946304600F0E8F847
:104EC000009A002111707CBDBF5700080907090E28
:104ED000002804DB00F1E02080F80014704700F0A7
:104EE0000F0000F1E02080F8141D704702E008C8B0
:104EF000121F08C1002AFAD170477047002001E054
:104F000001C1121F002AFBD1704700002DE9FF5F8D
:104F100082B00021DDE90430020DDDF840B003432A
:104F200018D044F61050A2F2FF32424315141198E3
:104F300001281FD0A5EB0B00401C5FEA000A4FF0D0
:104F400000064E4FDFF83891B046504615D5CAF1ED
:104F5000000413E0119801244AA3012801D16FEA4B
:104F60000B010298119AC0E90031C0E9024206B073
:104F7000BDE8F09FCBF10000DFE704460021404A86
:104F8000491842EB0450CDE9001012E0E00707D0C9
:104F900032463B4640464946FBF7BDFB80468946C4
:104FA00032463B4610461946FBF7B5FB06460F4610
:104FB0006410002CEAD1DDE90401DDE90023BAF137
:104FC000000F06DAFBF7A7FB42464B46FBF7A3FBB5
:104FD00005E0FBF7D2F942464B46FBF7CEF9044613
:104FE0000E460022284BFBF721FC03D84FF0FF3080
:104FF000014607E00022254B20463146FBF7E4FA44
:10500000FBF7FBFB102409E0002C0ADB0A2200233B
:10501000FBF75EF9039B30321A55641E50EA010219
:10502000F2D1641C039AC4F111031444119A012AA9
:1050300003D0012208430DD10AE0084304D0002028
:105040004FF0110B119072E7A3EB0B056D1E0DE0F5
:105050005B4504DD4FF0000205F1010504E003DAD1
:105060004FF00002A5F10105002AECD00298119939
:10507000C0E90231C0E9004579E7000000001440B2
:105080000000F03F300000000000F0430000E03F6F
:105090002DE9FF4F95B09B468946064600250FE255
:1050A000252877D100242746F84A0121059400E0FD
:1050B000044316F8013F203B01FA03F01042F7D1F8
:1050C00030782A2811D06FF02F033078A0F1300209
:1050D000092A16D8059A44F0020402EB820203EB77
:1050E00042021044761C0590EFE759F8042B059214
:1050F000002A03DA504244F40054059044F00204BC
:10510000761C30782E2816D116F8010F44F00404CE
:105110002A280DD06FF02F023078A0F13003092B30
:1051200009D807EB870302EB4303C718761CF3E7A4
:1051300059F8047B761C30786C280FD006DC4C289C
:1051400017D068280DD06A2814D104E0742810D034
:105150007A280FD10DE044F400140AE044F48014DE
:1051600001E044F440147278824202D104F58014C4
:10517000761C761C307866280BD013DC582877D044
:1051800009DC002875D04528F6D04628F4D04728F9
:105190001AD19DE118E0632835D0642879D06528BC
:1051A00012D195E1702873D008DC6728F1D0692806
:1051B0006FD06E280DD06F2806D1B5E073282CD0A3
:1051C000752875D0782874D05A46179990476D1C69
:1051D00075E1C4F30250022809D003280DD0D9F894
:1051E000001004280DD00D6009F1040967E1D9F819
:1051F0000010EA17C1E90052F6E7D9F800100D8057
:10520000F2E70D70F0E719F8041B8DF8001000208C
:105210008DF80100EA46012003E059F804AB4FF095
:10522000FF3061074FF0000102D40DE008F10101E9
:105230008846B9420FDA8045F8DB1AF808100029D1
:10524000F4D108E008F1010188468142FADB1AF83E
:1052500008100029F6D105985B46A0EB0807214607
:105260003846179A00F094FA284400EB080507E046
:105270004DE029E10DE01AF8010B5A4617999047C5
:10528000B8F10108F7D25B4621463846179A13E178
:1052900042E00A220092C4F302524FF0000A022AAE
:1052A00008D059F804CB032A4FEAEC710AD00DE07C
:1052B00029E02AE009F1070121F00702F2E802C122
:1052C000914609E00FFA8CFC4FEAEC71042A03D1F5
:1052D0004FFA8CFC4FEAEC71002907DA0A460021EC
:1052E000DCF1000C61EB02012D2202E0220504D565
:1052F0002B228DF80420012203E0E20701D02022B6
:10530000F7E7904659E00A2102E010220DE0102153
:105310004FF0000A00910BE010224FF0000A44F019
:1053200004040827009203E008224FF0000A0092CC
:10533000C4F30252022A05D059F804CB0021032AF3
:1053400008D009E009F1070121F00702F2E802C1E3
:10535000914605E01FFA8CFC042A01D10CF0FF0CE9
:105360004FF00008220728D5702806D0009B83F054
:10537000100353EA0A0305D00EE040228DF8042002
:10538000012208E05CEA010206D030228DF80420F8
:105390008DF8050002229046009B83F0080353EA33
:1053A0000A030AD15CEA010201D1620705D5302265
:1053B0008DF804204FF001087F1E582804D034A037
:1053C00003900EA802900DE036A0F9E75346604620
:1053D000009AFAF77DFF84460398825C0298401E8B
:1053E000029002705CEA0100F0D1029806A9081A46
:1053F00000F1200A600702D524F4803400E0012780
:10540000574502DDA7EB0A0000E0002000EB0A018F
:10541000009005984144401A0590E00306D45B468D
:105420002146179A059800F0B3F90544002706E0D5
:1054300001A85A46C05D179990476D1C7F1C4745CF
:10544000F6DBE0030CD55B462146179A059800F081
:105450009FF9054404E030205A46179990476D1C87
:105460000099481E00900029F5DC08E00298029996
:105470005A460078491C0291179990476D1CBAF161
:105480000001AAF1010AF1DC65E100000928010030
:1054900030313233343536373839616263646566AA
:1054A000000000003031323334353637383941426C
:1054B000434445460000000000F058F90544761CBE
:1054C000307800287FF4ECAD19B02846BDE8F08FA5
:1054D000620700D4062709F1070222F0070CFCE856
:1054E0000223E14603F000485FEA080C02D00FF205
:1054F000702C0DE05FEA045C02D50FF2682C07E027
:105500005FEAC47C02D00FF2602C01E0AFF2700CB5
:105510004FF0FF3823F00043CDF850C065280CD081
:1055200006DC452809D046281DD047283DD13DE05E
:10553000662818D067287ED138E00021112F01DBC2
:10554000112000E0781CCDE9000106A90EA8FFF7A4
:10555000DDFCDDE90F010E9A03910021009207F1B5
:10556000010A04914DE04FF000400097CDE9011091
:1055700006A90EA8FFF7CAFCDDE90F0203920E9BF5
:1055800011990022DDF80CA00093049211B9791C46
:1055900000EB010AB7EB0A0004D4C0F1FF3007F1B9
:1055A000010A0490AAEB0700019044E0012F00DA01
:1055B00001270021112F01DD112000E03846CDE93F
:1055C000000106A90EA8FFF7A1FCDDE90F010E9A64
:1055D0000391002104910092BA4621070CD403994B
:1055E000514500DA8A46BAF1010F05DD009AAAF1A9
:1055F0000101515C302908D0B84202DA10F1040FE1
:1056000006DA0121CDE9011015E0AAF10101E9E76F
:10561000002805DC049901440491AAEB000102E092
:10562000411C514500DD8A460499401A401C0190F6
:105630004FF000400290200704D40198504501DB50
:10564000CDF8048000208DF84F0002980DF14F072F
:10565000B0F1004F25D02B200E9002984FF0020899
:1056600000280CDA404202902D200E9007E00A211B
:105670000298FAF717FF3031029007F8011DB8F1D0
:105680000001A8F10108F2DC02980028EFD1791E90
:105690000E980870307800F0200040F0450007F8C0
:1056A000020D12A8C01B00F107081498007800B181
:1056B000012000EB0A01019801EBE07105984144DB
:1056C000401A401E0590E00306D45B462146179A17
:1056D000059800F05DF805441498007818B15A4612
:1056E000179990476D1CE00324D55B462146179A15
:1056F000059800F04DF805441CE00498002807DBED
:10570000DDE90301884203DD0098405C179901E060
:10571000179930205A469047049805F10105401C1E
:1057200004900198401E019004D12E205A461799EA
:1057300090476D1CBAF10001AAF1010ADDDC05E019
:1057400017F8010B5A46179990476D1CB8F10001E4
:10575000A8F10108F4DC5B462146179A0598ABE6F0
:105760002D0000002B000000200000002DE9F0417A
:10577000044600251E461746880404D405E0394631
:105780002020B0476D1C641EF9D52846BDE8F08185
:105790002DE9F041044600251E469046C80301D578
:1057A000302700E02027880404D505E0414638462C
:1057B000B0476D1C641EF9D52846BDE8F0814A68E3
:1057C000002A06D00A68531C0B6010704868401EFF
:1057D0004860704730B587B014216846FAF7C2FDBB
:1057E0001948C16C41F00201C164C06C174D00F052
:1057F00002000590002280212846FBF7C6FE012208
:1058000040212846FBF7C1FE012251022846FBF742
:10581000BCFE012100244FF43070CDE90214CDE923
:10582000000169462846FBF787FD2020CDE90004EA
:10583000694628460294FBF77FFD01222021284675
:10584000FBF7A3FE07B030BD001002400004004883
:1058500013B54FF6FF73012269460248FDF7C8FEF3
:1058600000981CBD0804002010B5FCF793F9FEF762
:105870004CFDFEF797F9FEF7F7F8FEF73FF9FEF754
:1058800023FBFEF7D3FAFEF7C5FBFEF78FFBFFF70E
:10589000A1FFFEF7F5FB00F007F8FEF76DF900F049
:1058A00015F8002010BD0000EFF3058010B16FF077
:1058B000050070470448016811B14FF0FF30704790
:1058C00001210160002070478400002010B5EFF333
:1058D000058010B16FF0050010BD0848016801296E
:1058E00002D04FF0FF3010BD054A002182F8141D90
:1058F0000221016000F0F0FE002010BD84000020B5
:105900000BE000E02DE9F041134C0F460546E66838
:105910002068001D00F0B4FC681C07D137B1216875
:10592000BDE8F0410D48091D00F0FABC206835447F
:10593000B5424560216805D2A06BBDE8F041091D64
:1059400000F0D6BC606B091D00F0D2FCA06A854255
:1059500000D2A562BDE8F081340000206C0A00206E
:105960002DE9F041054600F0E7FC2D4CA068401CF5
:10597000A06020682B4F10B1606930B32BE0256028
:10598000A068012827D1002606EB860007EB8000DF
:1059900000F0A0FC761C382EF6D3234800F09AFCC9
:1059A0002148143000F096FC1F48283000F092FC8B
:1059B0001D483C3000F08EFC1B48503000F08AFC43
:1059C000194860631430A06305E02068E96AC06A82
:1059D000884200D82560606A401C60626864E86A9A
:1059E0002169884200D9206100EB800007EB80002C
:1059F000291D00F095FC00F0BFFC606900280CD068
:105A00002068E96AC06A884207D208494FF080508E
:105A10000860BFF34F8FBFF36F8FBDE8F0810000C8
:105A200034000020BC0500201C0A002004ED00E02A
:105A300038B500F081FC104C2068C8B90F4800F060
:105A400049FC0E48143000F045FC0C48E06014306E
:105A500020610A4B0020F03B009003F1500210211E
:105A60000A2000F073FF206010B105A100F006FDD0
:105A7000BDE8384000F080BC70000020700B0020B2
:105A8000546D72510000000030B4026C0B46002AC5
:105A90000BD0C1681144C1608468A14201D3016880
:105AA000C16030BC1846FAF744BC30BC70472DE9E1
:105AB000F041856B174604460026026C82B1C7B1DF
:105AC000E068FAF736FCE168206C091AE1602268A8
:105AD000914202D2A168081AE060022F16D017E0A6
