:020000040800F2
:1000000050360020AD020008A73C00083D3600082D
:10001000A53C00087D060008414A000800000000D9
:10002000000000000000000000000000ED010008DA
:10003000BD0600080000000049020008B53E0008A7
:10004000C7020008C7020008C7020008C70200086C
:10005000C7020008C7020008C7020008C70200085C
:10006000C7020008C7020008C7020008C70200084C
:10007000C7020008C7020008C7020008C70200083C
:10008000C7020008C7020008C7020008C70200082C
:10009000C7020008C7020008C7020008C70200081C
:1000A000C7020008493F0008C7020008C70200084D
:1000B000553F0008C7020008C7020008C702000831
:1000C000C7020008C7020008C7020008C7020008EC
:1000D000C7020008C7020008C7020008C7020008DC
:1000E000C7020008C7020008C7020008C7020008CC
:1000F000C7020008C7020008C7020008C7020008BC
:10010000C7020008C7020008C7020008C7020008AB
:10011000C7020008C7020008C7020008C70200089B
:10012000C7020008C7020008C7020008C70200088B
:10013000C7020008C7020008C7020008C70200087B
:10014000C7020008C7020008C7020008C70200086B
:10015000C7020008C7020008C7020008C70200085B
:10016000C7020008C7020008C7020008C70200084B
:10017000C7020008C7020008C7020008C70200083B
:10018000C7020008C7020008C7020008C70200082B
:10019000C702000800000000C7020008C7020008EC
:1001A000C7020008C7020008C7020008C70200080B
:1001B000C7020008C7020008C7020008C7020008FB
:1001C000C7020008C7020008C7020008C7020008EB
:1001D000C7020008C7020008DFF80CD000F0DEF903
:1001E00000480047FD4A0008503600202C4B196893
:1001F0000868B0E8F04F80F30988BFF36F8F4FF0C5
:10020000000080F311887047000000000848006873
:10021000006880F308884FF0000080F3148862B60D
:1002200061B6BFF34F8FBFF36F8F00DF00BF00BF1A
:1002300008ED00E0DFF80C00016841F47001016096
:10024000704700BF88ED00E0EFF30980BFF36F8FC8
:10025000134B1A681EF0100F08BF20ED108A20E91A
:10026000F04F106009B44FF0500080F31188BFF3D5
:100270004F8FBFF36F8F05F071FB4FF0000080F3DD
:10028000118809BC19680868B0E8F04F1EF0100F1B
:1002900008BFB0EC108A80F30988BFF36F8F7047F6
:1002A00034000020EFF305807047000006488047C7
:1002B00006480047FEE7FEE7FEE7FEE7FEE7FEE74B
:1002C000FEE7FEE7FEE7FEE7393F0008D901000838
:1002D0002DE9F05F0546002092469B46884606467B
:1002E000814640241BE0284641464746224600F00E
:1002F000E8F853465A46C01A914110D311461846A1
:10030000224600F0CFF82D1A67EB01084F4622462F
:100310000120002100F0C6F817EB00094E41201E15
:10032000A4F10104DFDC484631462A464346BDE8D5
:10033000F09F40EA01039B0703D009E008C9121FA0
:1003400008C0042AFAD203E011F8013B00F8013B8F
:10035000521EF9D27047D2B201E000F8012B491EBB
:10036000FBD270470022F6E710B513460A46044652
:100370001946FFF7F0FF204610BD2DE9F04D81EA48
:10038000030404F0004B21F0004514464FF0000A2E
:1003900023F0004150EA050220D054EA01021DD0AA
:1003A000C5F30A570246C5F31303C1F31300C1F3A3
:1003B0000A5640F4801543F48013A7EB0608101B7F
:1003C000D64608F2FD3873EB050002D308F10108A8
:1003D00001E092185B41B8F1000F03DA00200146FA
:1003E000BDE8F08D00204FF48011064684460EE0F3
:1003F000171B73EB050705D3121B63EB05030643BD
:100400004CEA010C49084FEA300092185B4150EA6F
:100410000107EDD152EA030012D082EA040083EA18
:100420000501084305D0101BAB4106D20122002371
:1004300006E000224FF0004302E06FF0010253108B
:100440001AEB06004CEB085110EB0A0041EB0B01D4
:10045000BDE8F04D00F045B80EB540F233410291D1
:100460000021CDE900110A460B4600F049F803B01F
:1004700000BDC1F30A5210B5C1F3130140F2FF33BE
:1004800041F480119A4201DA002010BD40F233435A
:100490009A42A2F2334203DC524200F012F810BD3D
:1004A000904010BD202A04DB203A00FA02F100201F
:1004B00070479140C2F1200320FA03F319439040A2
:1004C0007047202A04DB203A21FA02F0002170470D
:1004D00021FA02F3D040C2F12002914008431946AC
:1004E000704710B5141E73F1000408DA401C41F186
:1004F000000192185B411A4301D120F0010010BDA8
:100500002DE9F04D92469B4611B1B1FA81F202E01D
:10051000B0FA80F220329046FFF7C4FF04460F463F
:1005200040EA0A0041EA0B0153465A46084313D0F9
:10053000114653EA010019D0C8F140025046FFF7B6
:10054000C0FF05460E46504659464246FFF7AAFFF1
:10055000084305D0012004E020463946BDE8F08D6F
:100560000020054346EAE0762C4337430A986305AA
:10057000E40AA0EB08000022FD0A44EA47540A30CE
:1005800002D500200146E9E7010510196941DDE9BE
:10059000084500196941BDE8F04DA2E7064C074D3A
:1005A00006E0E06840F0010394E807009847103443
:1005B000AC42F6D3FFF714FE5064000870640008E4
:1005C000DFF8A490294E2A4DDFF8A880642700BFE9
:1005D00099F81400012804D098F8001001293CD0A3
:1005E0003EE098F80000B8BB44F6E430308003F0F9
:1005F000F9FB012429683088C1F89400C4F1640132
:10060000414391FBF7F12A68C2F89C10604390FBCC
:10061000F7F12868C0F8A810142005F0A3F8641CAE
:100620002E2CE7DBC82005F09DF8134803F0C4FB2F
:1006300030802968C1F8940036214143B1FBF7F1BD
:100640002A68C2F89C102E214843B0FBF7F02968B5
:10065000C1F8A800012101E002E0002188F80010A3
:10066000642005F07FF8B3E7D800002002000020E6
:1006700070020020B4000020B0AD0100FEE70000D1
:10068000064910B500200875054944F6E430088095
:1006900003F0D6FBBDE8104003F080BBD80000207B
:1006A0000200002010B504F085FF03490020087007
:1006B000BDE8104004F09EBFB5000020704772B640
:1006C000FEE700002DE9F04F044690F858009BB07B
:1006D0000F464FF0000B012812D0012084F858007B
:1006E00000261796189620684FF0A048DFF81C9156
:1006F000DFF81CA1474D404506D12846009508E08B
:1007000002201BB0BDE8F08F48450AD15046CDF815
:1007100000A002F0A2FF0090206802F09EFF40B10E
:1007200009E0E06D40F02000E06584F858600120A9
:10073000E7E7009850B1E06D40F02000E0654FF031
:10074000010B00BF84F858605846DAE7206841463C
:10075000884201D0A84201D12F4800E02F48D7F8A5
:1007600000C02F4B40F61F72BCF1000F2DD0D0F807
:1007700008C094F838802CF4604C4CEA483CD7F818
:1007800004804CEA080CC0F808C0D4F800C08C45BE
:1007900001D0AC4504D18968AB6801F0010109E0E2
:1007A000D9F80810DAF8085001F0010105F0010548
:1007B0009B68294303F001031943C3D1BB6839681F
:1007C00019438368934319431DE0876827F4604702
:1007D000876027688F4201D0AF4204D18968AB6837
:1007E00001F0010109E0D9F80810DAF8085001F029
:1007F000010105F001059B68294303F0010319433A
:10080000A0D18168914381609CE700000004005002
:100810000005005000010050000300500007005088
:10082000000600502DE9F84F00270446009790F885
:100830005800DFF81C840D46B946012811D0012666
:1008400084F85860206802F004FF60B1E06D40F069
:100850002000E0655FF0010784F858903846BDE855
:10086000F88F0220FBE7D5E900210C23206803EA7A
:1008700091131844036B01F01F014FF01F0C0CFA89
:1008800001FCC2F3846223EA0C038A40134303632E
:10089000206802F0DEFE8246206802F0D6FE5AEAA8
:1008A00000003CD1AA6829682068B2F1004F37D017
:1008B00002F0D7FE2068416921F0004141612068C3
:1008C0006969C268C2F3C102520091402A69042AD0
:1008D00031D000EB82002B68026EDFF878C303F0A2
:1008E000F84302EA0C020B431A4342F0004101664E
:1008F00022682869A96902EB8000026E22F08072EA
:100900000A430266297F22682869012910D0002144
:1009100002EB8000026E22F000720A4302667DE064
:10092000002202F09EFE2068416941F00041C5E7C7
:100930004FF00071ECE7002102F081FE40032068D7
:100940004FF0000172D002F07AFE90FAA0F0B0FAF7
:1009500080F1286842036ED090FAA0F0B0FA80F0DF
:10096000814204D100221146206802F089FE012153
:10097000206802F064FE400320684FF001015DD062
:1009800002F05DFE90FAA0F0B0FA80F12868420310
:1009900059D090FAA0F0B0FA80F0814204D1002240
:1009A0000121206802F06CFE0221206802F047FE5F
:1009B000400320684FF0020148D002F040FE90FA58
:1009C000A0F0B0FA80F12868420344D090FAA0F079
:1009D000B0FA80F0814204D100220221206802F0A6
:1009E0004FFE0321206802F02AFE400320684FF0EA
:1009F000030133D002F023FE90FAA0F0B0FA80F1A8
:100A0000286842032FD090FAA0F0B0FA80F081421B
:100A100004D100220321206802F032FE20688168A0
:100A200011F0010F22D0ACE000E004E002F007FE7C
:100A3000C0F384618DE7C0F3846091E702F0FFFDAD
:100A4000C0F38461A2E7C0F38460A6E702F0F7FD7B
:100A5000C0F38461B7E7C0F38460BBE702F0EFFD49
:100A6000C0F38461CCE7C0F38460D0E72A7B2968B7
:100A700050F8B03FC1F3120C23EA0C0302F0180C3B
:100A8000754A22FA0CF20A4013430360E9684145B3
:100A900077D1286841031CD090FAA0F1B1FA81F116
:100AA000491C01F01F0109294FEA403132D80029C1
:100AB00012D000BF90FAA0F1B1FA81F101F1010169
:100AC00001F01F0106FA01F609D100BFC0F38461ED
:100AD00009E0C0F38461E3E7C0F38461EEE790FAD4
:100AE000A0F1B1FA81F101F1010101F01F0146EA23
:100AF000816102D1C0F3846003E090FAA0F0B0FA03
:100B000080F000F1010000F01F0000EB400041EA1E
:100B1000005132E000290ED090FAA0F1B1FA81F133
:100B200001F1010101F01F0106FA01F606D100BF33
:100B3000C0F3846106E0C0F38461F1E790FAA0F1AC
:100B4000B1FA81F101F1010101F01F0146EA816171
:100B500002D1C0F3846003E090FAA0F0B0FA80F014
:100B600000F1010000F01F003C4A00EB400002EBE6
:100B7000005041EA000141F00071AA68206802F0CB
:100B800070FD37482B6803423FF466AE21684FF092
:100B9000A04C3448344E354D614501D0A94201D1B5
:100BA000024600E032469268DFF8C48002F0E0724C
:100BB000434503D0DFF8BC80434521D15FEA0228DA
:100BC0001ED4614506D02C4B99427FF445AEA94214
:100BD00000D0304642F40001826822F0E0720A43FD
:100BE0008260264826490068B0FBF1F0401C00EB0B
:100BF0004000800000E0401E00900028FBD12BE662
:100C0000DFF8808043450FD15FEAC2180CD4A942B7
:100C100002D11D4B9942F2D0614502D0A94200D0C9
:100C2000304642F080710CE0DFF860804345E6D149
:100C30005302E4D4A942E2D0614500D0304642F4E8
:100C40008001826822F0E0720A43826004E60000BC
:100C500000007F4000F0FF03FFFF0700000020FEC0
:100C60000000088000030050000700500001005001
:100C7000000021C31000C09000060050300000208A
:100C8000400D0300000052C700050050000084CB57
:100C9000F8B54FF0000504002E46009502D0E06D37
:100CA00010B107E00120F8BD204600F009F92666E2
:100CB00084F8586020688168C1F3407119B1816877
:100CC000734A1140816020688168C1F3007189B95D
:100CD0008168704A114041F0805181606E486F49CF
:100CE0000068B0FBF1F04000801C00E0401E009066
:100CF0000028FBD120688168C1F3007141B9E16D22
:100D000041F01001E165216E41F0010121660125EC
:100D100002F09FFCE16DC90600D430B1E06D40F0F7
:100D20001000E06501252846F8BDE06D20F48070D4
:100D300040F00200E0652068816811F0010F27D1C2
:100D40004FF0A043564A984201D0904204D199688E
:100D5000966801F001010AE052498968524E01F09B
:100D60000101B66806F001063143504EB66806F040
:100D7000010631430CD1984201D0904201D14C4838
:100D800000E04C486168826822F47C120A43826069
:100D9000E168E06B627F0843A16841EA42310843A1
:100DA00094F8241040EA0140012904D1218D424ADF
:100DB00002EB41410843E16A29B101F47871226BE9
:100DC000014342EA01002268D1683C4B19400143CB
:100DD000D16020680169626B21F0406111430161BB
:100DE000206802F032FC70BB207F94F83810226833
:100DF000800340EA4100D16844F202039943014371
:100E0000D16020690028206801690AD041F480314E
:100E10000161206850F8C01F22696FF30D01114372
:100E200007E021F480310161206850F8C01F6FF3A2
:100E30000D01016094F8400001280CD02068016980
:100E400021F001010161606901282068016B21F036
:100E50000F0111D013E0D4E911010843D4E91312B2
:100E60001143084321680A6940F2FC739A43104316
:100E700040F001000861E6E7226A521E1143016357
:100E8000E06D20F0020040F00100E0654BE700005B
:100E9000C0FFFF5FC0FFFF7F30000020400D030058
:100EA00000010050000400500005005000060050F2
:100EB00000030050000700500000FEFF0740F0FF55
:100EC0002DE9F0439BB00446142115A8FFF74AFA18
:100ED00054216846FFF746FA4FF00051206800257C
:100EE0003D4F0326DFF8F4908A133D4CB0F1A04F3C
:100EF00011D03C4B98426CD19046684600921191BB
:100F000000F0CCFD08B1FFF7DAFB3868401C386010
:100F1000012846D04DE068460092119100F0BEFDD8
:100F200008B1FFF7CCFB3868401C3860012807D1B6
:100F3000E06C40F40050E064E06C00F400501A9063
:100F4000E06C40F00400E064E06C00F004001A90F3
:100F5000E06C40F00200E064E06C00F002001A90E7
:100F6000E06C40F00100E064E06C179500F00100D7
:100F70001A900220CDE9150615A91B4800F048F883
:100F80004FF480401795CDE9150615A9484600F0A5
:100F90003FF806201795CDE9150615A94FF09040AA
:100FA00015E0E06C40F40050E064E06C00F40050A8
:100FB0001A90E06C40F00200E064E06CCDF85480E0
:100FC00000F00200CDE916651A9015A9484600F018
:100FD0001FF81BB0BDE8F08320000020000400488B
:100FE00000100240000100500008004870B504469F
:100FF00000F03CF90546601C02D0044840680444F7
:1010000000F034F9401BA042FAD370BD2400002048
:101010002DE9F04FDFF82092002301260324A9F1E7
:10102000040B85B00F2709F1040AABF1040EFAE0B6
:1010300006FA03F52A407CD091F804C00CF0030CAA
:10104000BCF1010F02D0BCF1020F26D1D0F808C0CC
:10105000CDF800C04FEA430C04FA0CF8CDF810C0EC
:10106000DDF800C02CEA080CCDF800C0D1F80C80E7
:10107000DDF810C008FA0CF8DDF800C048EA0C08EA
:10108000C0F80880D0F804C02CEA050C0D79C5F32F
:1010900000159D4045EA0C0545600D79ED43AD070F
:1010A0000ED0C5684FEA430804FA08FC25EA0C058F
:1010B000D1F808C00CFA08FC4CEA050CC0F80CC0CA
:1010C0000D7905F00305022D16D1DD0800EB850C26
:1010D000CDF808C0DCF820805D074FEAD56C07FA30
:1010E0000CF528EA05080D6905FA0CF5DDF808C0CD
:1010F00045EA0805CCF8205005684FEA430CCDF8C6
:1011000008C004FA0CFC25EA0C0591F804C00CF0A8
:101110000308DDF808C008FA0CF848EA0508C0F82A
:1011200000804D6815F4403F7CD0444DD5F860C038
:1011300000E077E04CF0010CC5F860C02D6E23F0A4
:10114000030C05F0010500953D4D65440295AD6821
:101150004FEA837C4FEA1C7807FA08FC25EA0C0565
:10116000B0F1904F06D0DFF8DCC0604505D14FF0FC
:10117000010C20E04FF0000C1DE0DFF8CCC0604512
:1011800002D14FF0020C16E0DFF8C0C0604502D17A
:101190004FF0030C0FE0DFF8B8C0604502D14FF00C
:1011A000040C08E0DFF8ACC0604502D14FF0050C3C
:1011B00001E04FF0060C0CFA08FC4CEA050C029D0D
:1011C000C5F808C0D9F80050CC46D1F80480954342
:1011D0005FEAC82800D51543CCF80050DAF8005073
:1011E000D446D1F8048095435FEA882800D515439A
:1011F000CCF80050DBF80050DC46D1F80480954371
:101200005FEA883800D51543CCF80050DEF800506E
:10121000F446D1F8048095435FEAC83800D51543F9
:10122000CCF800505B1C0A6832FA03F57FF400AF7B
:1012300005B0BDE8F08F0000080401400010024036
:10124000000001400004004800080048000C00486D
:1012500000100048001400480069084000D0012038
:1012600070470AB1816170478162704701488068A8
:10127000704700002400002030B590F8DD20022ADD
:1012800037D090F8DC20012A33D0012480F8DC40EC
:10129000022280F8DD200368D3F8A02322F00205A3
:1012A0000A7802F002022A4322F03C050A7902F091
:1012B0003C022A4322F470758A682A4322F480652E
:1012C0008A8902F480622A430D69C3F8A453056831
:1012D0004B69C5F8A83303688969C3F8AC13016882
:1012E000C1F8A02380F8DD40002180F8DC1008461A
:1012F00030BD022030BD10B590F8DD20022A16D096
:1013000090F8DC20012A12D0012200F8DC2F022301
:10131000437050F8DC3CD3F8A04324F001040C43A4
:10132000C3F8A043427000210170084610BD02209E
:1013300010BD10B590F8DC20012A21D0012280F8E0
:10134000DC20022380F8DD304B1C1BD00368D3F86F
:10135000CC4344F00204C3F8CC430368D3F8CC4335
:1013600024F00C040C43C3F8CC430168D1F8CC330F
:1013700043F00103C1F8CC3380F8DD20002010BD1C
:10138000022010BD0168D1F8CC3323F00203C1F86C
:10139000CC33EAE738B5040056D0022084F8DD00EB
:1013A0000025C4F8E050C4F8E450C4F8E850C4F88C
:1013B000EC50C4F8F050C4F8F450C4F8F850207A57
:1013C000C0071BD021492068884208D12048016EFF
:1013D00041F080610166006E00F08060009021683D
:1013E000086820F44042208A00F44040104320F472
:1013F0004052A08A00F4405010430860204600F09C
:1014000029F8207A800708D52168086820F44072FE
:10141000A08900F4407010430860012084F8DD00CA
:1014200084F8DC505FF00001C1EBC10004EB8000E8
:10143000491C8561C561056245628562C9B2056363
:101440000629F1D9002038BD012038BD00680140CF
:101450000010024008B500680649884208D10648D5
:10146000016E41F080610166006E00F080600090C6
:1014700008BD0000006801400010024070B50D4634
:101480000446FFF7F3FE064607E0681C05D0FFF7A9
:10149000EDFE801BA8420DD865B12068D0F8880306
:1014A000C043C003F1D4012084F8DD00002084F89B
:1014B000DC0070BD072084F8DD00032070BD70B52E
:1014C00090F8DD30022B1DD090F8DC30012B19D0C4
:1014D000012380F8DC30022480F8DD40EC2504682C
:1014E00005EBC1156159CE0605D54FF6C076B1435F
:1014F00032400A43625180F8DD30002180F8DC1070
:10150000084670BD022070BD70B590F8DD30022B2A
:1015100023D0022380F8DD30062920D08023046800
:1015200003EBC115635923F007069368334323F097
:101530001806D368334363519425046805EBC1153D
:10154000136863519824036804EBC11152685A5020
:10155000012180F8DD10002070BD022070BD0368FD
:10156000196821F007049168214321F01804D1681B
:1015700021431960036811685961516802689161DB
:10158000E6E72DE9F04F90F8DD40022C25D090F8E9
:10159000DC40012C21D04FF0010980F8DC900224BE
:1015A00080F8DD4000274FF0070C062918D09C2456
:1015B00004EBC116012A39D08024A8254FF4005A23
:1015C0004FF4405B05EBC11504EBC114022A2FD088
:1015D000042A45D0082A0BD144E00220BDE8F08F50
:1015E000012A0AD0022A0CD0042A0ED0082A10D0D0
:1015F00080F8DDC080F8DC700EE002681968D16107
:101600000AE002681968516206E00268196891628E
:1016100002E002681968D16290F8DD10072948D00D
:1016200080F8DD9080F8DC700020D7E7196835E09D
:101630004FF0A408D0F800C008EBC1111A684CF8AC
:1016400001205968002901680A5922F440522ED01D
:101650000A5101680A59D3F804C042EA0C0218E0A2
:10166000196821E04FF0AC08D0F800C008EBC111B8
:101670001A684CF801205968002901680A5922F4B7
:10168000404214D00A5101680A59D3F804C042EA12
:101690008C020A515968514503D1996802689151E9
:1016A000BAE75945B8D1996802685151B4E70A516F
:1016B000B2E7012092E710B590F8DC20012A0ED0A5
:1016C000012200F8DC2F0223437050F8DC3C1C6838
:1016D0000C431C60427000210170084610BD0220BE
:1016E00010BD70B5044690F8DD00022811D094F8C2
:1016F000DC0001280ED0012584F8DC50022084F89B
:10170000DD00204601F05DFE84F8DD50002084F805
:10171000DC0070BD022070BD10B590F8DC20012AFD
:1017200010D0012200F8DC2F0223437050F8DC3C7B
:10173000D3F894430C43C3F89443427000210170E2
:10174000084610BD022010BD2DE9F041044690F876
:10175000DD0015460E46022826D094F8DC0001284C
:1017600021D0012784F8DC70022084F8DD00062EE9
:101770001CD0204601F094FEC6EBC60004EB8000AE
:101780002968016269684162A9688162E968C16289
:10179000296901633146204601F096FD062E15D0D9
:1017A000E86A40B112E00220BDE8F081114620460F
:1017B00001F0BEFDE0E78021206801EBC611425830
:1017C000EB6D22F4007242EA4322425084F8DD704D
:1017D000002084F8DC00E7E72DE9F041044690F8AA
:1017E000DD00022824D094F8DC0001281FD0012558
:1017F00084F8DC50022084F8DD00EC20266800EB41
:10180000C113F058176820F0100040EA071020F4C8
:1018100080175068384320F48037D068384320F46C
:101820000037906838439769012F03D00CE00220FD
:10183000BDE8F08120F004071069384320F002076A
:101840005069384340F00100F050204601F03CFD63
:1018500084F8DD50002084F8DC00E9E70248816864
:1018600042681144816070472400002010B50024B4
:10187000032000F09BF80F2000F008F808B10124C5
:1018800001E000F047F8204610BD000030B50546E5
:101890001B4887B0016E41F400610166006E06A925
:1018A00000F40060009001A800F066FB00F096FBD9
:1018B0001449154AB0FBF1F11448491E0260416019
:1018C00040F2E7320021C0E90321816000F08BFE85
:1018D000040012D10D4800F0FDFE04000DD11920C6
:1018E00000F036F8102D07D200222946192000F00A
:1018F0003DF80748056000E0012407B0204630BDF0
:101900000010024040420F00002C01402C05002036
:10191000240000200D4808B5016E41F00101016668
:10192000016E01F001010091816D41F080518165EE
:10193000806D002200F0805000900F21901E00F07A
:1019400015F8BDE8084000F0A1B800000010024002
:10195000002809DB00F01F020121914040098000AE
:1019600000F1E020C0F8001170470000F0B40E4B09
:101970001B680C46C3F30223C3F10705042D00D9ED
:101980000425191D072901D2002300E0DB1E0126D2
:1019900006FA05F1491E214099409E40761E1640E8
:1019A0003143F0BC03F04DB80CED00E0064900F007
:1019B000070208684FF6FF03184040EA0220034A76
:1019C00010430860704700000CED00E00000FA05CD
:1019D0002B492C4B0A6832214A432B4940B1B0F5C0
:1019E000007F086829D020F4C06040F480602CE0BB
:1019F0000868C0F34120022804D051F8800F20F479
:101A0000807022E0D1F8800020F48070C1F880005E
:101A1000086820F4C06040F400700860B2FBF3F086
:101A2000401C00E0401E4A69520501D50028F9D14A
:101A3000486940050AD503207047C0F341200228B9
:101A400006D051F8800F40F4807008600020704785
:101A5000D1F8800040F48070C1F88000086820F45C
:101A6000C06040F400700860B2FBF3F0401C00E07E
:101A7000401E4A695205DBD50028F9D1D8E700009D
:101A80003000002040420F00007000400248816892
:101A900041F4804181607047007000402DE9F843B7
:101AA000044600680026BB4D00035ED5A86D0027E4
:101AB000C00008D4A86D40F08050A865A86D01272B
:101AC00000F080500090DFF8D092D9F8001041F477
:101AD0008071C9F80010FFF7C9FB804606E000BF1F
:101AE000FFF7C4FBA0EB080002282BD8D9F80000B0
:101AF000C005F5D5D5F8900010F4407014D0216DD4
:101B0000814211D0D5F89000D5F8901020F44070A3
:101B100041F48031C5F89010D5F8901021F480314F
:101B2000C5F89010C5F89000C00711D0FFF79EFBD4
:101B3000804641F2883907E0FFF798FBA0EB0801E7
:101B4000494501D903260BE0D5F890008007F3D56D
:101B5000D5F89000216D20F440700843C5F890003E
:101B60001FB1A86D20F08050A8652078C00707D06D
:101B7000D5F88800616820F003000843C5F88800A4
:101B80002078800707D5D5F88800A16820F00C00E0
:101B90000843C5F888002078400707D5D5F88800A5
:101BA000E16820F030000843C5F88800207800077D
:101BB00007D5D5F88800216920F0C0000843C5F892
:101BC00088002078C00607D5D5F88800616920F420
:101BD00040700843C5F888002078800607D5D5F8FE
:101BE0008800A16920F440600843C5F88800207887
:101BF000400607D5D5F88800E16920F44050084335
:101C0000C5F888002078000607D5D5F88800216A35
:101C100020F440400843C5F888002088C00507D557
:101C2000D5F88800616A20F440300843C5F8880080
:101C30002068800307D5D5F89C00A16A20F0030036
:101C40000843C5F89C002088800507D5D5F8880092
:101C5000E16A20F440200843C5F888002088400548
:101C60000FD5D5F88800216B20F440100843C5F843
:101C70008800206BB0F5801F03D1E86840F4801025
:101C8000E860208800050FD5D5F88800616B20F446
:101C900040000843C5F88800606BB0F5800F03D1A1
:101CA000E86840F48010E8602088C0040FD5D5F8BB
:101CB0008800A16B20F040700843C5F88800A06B35
:101CC000B0F1807F03D1E86840F48010E86020889C
:101CD0004FF0006180040ED5D5F88800E26B20F04B
:101CE00040601043C5F88800E06B884203D1E86883
:101CF00040F48010E860208840040ED5D5F88800B4
:101D0000226C20F040601043C5F88800206C8842A7
:101D100003D1E86840F48010E860208800040FD503
:101D2000D5F88800616C20F040500843C5F8880061
:101D3000606CB0F1805F03D1E86840F48030E86007
:101D40002068C0030FD5D5F88800A16C20F0404072
:101D50000843C5F88800A06CB0F1804F03D1E86853
:101D600040F48030E860206840030FD5D5F89C002F
:101D7000E16C20F440100843C5F89C00E06CB0F51D
:101D8000001F03D1E86840F48010E8603046BDE8E9
:101D9000F883000000100240007000402DE9F04779
:101DA0000E4605004FF0000725D0DFF8AC81D8F8CB
:101DB000000000F00F00B0420CD2D8F8001021F063
:101DC0000F013143C8F80010D8F8000000F00F00F0
:101DD000B04210D12968614CC80741F2883A5AD004
:101DE0006868DFF87C91032808D0022820682DD08D
:101DF000400500282CDB0120BDE8F0872068800129
:101E0000F9D5E06800F00302E068C0F30310401C5D
:101E1000032A19D0534A00BFB2FBF0F0E268C2F3C4
:101E200006225043E268C2F34162521C5200B0FBEA
:101E3000F2F0484517D9A06810F0F00F0CD08807D1
:101E400011D5A86840B10EE0474AE5E78003D0E726
:101E500000F0D6F8484506D9A06820F0F00040F020
:101E60008000A0608027A068696820F00300084314
:101E7000A060FFF7FBF9814606E000BFFFF7F6F927
:101E8000A0EB090151453AD8A068696800F00C0040
:101E9000B0EB810FF2D12868810714D5400703D534
:101EA000A06840F4E060A0602878000705D5A0682D
:101EB00020F4605040F4E060A060A068A96820F0C1
:101EC000F000084304E0802F03D1A06820F0F00068
:101ED000A060D8F80010404601F00F01B14216D9B9
:101EE000016821F00F0131430160FFF7BFF9074698
:101EF00007E000BFFFF7BAF9C11B514501D9032024
:101F00007AE7D8F8000000F00F00B042F2D128784C
:101F1000400705D5A068E96820F4E0600843A060A8
:101F20002878000706D5A068296920F4605040EAA7
:101F3000C100A06000F064F8A1680C4AC1F303116D
:101F4000515C01F01F01C840094908600948006858
:101F5000BDE8F047FFF79ABC0020024000100240A5
:101F600000B4C4040024F400001BB7003864000867
:101F700030000020240000200F2202600C4A9368E9
:101F800003F003034360936803F0F00383609368F6
:101F900003F4E063C36092684FF4E06303EAD202A3
:101FA00002610448006800F00F00086070470000FC
:101FB0000010024000200240054806490068896878
:101FC000054AC1F30221515C01F01F01C84070476E
:101FD000300000200010024048640008054806490F
:101FE00000688968054AC1F3C221515C01F01F01F4
:101FF000C8407047300000200010024048640008CC
:10200000184910B58868C0F381021748012A0BD01F
:102010008A68164BC2F38102022A06D08A68C2F38C
:102020008102032A03D0002010BD184610BDCA68E3
:1020300002F00304CA68C2F30312521C032C02D03C
:10204000B0FBF2F001E0B3FBF2F0CA68C968C2F37A
:1020500006225043C1F34161491C4900B0FBF1F035
:1020600010BD0000001002400024F400001BB70067
:102070002DE9F84304007AD02078F84DC00747D006
:10208000A868E96800F00C0001F003010C2802D0F8
:10209000082817D001E0032914D06068B0F5803F0C
:1020A00017D0B0F5A02F286817D020F48030286012
:1020B000286820F4802028606068E0B1FFF7D6F837
:1020C000064614E02868800322D560680028D2D034
:1020D0001EE0286840F48030EDE740F4802028605E
:1020E000F7E700BFFFF7C2F8801B642870D82868A4
:1020F0008003F7D50CE0FFF7B9F8064605E000BF0E
:10210000FFF7B4F8801B6428F0D828688003F7D460
:10211000207880074CD5A868E96800F00C0001F031
:1021200003010C2802D004280DD001E002290AD0B6
:10213000E068002828682BD040F480702860FFF702
:1021400095F8064619E02868400502D5E0680028A1
:1021500091D06868217C20F0FE4040EA0160686010
:10216000BF480068FFF792FB002800D120E072E131
:10217000FFF77CF8801B0228B8D828684005F7D5FF
:102180006868217C20F0FE4040EA016068600FE052
:1021900020F480702860FFF769F8064605E000BF6C
:1021A000FFF764F8801B0228A0D828684005F7D400
:1021B0002078000729D560690028D5F8940013D04D
:1021C00040F00100C5F89400FFF750F8064606E01D
:1021D00090E000BFFFF74AF8801B022886D8D5F8A8
:1021E00094008007F6D510E020F00100C5F89400B7
:1021F000FFF73CF8064604E0FFF738F8801B02289A
:1022000078D8D5F894008007F6D42078400761D5B7
:10221000A86D0026C00008D4A86D40F08050A865C5
:10222000A86D012600F0805000908E480168C90515
:1022300011D40168804641F480710160FFF716F8FF
:10224000074604E0FFF712F8C01B022852D8D8F85E
:102250000000C005F6D5A068012815D00528D5F8DE
:10226000900016D020F00100C5F89000D5F890003D
:1022700020F00400C5F89000A06841F28838B8B199
:10228000FEF7F4FF07460EE0D5F8900040F001009D
:10229000F0E740F00400C5F89000F5E7FEF7E6FF30
:1022A000C11B414526D8D5F890008007F6D50CE033
:1022B000FEF7DCFF074604E0FEF7D8FFC11B4145EF
:1022C00018D8D5F890008007F6D41EB1A86D20F07C
:1022D0008050A8652078800629D5A0690028D5F807
:1022E000980013D040F00100C5F89800FEF7BEFF3B
:1022F000064606E075E000BFFEF7B8FF801B022827
:102300006FD8D5F898008007F6D510E020F00100CE
:10231000C5F89800FEF7AAFF064604E0FEF7A6FF00
:10232000801B02285DD8D5F898008007F6D4E069B4
:10233000F0B3A968C1F3810103295DD002282868A0
:1023400020F08070286003D0FEF790FF04464BE039
:10235000FEF78CFF064604E0FEF788FF801B02288C
:102360003FD828688001F7D4F4E908016FF00F0224
:1023700002EB01110843218A5204490802EB415142
:10238000A26841EA02210843217D4FF07E424908BC
:1023900002EB41610843217B40EAC160E968324AAF
:1023A00011400843E860286840F08070286000E031
:1023B0005EE0E86840F08070E860FEF757FF044692
:1023C00005E000BFFEF752FF001B022809D828686D
:1023D0008001F7D54CE000BFFEF748FF001B022844
:1023E00002D90320BDE8F88328688001F4D4E868A6
:1023F0001E490840E8603BE00128F3D0E868226A03
:1024000000F00301914226D1616A00F0F002090157
:10241000103991421FD1A26A00F4FE41B1EB022FA4
:1024200019D194F82C2000F07841B1EBC26F12D191
:10243000218E00F4C00249084905A1F5001191421E
:1024400009D194F8341000F0C06049084906A1F1A0
:10245000007181420CD00120C4E70000001002404E
:1024600024000020007000400C809F01FCFFEEFE65
:102470000020B7E7704770477047000030B590F80C
:102480003C20012A45D0012280F83C20CA688B6894
:1024900022F440721A434B6822F480621A430B689C
:1024A00022F400621A430B6922F480521A434B69EA
:1024B00022F400521A430B6B22F480421A430B8B16
:1024C00022F4702242EA0342CB6922F080521A437E
:1024D000114D03680024AB4205D0104DAB4202D031
:1024E0000F4DAB4210D10D8D22F4700242EA05521D
:1024F0000D6A22F080722A434D6A22F000722A434C
:10250000C96A22F000520A435A6480F83C40002015
:1025100030BD022030BD0000002C014000340140DD
:10252000005001407047704770470000F0B590F8C8
:102530003C20012A43D0012580F83C50022280F83B
:102540003D2003685A689C681E4E1F4FDFF87CC010
:10255000B34203D0BB4201D0634504D122F4700ED4
:102560004A6842EA0E02DFF868E002EA0E02D1F899
:1025700000E04EEA020EC3F804E00268B24212D054
:10258000B2F1804F0FD0134B9A420CD0124B9A42AB
:1025900009D0124B9A4206D0BA4204D0104B9A424C
:1025A00001D0624504D1896824F080031943916009
:1025B00080F83D50002180F83C100846F0BD022014
:1025C000F0BD0000002C01400034014000500140EB
:1025D0008FFFFFFD0004004000080040000C004099
:1025E00000400140704710B5040003D094F83D004E
:1025F00010B107E0012010BD002084F83C00204607
:1026000000F022F8022084F83D00211D206801F02E
:10261000A7FC012084F8480084F83E0084F83F00BD
:1026200084F8400084F8410084F8420084F84300B4
:1026300084F8440084F8450084F8460084F8470094
:1026400084F83D00002010BD10B586B0044614216A
:102650006846FDF787FE21681B48B1F1804F0CD01A
:102660001A4A914207D1016E41F400510166006E91
:1026700000F40050059006B010BD816D41F00101DD
:102680008165816D01F001010591C16C41F002018C
:10269000C164C06C694600F00200059008200090FB
:1026A000022001900020029003900120049008482D
:1026B000FEF7AEFC002208211C20FFF757F91C2072
:1026C000FFF746F9D7E70000001002400034014050
:1026D0000004004890F83D10012901D00120704706
:1026E000022180F83D100168CA6842F00102CA6008
:1026F00000681349884214D0B0F1804F11D01149BD
:1027000088420ED0104988420BD01049884208D028
:102710000F49884205D00F49884202D00E498842AD
:1027200007D181680D4A1140062906D0B1F5803FD6
:1027300003D0016841F001010160002070470000F2
:10274000002C01400004004000080040000C004044
:1027500000340140004001400050014007000100EA
:1027600070B5044690F83C00002501281CD00126D5
:1027700084F83C60022084F83D0022689068334B66
:10278000184020F47F4090600868B0F5005F2ED0BC
:1027900016DC402849D009DCD0B1102818D02028F8
:1027A00016D0302849D113E0022070BD50282AD01D
:1027B000602830D070280FD0B0F5805F3DD13DE06B
:1027C00010F00F0F39D10111A1F58031072934D84C
:1027D00022680146104625E0CB68D1E90121206836
:1027E00001F03DFC2068816841F0770109E0CB6889
:1027F000D1E90121206801F032FC2068816841F4B0
:10280000804181601AE0CA684968206801F0FCFDD7
:102810005021206806E0CA684968206801F046FE39
:102820006021206801F026FC08E0CA684968206839
:1028300001F0EAFD40212068F4E7012584F83D60BD
:10284000002084F83C00284670BD000088FFCEFFC1
:102850002DE9F0410068B0F1804F53D12A4C206837
:10286000C068C04380074DD4DFF8A08008214046EF
:10287000FEF7F2FC0026264D012708B1E87828B1C2
:1028800008214046FEF7E8FC60B10DE0EF702068DB
:10289000016A21F0A00101622068016A41F0200173
:1028A000016229E0287940B108214046FEF7D4FCB6
:1028B00020B3287901280FD020E00421124800F02D
:1028C000CDFB68612068016A21F0A00101622068E7
:1028D000016A01622F7111E004210B4800F0BEFB78
:1028E00028612068016A21F0A00101622068016A64
:1028F00041F0200101622E712068466221686FF06C
:1029000004000861BDE8F0816C0300200004004869
:10291000B80000202DE9F041054690F83C00002663
:102920000C46012810D0012085F83C0072B1042A21
:102930001CD0082A2CD00C2A50D00126002085F863
:102940003C003046BDE8F0810220FBE7D4E90012EC
:10295000E368286801F06AFD2868816921F00C01AC
:10296000816128688169A26811430FE0D4E90012EF
:10297000E368286801F0ACFD2868816921F44061B2
:10298000816128688169A26841EA02218161D5E7F5
:102990002868D4E9002C277B036A016A21F480713E
:1029A0000162C16923F4206321F0030141EA0C01B3
:1029B00021F0F00C39074FF420674CEA116107EA67
:1029C00002221A43C16102622868C16921F00C0128
:1029D000C1612868C169A26811432BE02868D4E965
:1029E0000021E768036AD0F820C02CF4805CC0F8AE
:1029F00020C0D0F81CC023F420432CF4407C4CEAC7
:102A0000012121F4704C4FF6FF7101EA07314FF4B8
:102A1000204741EA0C0107EA02321A43C16102620F
:102A20002868C16921F44061C1612868C169A26850
:102A300041EA0221C16181E710B5040003D094F896
:102A40003D0010B107E0012010BD002084F83C00DB
:102A5000204600F022F8022084F83D00211D206865
:102A600001F07EFA012084F8480084F83E0084F8E2
:102A70003F0084F8400084F8410084F8420084F864
:102A8000430084F8440084F8450084F8460084F844
:102A9000470084F83D00002010BD704710B5044683
:102AA00079B1042912D0082915D00C2918D0102981
:102AB00019D094F8430000BF94F84720012817D19B
:102AC00014E094F83E0094F84420F7E794F83F00AF
:102AD00094F84520F2E794F8400094F84620EDE79A
:102AE00094F84100E8E794F84200E5E7012A01D0B4
:102AF000012010BD0220B1B304293AD008293DD0ED
:102B00000C2940D0102941D084F8430084F84700B4
:102B10000122206801F096FA1E492068884214D0EC
:102B2000B0F1804F11D01C4988420ED01B49884219
:102B30000BD01B49884208D01A49884205D01A494F
:102B4000884202D01949884207D18168184A114049
:102B5000062906D0B1F5803F03D0016841F001019C
:102B60000160002010BDFFE784F83E0084F84400B7
:102B7000CEE784F83F0084F84500C9E784F84000B8
:102B800084F84600C4E784F84100BFE784F84200B7
:102B9000BCE70000002C0140000400400008004099
:102BA000000C004000340140004001400050014052
:102BB000070001002DE9F04104460068C668056978
:102BC0004FF00007A90713D5B10711D5F91E016110
:102BD00001202077206880698007204602D0FFF717
:102BE00037FE04E000F0E0F8204600F0A2F9277775
:102BF000680716D5700714D521686FF004000861C6
:102C0000022020772068806910F4407F204602D09F
:102C1000FFF71EFE04E000F0C7F8204600F089F937
:102C20002777280715D5300713D521686FF00800DE
:102C30000861042020772068C0698007204602D000
:102C4000FFF706FE04E000F0AFF8204600F071F94F
:102C50002777E80616D5F00614D521686FF0100026
:102C60000861082020772068C06910F4407F204662
:102C700002D0FFF7EDFD04E000F096F8204600F0EA
:102C800058F92777E80708D0F00706D021686FF0D9
:102C900001000861204600F0D7F9280601D4A804F5
:102CA00008D5300606D521686FF402500861204629
:102CB000FFF7E1FBE80508D5300606D521686FF47B
:102CC000807008612046FFF7D5FB680608D57006BE
:102CD00006D521686FF040000861204600F0D3F966
:102CE000A80608D5B00606D521686FF02000086157
:102CF0002046FFF7C1FBE80208D5F00206D521689F
:102D00006FF4801008612046FFF70DFCA80208D57B
:102D1000B00206D521686FF4001008612046FFF765
:102D200001FC680208D5700206D521686FF48000A6
:102D300008612046FFF7F8FB28020AD5300208D5C3
:102D400021686FF4000008612046BDE8F041FFF7FC
:102D500049BCBDE8F081000010B586B004461421DE
:102D60006846FDF7FFFA0E492068884216D10D48E3
:102D7000C16C41F00101C164C06C002100F0010090
:102D800005904FF4004000900220CDE90101CDE90B
:102D9000031069464FF09040FEF73AF906B010BDB7
:102DA0000034014000100240704770B5044690F8AE
:102DB0003C0000260D4601280BD0012084F83C0081
:102DC0000C2A4AD007DC82B1042A20D0082A06D176
:102DD00031E0022070BD102A53D0142A63D001269E
:102DE000002084F83C00304670BD206801F04CF9AA
:102DF0002068816941F0080181612068816921F0C2
:102E000004018161206881692A69114311E0206809
:102E100001F090F92068816941F4006181612068C6
:102E2000816921F480618161206881692A6941EAB0
:102E300002218161D4E7206801F0CCF92068C169E2
:102E400041F00801C1612068C16921F00401C1613C
:102E50002068C1692A69114311E0206801F00AFA6B
:102E60002068C16941F40061C1612068C16921F431
:102E70008061C1612068C1692A6941EA0221C1619A
:102E8000AEE7206801F046FA2068016D41F00801C4
:102E900001652068016D21F0040101652068016D64
:102EA0002A69114311E0206801F070FA2068016D71
:102EB00041F4006101652068016D21F480610165C4
:102EC0002068016D2A6941EA0221016588E710B591
:102ED000040003D094F83D0010B107E0012010BDBC
:102EE000002084F83C00204600F022F8022084F8FC
:102EF0003D00211D206801F033F8012084F84800CE
:102F000084F83E0084F83F0084F8400084F84100D3
:102F100084F8420084F8430084F8440084F84500B3
:102F200084F8460084F8470084F83D00002010BD76
:102F30007047704770B50446022269B1042912D067
:102F4000082917D00C291CD0102921D094F843004F
:102F5000012824D0012070BD94F83E000128F9D149
:102F600084F83E201DE094F83F000128F2D184F857
:102F70003F2016E094F840000128EBD184F840206F
:102F80000FE094F841000128E4D184F8412008E0E2
:102F900094F842000128DDD184F8422001E084F851
:102FA00043200122206801F04DF81D4920681D4A88
:102FB0001D4B1E4D88420BD0904209D0984207D03D
:102FC0001B4EB04204D01B4EB04201D0A84203D1E8
:102FD000466C46F4004646642068884211D0B0F141
:102FE000804F0ED0144988420BD01449884208D033
:102FF0001349884205D0904203D0984201D0A8429C
:1030000007D181680F4A1140062906D0B1F5803FEB
:1030100003D0016841F001010160002070BD000093
:10302000002C0140003401400040014000500140AC
:1030300000440140004801400004004000080040F6
:10304000000C00400700010000680349884201D1DC
:10305000FEF704BC70470000002C0140024600202F
:1030600041B1042909D008290AD00C2901D11068DE
:10307000006C70471068406B70471068806B704739
:103080001068C06B7047704790F88410012918D001
:10309000012180F884102421C0F8881001680A6892
:1030A0000B6823F001030B6022F0005100224266FE
:1030B000036819602021C0F8881080F88420104629
:1030C00070470220704770B5044690F884000128CC
:1030D0001DD0012084F884002420C4F888002068D2
:1030E0000568026822F0010202602068826822F00E
:1030F00060620A438260204601F006FA206805609B
:103100002020C4F88800002084F8840070BD0220CC
:1031100070BD70B5044690F8840001281DD00120D0
:1031200084F884002420C4F88800206805680268B8
:1031300022F0010202602068826822F060420A43A5
:103140008260204601F0E0F9206805602020C4F884
:103150008800002084F8840070BD022070BD10B586
:10316000040003D0D4F8880010B107E0012010BD9E
:10317000002084F88400204600F026F82420C4F8BB
:1031800088002068016821F001010160A06A10B187
:10319000204601F0DBF9204601F0BCFA0128E6D018
:1031A0002068416821F4904141602068816821F0E5
:1031B0002A0181602068016841F001010160204618
:1031C000BDE8104001F026BA2DE9F0419CB004465C
:1031D000142115A8FDF7C6F854216846FDF7C2F87A
:1031E00034492068344C0226DFF8D08004270025BB
:1031F000884234D11020059500906846FEF74EFCB9
:1032000008B1FDF75CFAA06D40F48010A065A06DD8
:1032100000F480101A90E06C40F00400E064E06C70
:1032200000F004001A90E06C40F00800E064E06CEC
:10323000052400F008001A904FF48050CDE916657F
:10324000CDE91854159015A94046FDF7E1FECDE9EA
:103250001665CDE91854159715A9194824E01949A0
:10326000884223D1684600970395FEF717FC08B102
:10327000FDF725FAA06D40F48020A065A06D00F454
:1032800080201A90E06C40F00400E064E06CCDE92E
:10329000166500F004001A904FF440601590072066
:1032A000CDE9185015A94046FDF7B2FE1CB0BDE8A7
:1032B000F08100000050004000100240000800486B
:1032C000000C004800480040072930D2DFE801F038
:1032D0000A10161C222804000068D0F8841341F05C
:1032E000010122E00068D0F8841341F002011CE0E3
:1032F0000068D0F8841341F0040116E00068D0F8AB
:10330000841341F0080110E00068D0F8841341F004
:1033100010010AE00068D0F8841341F0200104E0B5
:103320000068D0F8841341F04001C0F8841370475E
:1033300070B503681A68D3F8A0534C6922F02002D4
:103340002646144324F0C002202E2BD08C69022C78
:1033500028D0032C2BD0042C2ED022F0E00200BF6A
:1033600022F40064CA69224322F480640A6A224378
:1033700022F0C0644A6A224322F000648A6A22432F
:10338000CC6A22F0404242EA840222F000544A6BA6
:10339000096B224325F4803421431A600068C0F889
:1033A000A01370BD22F0C00242F02002D8E722F044
:1033B000800242F04002D3E722F0400242F0800255
:1033C000CEE7F0B50024E426056806EBC11755F8F2
:1033D00007C0B82606EBC116AE59402A20D00EDC35
:1033E000082A2CD006DC012A1AD0022A27D0042A67
:1033F00031D115E0102A13D0202A2CD11FE0B2F5CC
:10340000007F1CD005DC802A19D0B2F5807F22D144
:1034100006E0B2F5806F03D0B2F5006F1BD10EE06D
:103420004FF0BC0E0EEBC11E5A6845F80E204FF04F
:10343000C00E05680EEBC1119A686A500BE0C424F7
:1034400004EBC1145A682A51C825046805EBC11160
:103450009A6862501024FE21A1401A682CEA010CDF
:10346000A240D96842EA0C02A14011431A69D3F87C
:1034700014C01546A2400A430CFA04FC99694CEAB0
:10348000020CA14041EA0C01082D06D1B20504D47A
:10349000B20102D4DA69A24011430068C151F0BD03
:1034A0002DE9F04F8024036804EBC117DC5924F0A8
:1034B0007044DC510568EC59E82303EBC1139E46C8
:1034C00055F803C0E42303EBC1139B4655F803A052
:1034D000D5F8A033566924F020043443202E24D09C
:1034E0009669022E21D0032E24D0042E27D024F456
:1034F000D07400BF24F40066D469344324F4806699
:10350000146A344324F0C066546A344324F00066DD
:10351000946A344324F07046D46A3443566B24F4DE
:103520000034B6F1005F0FD010E024F4C07444F012
:103530002004DFE724F4807444F08004DAE724F008
:10354000800444F48074D5E744F4003424F0400847
:10355000946B2CF03F0C264644EA080424F480289F
:10356000946D44EA0804DFF8D08004EA0804D2F835
:10357000508048EA040992F83C40D2F8408004F0B8
:103580003F0444EA0C0424F0004448EA0408546C64
:103590002AF4807C44EA0C04D2F848C0BCF5606F81
:1035A00002D0BCF5F05F01D1402E03D124F4F054D9
:1035B0004CEA040424F48046D46C3443566D062946
:1035C00027D2DFE801F003090F151B21126B23F44A
:1035D000003343EA42031CE0126B23F4802343EAE6
:1035E000820316E0126B23F4002343EAC20310E0C7
:1035F000126B23F4801343EA02130AE0126B23F4E4
:10360000001343EA421304E0126B23F4800343EAFD
:10361000821345F80790056845F80E80056845F85F
:103620000B40D424026804EBC11156500068C0F866
:10363000A033BDE8F08F0000FFFF06FEFEE700EBC1
:103640008100006E00F0F84070478068C0F3C00051
:1036500070478068C0F3800070478068C0F38000C6
:103660007047042303EAD15310B518444369C1F3EA
:10367000045107248C40A3438A401343436110BD87
:1036800000EB8100016E21F000411143016670479B
:1036900030B58BB0002408940994202168460A9420
:1036A000FCF760FE1D484FF0A041042501604FF477
:1036B0004031C0E90114C4600461C0E905450477E4
:1036C00044770121016280F82440C462046380F8D9
:1036D0003840C46380F84040FDF7DAFA08B1FCF7DF
:1036E000EEFF08A90D480894FCF7ECFF08B1FCF7C1
:1036F000E6FF0B48009006200190072002907F20F3
:103700000594CDE9030569460448FDF78BF80028C8
:1037100001D0FCF7D4FF0BB030BD000098010020B1
:103720000200300430B589B020216846FCF71AFE4B
:1037300019481849002401604FF44031C0E90114D0
:10374000C46004250461C0E905450477447701217C
:10375000016280F82440C462046380F83840C46386
:1037600080F84040FDF794FA08B1FCF7A8FF0B4839
:1037700000900620CDE901047F200594CDE90305E2
:1037800069460548FDF74EF8002801D0FCF797FF81
:1037900009B030BD00010050040200200080F03E5E
:1037A0001CB505490120CDE900010023322203A107
:1037B000054802F01FFC1CBD0400002073746172F8
:1037C000745F7461736B00004D54000870B586B06F
:1037D00014216846FCF7C6FD2D48C16C41F0040178
:1037E000C164C16C01F004010591C16C41F020017C
:1037F000C164C16C01F020010591C16C41F001016F
:10380000C164C16C01F001010591C16C41F002017C
:10381000C164C16C01F002010591C16C41F0080165
:10382000C164C06C012200F0080095024FF0904680
:10383000059029463046FDF714FD0022E021304670
:10384000FDF70FFD00244FF44050CDE90004694618
:1038500010480294FDF7DCFB00950125CDE90254E8
:10386000694630460195FDF7D3FBE020CDE9000520
:10387000CDE9025469463046FDF7CAFB1020CDE978
:103880000004694604480294FDF7C2FB06B070BD0F
:103890000010024000040048000800482DE9F043F1
:1038A000B5B000242E942F9430941C2127A8319475
:1038B000FCF758FD60216846FCF754FD32943394C0
:1038C000202118A83494FCF74DFD1C2120A8FCF7FA
:1038D00049FD5E485C49C0E900148460FDF75AFD6B
:1038E00008B1FCF7ECFE0C215848FDF722FD08B1A9
:1038F000FCF7E5FE0A215548FDF7C0FD08B1FCF7CD
:10390000DEFE02274FF004092097CDE9219401261D
:103910008020CDE92406239420A94C482696FDF763
:10392000ABFC08B1FCF7CBFEDFF8248108252EAAFA
:10393000B8F80000CDE92E0400214448CDE9304517
:10394000FDF7E2FD08B1FCF7BAFE29942A9427AAF4
:1039500000213E4827962D94FDF73EFF08B1FCF765
:10396000AEFE4AF6802200213848FDF7A8FD08B1D6
:10397000FCF7A5FE009401940294CDE9034605945A
:10398000069407944FF000600894CDE90940C012F6
:10399000CDE90B404003CDE90D040F941094119430
:1039A00012941494159416946A460021274817948B
:1039B000FDF7CAFE08B1FCF782FEB8F8000032AB92
:1039C00050383290012200212048FDF7DAFD08B17D
:1039D000FCF775FE5020329032AB042200211B48C8
:1039E000FDF7CFFD08B1FCF76AFECDE91875CDE90A
:1039F0001A541C941D941E9418AB012200211348E4
:103A00001F94FDF76EFE08B1FCF759FE2020CDE9AA
:103A10001840CDE91A091C9518AB022200210B4869
:103A2000FDF75FFE08B1FCF74AFE00F009FA03213A
:103A30000648FDF771FE4FF400310448FDF73BFEE8
:103A400035B0BDE8F083000000680140700200203E
:103A50000200002010B58CB0002405942348049483
:103A60000694079408940A9409940094019402948B
:103A70004FF0804103940160A921C0E901144FF681
:103A8000FF71C0E903148461FEF7ADFD08B1FCF7D6
:103A900016FE4FF48050049004A91448FEF760FE0F
:103AA00008B1FCF70CFE1148FEF7C6FF08B1FCF7A1
:103AB00006FE2020089008A90A940C48FEF736FD5F
:103AC00008B1FCF7FCFD0120CDE90040029404227E
:103AD000694606480394FEF71DFF08B1FCF7EFFDA9
:103AE00004210248FEF7DAFF0CB010BD6C03002081
:103AF00030B59BB0002419941A9417941894149418
:103B000015941C210DA81694FCF72CFC3421684652
:103B1000FCF728FC2E482D4941F68F25C0E90014FA
:103B2000C0E9024580210461C0E90541FEF75BFD63
:103B300008B1FCF7C4FD4FF48050179017A9244832
:103B4000FEF70EFE08B1FCF7BAFD2148FFF7BFF9FA
:103B500008B1FCF7B4FD1494159414A91C481694EC
:103B6000FEF7E4FC08B1FCF7AAFD6020CDE90E5495
:103B70000D9010941194129400220DA914481394DE
:103B8000FFF713F908B1FCF79AFD00944FF40050C9
:103B9000CDE9044003940003CDE908400194029468
:103BA000069407940A940B94694609480C94FEF70E
:103BB00065FC08B1FCF783FD0548FFF7CDF800214F
:103BC0000348FFF7B7F91BB030BD000000340140D7
:103BD000B8030020184810B5164901604FF416517B
:103BE0004160002181600C22C160C0E90412816142
:103BF000C161016241628162FFF7B1FA08B1FCF76D
:103C00005EFD00210C48FFF784FA08B1FCF757FD70
:103C100000210948FFF757FA08B1FCF750FD0648A4
:103C2000FFF732FA002803D0BDE81040FCF747BD8B
:103C300010BD00000050004004040020184810B5DA
:103C4000164901604FF4E1314160002181600C228E
:103C5000C160C0E904128161C16101624162816297
:103C6000FFF77DFA08B1FCF72AFD00210C48FFF7A9
:103C700050FA08B1FCF723FD00210948FFF723FAA9
:103C800008B1FCF71CFD0648FFF7FEF9002803D039
:103C9000BDE81040FCF713BD10BD00000048004017
:103CA00098040020FEE7FEE770B51B4886B0C16CA3
:103CB00041F00201C164C06C4FF4005500F00200F5
:103CC000059001200024CDE90050CDE90204134EF7
:103CD00069463046FDF79CF9012229463046FDF73A
:103CE000C0FA1020CDE9000402940D4C694620462C
:103CF000FDF78EF9012220212046FDF7B2FA0022BD
:103D000029463046FDF7ADFA012251022046FDF763
:103D1000A8FA06B070BD000000100240000800487C
:103D200000040048642001F01DFD00F001F8F9E7EF
:103D300070B510211448FDF78FFA144E144D154933
:103D4000012240B100240C704A7088780A2812D2EF
:103D5000401C887070BD0A708A704878052802D2AD
:103D6000401C487070BD30780028FBD1287D0028A9
:103D7000F8D12A7570BDFCF783FC074804706C7499
:103D8000FCF790FC347070BD000800480000002073
:103D9000D8000020B80000200100002004490020C5
:103DA000086048608860C860024948748874704739
:103DB000FC000020D800002010B5FCF74DFB41ECC2
:103DC000100B53EC102B9FED050B51EC100BFCF777
:103DD000D4FAFCF74EFB80B210BD000000000000DA
:103DE000FD43E44100B587B0FFF758FD1248C16CB0
:103DF00041F00101C164C06C142100F00100059084
:103E00006846FCF7AFFA00210C48FDF774FA4FF44E
:103E1000FA70FDF7EBF84FF440700090022001902B
:103E20000290002003900D20049069464FF09040CE
:103E3000FDF7EEF807B000BD001002407002002050
:103E400030B587B014216846FCF78CFA1748C16C6E
:103E500041F00101C164C06C4FF4407400F00100F6
:103E600005900120CDE900400020029003204FF092
:103E70009045039069462846FDF7CAF8002221467E
:103E80002846FDF7EEF90A4844F694310268C2F874
:103E90009C1000685021C0F8A81001210448FDF7CB
:103EA0002AFA6420FDF7A2F807B030BD00100240E6
:103EB0007002002010B54FF0E020006902F0F2F827
:103EC000012803D0BDE8104001F0F4BD10BD10B5CD
:103ED00094B038216846FCF745FA14210EA8FCF787
:103EE00041FA0020FDF774FD092000904FF4803066
:103EF00001900120059002200324CDE907045521FB
:103F0000CDE90A100C900D9009946846FEF7B0F8C0
:103F100008B172B6FEE70F20CDE90E040020109024
:103F20001190129004210EA8FDF738FF002801D04F
:103F300072B6FEE714B010BD0248016841F470018A
:103F40000160704788ED00E00148FEF733BE0000D5
:103F50002C0500200148FEF72DBE00006C03002058
:103F60002DE9F04F02682E4B2E4E2F4FDFF8BCC0CC
:103F70002F4C304D4FF0804B98420BD0584509D014
:103F8000B04207D0B84205D0604503D0A04201D06E
:103F9000A84204D122F070084A6842EA0802DFF819
:103FA0009880DFF89890DFF898A0984211D0584593
:103FB0000FD0B0420DD0B8420BD0604509D0A0421E
:103FC00007D0404505D0484503D0504501D0A84210
:103FD00003D122F44076CA6832434E6922F080024F
:103FE000324302608A68C2620A688262984209D0DB
:103FF000A04207D0404505D0484503D0504501D0E8
:10400000A84201D109690163012141610169C90720
:1040100003D0016921F001010161BDE8F08F0000CA
:10402000002C01400004004000080040000C00404B
:104030000034014000500140004001400044014074
:104040000048014010B501F01F030121046A9940A6
:104050008C430462016A9A401143016210BD10B59D
:10406000846842EA032224F47F440A4322438260A4
:1040700010BD00008268034B1A400A4342F007015A
:10408000816070478FFFCFFF2DE9F047056A026A14
:1040900022F001020262436882691F4C25F002058A
:1040A00022400C6822F0030214438A681C4E2A4303
:1040B0001A4D1C4FDFF870C0DFF87090DFF870A069
:1040C000A84209D0B04207D0B84205D0604503D01D
:1040D000484501D0504506D122F00808CA6842EA96
:1040E000080222F00402A84209D0B04207D0B84228
:1040F00005D0604503D0484501D0504505D14D69F4
:1041000023F440731D438B692B43436084614968EA
:1041100041630262BDE8F0878FFFFEFF002C014083
:10412000003401400040014000440140004801408B
:1041300000500140F0B5056A026A22F010020262E6
:10414000426883691C4C1E4E23400C6823F4407364
:1041500043EA042425F020038D681A4F43EA05132F
:10416000164DA84203D0B04201D0B84207D1D1F8D1
:104170000CC023F0800343EA0C1323F04003A84251
:104180000CD0B0420AD0104DA84207D00F4DA84223
:1041900004D00F4DA84201D0B84207D14D6922F496
:1041A000406242EA85028D6942EA8502426084618A
:1041B000496881630362F0BDFF8FFFFE002C014060
:1041C00000340140005001400040014000440140E3
:1041D00000480140F0B5056A026A22F4807202626A
:1041E0004368C2691C4C1E4E22400C6822F0030238
:1041F000144325F400728D681A4F42EA0522174DC8
:10420000A84203D0B04201D0B84207D1D1F80CC0C7
:1042100022F4006242EA0C2222F48062A8420CD00E
:10422000B0420AD0104DA84207D0104DA84204D089
:104230000F4DA84201D0B84207D14D6923F4405335
:1042400043EA05138D6943EA05134360C461496875
:10425000C1630262F0BD00008FFFFEFF002C014031
:104260000034014000500140004001400044014042
:1042700000480140F0B5056A026A22F480520262E9
:104280004268C3691C4C1E4E23400C6823F44073E3
:1042900043EA042425F400538D681A4F43EA05339A
:1042A000164DA84203D0B04201D0B84207D1D1F890
:1042B0000CC023F4004343EA0C3323F48043A842A8
:1042C0000CD0B0420AD0104DA84207D00F4DA842E2
:1042D00004D00F4DA84201D0B84207D14D6922F455
:1042E000404242EA85128D6942EA85124260C46109
:1042F000496801640362F0BDFF8FFFFE002C01409E
:1043000000340140005001400040014000440140A1
:104310000048014030B5056A026A22F48032026228
:104320004268036D124C23400C681C4325F4003393
:104330000D8943EA05430F4DA8420ED00E4DA84209
:104340000BD00E4DA84208D00D4DA84205D00D4D02
:10435000A84202D00C4DA84204D14D6922F480320B
:1043600042EA05224260046549688164036230BD07
:104370008FFFFEFF002C014000340140004001404F
:1043800000440140004801400050014030B5046A3B
:10439000026A22F4801202624268036D134D24F413
:1043A00000142B400D6843EA05230D8944EA0554A7
:1043B0000F4DA8420ED00F4DA8420BD00E4DA84273
:1043C00008D00E4DA84205D00D4DA84202D00D4D8B
:1043D000A84204D14D6922F4802242EA852242603B
:1043E00003654968C164046230BD0000FF8FFFFEB1
:1043F000002C0140003401400040014000440140D5
:10440000004801400050014010B5036A046A24F0DE
:1044100001040462846924F0F00444EA021423F0E5
:104420000A020A438461026210BD000070B5056A89
:10443000046A24F0010404628469154EB04214D069
:10444000B0F1804F11D0134EB0420ED0124EB04298
:104450000BD0124EB04208D0114EB04205D0114ED2
:10446000B04202D0104EB04203D124F003041443F2
:1044700001E044F001041A0724F0F00444EA126257
:1044800025F00A0301F00A0119438261016270BD3F
:10449000002C01400004004000080040000C0040D7
:1044A00000340140004001400050014010B5036A53
:1044B000046A24F010040462846923F0A00324F445
:1044C000704444EA023243EA01118261016210BD84
:1044D00030B5046A056A25F010050562856925F482
:1044E000407545EA022222F470454FF6FF7202EA57
:1044F000033224F0A0032A43A02404EA0111194343
:104500008261016230BD000030B5416EB9B1026810
:1045100091689268C1F342610B4B520F9C5CE500BD
:1045200003F10804A25CB5FBF2F2A0F86A205A5C21
:10453000615CD200B2FBF1F1A0F8681030BD01213E
:10454000A0F86A10F8E700002864000890F8281026
:10455000090706D501684A68836B22F400421A43B2
:104560004A6090F82810C90706D001684A68C36AF3
:1045700022F400321A434A6090F82810890706D5C1
:1045800001684A68036B22F480321A434A6090F84B
:104590002810490706D501684A68436B22F4802237
:1045A0001A434A6090F82810C90606D501688A683F
:1045B000C36B22F480521A438A6090F8281089064F
:1045C00006D501688A68036C22F400521A438A6097
:1045D00090F82810490611D501684A68436C22F406
:1045E00080121A434A60416CB1F5801F06D1016800
:1045F0004A68836C22F4C0021A434A6090F828107B
:10460000090606D501684A68C06C22F400220243FC
:104610004A6070472DE9F84300260446C0F89060D0
:10462000FCF724FE8046206800684FF02005000754
:104630006FF07E4713D54346002229042046009799
:1046400000F0B4F958B1216851E8000F20F0800063
:1046500041E80002002AF6D1C4F8885021E0206821
:104660000068400722D5434600224FF480012046CF
:10467000009700F09BF9C8B1216851E8000F20F4C1
:10468000907041E80002002AF6D12068083050E816
:10469000001F21F0010140E80012002AF5D1C4F802
:1046A0008C5084F884600320BDE8F883C4F88850F7
:1046B000C4F88C5044F86C6F666026760020F3E7EF
:1046C00010B5026852E8001F21F4907142E800130F
:1046D000002BF6D10E4B0268083252E8001F194039
:1046E00042E80014002CF6D1C16E012908D10168FE
:1046F00051E8002F22F0100241E80023002BF6D1F0
:104700002021C0F88C100021C166416710BD000057
:10471000FEFFFFEF2DE9F041044601688068226941
:10472000E3691043626900251A431043DFF84CC265
:104730000A68934B1A4002430A6020684168E268A5
:1047400021F44051114341602168A069614501D0C5
:10475000226A10438A688B4B1A4002438A602068A1
:10476000C16A626A21F00F011143C1628649236860
:1047700086488B420DD1D0F8880010F0030006D097
:10478000012867D0022854D0032851D164E00120C9
:104790004FE07F498B420BD1D0F8880010F00C001D
:1047A00047D0042845D0082852D00C2840D153E0E7
:1047B00078498B420BD1D0F8880010F0300038D007
:1047C000102847D0202843D0302831D144E0724906
:1047D0008B420BD1D0F8880010F0C00029D04028BF
:1047E00038D0802834D0C02822D135E06B498B42A4
:1047F0000ED1D0F8880010F440701AD0B0F5807F48
:1048000028D0B0F5007F23D0B0F5407F10D123E051
:1048100063450DD1D0F8880010F4406009D0B0F5A0
:10482000806F17D0B0F5006F12D0B0F5406F13D085
:1048300010205B4A5B4F00264FF40041634539D19D
:1048400060B102280DD004280DD0082831D10EE027
:104850000220EEE70420ECE70820EAE7FDF7ACFBD6
:1048600003E0114603E0FDF7CBFB01007BD0606A5B
:1048700037F810206768B1FBF2F007EB470383427B
:1048800069D8B0EB073F66D8002308461946FBF706
:104890001FFD090241EA10610202780810187141F7
:1048A0003A460023FBF714FD3F4AA0F540719142C0
:1048B00057D950E0E3694FF6EF788B422BD10928A6
:1048C00049D2DFE800F005080D48254848480E00A9
:1048D000FDF772FB01E0FDF781FB010001D142E031
:1048E0001146606A37F81000B1FBF0F041006068D3
:1048F00001EB5001B1FBF0F1A1F1100040452AD8C5
:104900004FF6F07201EA0200C1F34201084328E0C9
:10491000FDF776FBE1E709281DD2DFE800F0050886
:104920000D1C1E1C1C1C0E00FDF746FB01E0FDF7D4
:1049300055FB010001D116E01146606A37F81000FE
:10494000B1FBF0F1606801EB5001B1FBF0F0A0F1B8
:104950001001414504D9012505E0FDF751FBE8E7C9
:1049600080B22168C8600120A4F86A0024F8680FAA
:104970002846E6602661BDE8F08100000080004026
:10498000F369FFCFFFF4FF1100380140001002402F
:104990000044004000480040004C004000500040EF
:1049A0000024F40010640008FFFC0F002DE9F0471C
:1049B000994617460D4604464FF00008089E33E01E
:1049C000701C31D0FCF752FCA0EB0900B04218D8A3
:1049D000BEB120680168490726D5802D24D0402D1E
:1049E00022D0C169C94309070DD4082505622046B4
:1049F000FFF766FEC4F8905084F884800120BDE87B
:104A0000F0870320FBE7C069C04300050CD4216890
:104A10004FF4006008622046FFF752FE2020C4F8E1
:104A2000900084F88480ECE72068C06935EA0000D3
:104A300004D00020B842C3D00020E0E70120F9E70D
:104A4000FEE70907090E002804DB00F1E02080F8EA
:104A50000014704700F00F0000F1E02080F8141DF2
:104A6000704702E008C8121F08C1002AFAD1704737
:104A70007047002001E001C1121F002AFBD17047DE
:104A800030B587B014216846FBF76CFC1948C16C3F
:104A900041F00201C164C06C174D00F002000590A6
:104AA000002280212846FCF7DCFB01224021284619
:104AB000FCF7D7FB012251022846FCF7D2FB01216B
:104AC00000244FF43070CDE90214CDE900016946AD
:104AD0002846FCF79DFA2020CDE9000469462846C7
:104AE0000294FCF795FA012220212846FCF7B9FB35
:104AF00007B030BD001002400004004810B5FCF7BC
:104B0000B5FEFFF7E4F9FEF761FEFEF7C1FDFEF723
:104B100009FEFEF7EDFFFEF79DFFFFF78FF8FFF7A9
:104B200059F8FFF7ADFFFFF7BFF800F007F8FEF701
:104B300037FE00F015F8002010BD0000EFF30580EF
:104B400010B16FF0050070470448016811B14FF0D3
:104B5000FF30704701210160002070478400002071
:104B600010B5EFF3058010B16FF0050010BD0848D7
:104B70000168012902D04FF0FF3010BD054A002125
:104B800082F8141D0221016000F09CFE002010BD7F
:104B9000840000200BE000E02DE9F041134C0F46AB
:104BA0000546E6682068001D00F0A8FC681C07D1D7
:104BB00037B12168BDE8F0410D48091D00F0EEBC99
:104BC00020683544B5424560216805D2A06BBDE838
:104BD000F041091D00F0CABC606B091D00F0C6FC65
:104BE000A06A854200D2A562BDE8F08134000020B1
:104BF000680A00202DE9F041054600F0DBFC2D4C51
:104C0000A068401CA06020682B4F10B1606930B3D1
:104C10002BE02560A068012827D1002606EB86003E
:104C200007EB800000F094FC761C382EF6D3234866
:104C300000F08EFC2148143000F08AFC1F48283018
:104C400000F086FC1D483C3000F082FC1B485030D0
:104C500000F07EFC194860631430A06305E0206812
:104C6000E96AC06A884200D82560606A401C6062B8
:104C70006864E86A2169884200D9206100EB8000FD
:104C800007EB8000291D00F089FC00F0B3FC60698F
:104C900000280CD02068E96AC06A884207D2084917
:104CA0004FF080500860BFF34F8FBFF36F8FBDE8A8
:104CB000F081000034000020B8050020180A002010
:104CC00004ED00E038B500F075FC104C2068C8B960
:104CD0000F4800F03DFC0E48143000F039FC0C4841
:104CE000E060143020610A4B0020F03B009003F19B
:104CF000500210210A2000F01FFF206010B105A112
:104D000000F0FAFCBDE8384000F074BC70000020F0
:104D10006C0B0020546D72510000000030B4026C26
:104D20000B46002A0BD0C1681144C1608468A142BF
:104D300001D30168C16030BC1846FBF7FABA30BC39
:104D400070472DE9F041856B174604460026026C3A
:104D500082B1C7B1E068FBF7ECFAE168206C091A90
:104D6000E1602268914202D2A168081AE060022F35
:104D700016D017E02068A8B9A06801F00BFA064623
:104D80000020A0600EE06068FBF7D3FA216C606839
:104D900008446060A168884204D32068606001E034
:104DA00005B16D1E6D1CA5633046BDE8F08110B5E0
:104DB000044690F8590058B101280CD002280FD0B1
:104DC000502080F31188BFF34F8FBFF36F8FFEE742
:104DD000206B00F023FC2046BDE8104000F01EBC14
:104DE00010BD000010484FF40051420706D0C01D0E
:104DF0000D4920F00700411AC1F500510B4A00236C
:104E00000144C2E900030839183A21F00701116092
:104E10004B600B600B1AC0E9001393604FF0004029
:104E200053605061704700004C120020A000002029
:104E3000144E154CA6F29C474FF08058DFF84C906A
:104E400012E000BF00F0B6FBF068C568281D00F056
:104E500055FBA068401EA0606068401E606000F0C6
:104E6000C9FB2846FFF7A3FF60680028EAD138682D
:104E70000128F9D9C9F80080BFF34F8FBFF36F8FB6
:104E8000F2E70000540A00203400002004ED00E0A6
:104E9000002807D00021816001600B460A46C160EE
:104EA00000F0C2BE7047000070B51D46049C51B1B1
:104EB000C4F80020C4E90F010121204600F070FE73
:104EC00084F84C5070BD2460F4E700002DE9F05FD9
:104ED0008846DDE90B941546834691009A460A9E62
:104EE000A522206BFBF737FA6FF00301206B01EB73
:104EF0008501084420F00707780707D0502080F389
:104F00001188BFF34F8FBFF36F8FFEE70025B8F115
:104F1000000F0FD05FF00000221818F8001082F880
:104F2000341018F8001011B1401C1028F4D384F884
:104F3000435001E084F83450382E00D33726E6621F
:104F4000C4E91365201D00F00EFB04F1180000F009
:104F50000AFB2461C6F138006462A061656584F8CB
:104F6000585052465946384600F05AFA2060B9F176
:104F7000000F01D0C9F80040BDE8F09F30B51149DD
:104F800000E011460A688242FBD34B685C188442F9
:104F900003D1406818444860084643681C1894428E
:104FA00009D1084C183C2468A24209D052681A441E
:104FB00042600A6812680260814200D0086030BD19
:104FC0000460F9E7A000002070B5002441600B4D9B
:104FD0000061914206D8D11A8269914206D2011D20
:104FE000286907E09A4203D2994201D3012403E0E1
:104FF000011DE86800F0BAFA204670BD700000207C
:1050000010B5044600F0D6FAA06B28B15FF000049A
:1050100000F0F0FA204610BD0124F9E730B589B060
:105020003C4D6EE00498002806DADDE90601059A99
:1050300090470498002864DB069C606910B1201D2D
:1050400000F05CFA03A800F0D7F8024604980A289A
:1050500057D2DFE800F00505052D334A05052D334D
:1050600094F8280040F0010084F828000599A06910
:10507000059B01442046FFF7A7FF68B3216A20463D
:10508000884794F8280040073BD5002000900598F9
:10509000A169002342181946204601F085F9D8B9C4
:1050A000502080F31188BFF34F8FBFF36F8FFEE75F
:1050B00014F8280F20F00100207022E094F8280056
:1050C00040F0010084F828000598A06128B18118FB
:1050D00013462046FFF778FF13E0502080F3118835
:1050E000BFF34F8FBFF36F8FFEE794F8280081075F
:1050F00003D4204600F092FA03E020F0010084F887
:105100002800002204A9286800F09EFE002889D10A
:1051100009B030BD700000202DE9FC410F46054666
:1051200000F014FC01A800F067F80446019818B1DB
:1051300001F0A8F8BDE8FC81254EAFB130690068E8
:10514000D0B30027291B3A46306800F0E9FA01F095
:1051500099F80028EED11F494FF080500860BFF346
:105160004F8FBFF36F8FE5E7A542EBD801F08AF8C8
:10517000F0682746C068C468201D00F0BFF994F8A5
:105180002800410719D5A0692B4641193A46204607
:10519000FFF71AFFA8B100200346014600902A46F7
:1051A000204601F001F960B9502080F31188BFF367
:1051B0004F8FBFF36F8FFEE707E020F0010084F808
:1051C0002800216A20468847B4E70127BAE7000093
:1051D0007000002004ED00E00648416B096829B129
:1051E000416BC968C9684968816270474FF0FF31F7
:1051F000FAE700003400002070B5054600F060FFBB
:10520000064E0446B068844203D200F009F801203B
:1052100000E0002028602046B46070BD70000020CF
:10522000F8B5194D20E0C068C4680668201D00F07C
:1052300065F9216A2046884794F82800400713D56D
:10524000A0693044B04206D924616060211DE8683D
:1052500000F08CF908E00020034601460090324639
:10526000204601F0A1F838B1E86801680029DAD1D8
:105270002969C5E90310F8BD502080F31188BFF3F8
:105280004F8FBFF36F8FFEE7700000200848406823
:10529000401C4FF0500080F3118804D0BFF34F8FB3
:1052A000BFF36F8FFEE7BFF34F8FBFF36F8FFEE744
:1052B000A8000020074CE068016841B1C0680021E7
:1052C000D0F80000FFF728FFFFF7A8FEF3E7012161
:1052D0000020F7E7700000202DE9F041044600F0BF
:1052E00069F994F9455004F1240609E0606A48B16F
:1052F000304600F08FFF08B100F0AAFA6D1E6DB2C3
:10530000002DF3DC4FF0FF3684F8456000F072F9B1
:1053100000F050F994F9445004F1100709E02069B5
:1053200048B1384600F076FF08B100F091FA6D1EE2
:105330006DB2002DF3DC84F84460BDE8F04100F06C
:1053400059B900002DE9F0410546002700F0FEFAAA
:10535000324E306808B9FFF745FD706905424ED1FD
:10536000C5B3083568070ED005F00700C0F1080086
:105370000544680707D0502080F31188BFF34F8F92
:10538000BFF36F8FFEE72DB37068854237D823488F
:10539000183001460C6801E020460C466168A942BD
:1053A00002D221680029F7D131688C4227D00768E2
:1053B0002168016060680837411B10290FD9601906
:1053C000420708D0502080F31188BFF34F8FBFF3FE
:1053D0006F8FFEE713E041606560FFF7CFFD616806
:1053E0007068401A7060B268904200D2B060706914
:1053F00001430020C4E90001F068401CF06000F0A7
:1054000041FF780707D0502080F31188BFF34F8FFA
:10541000BFF36F8FFEE73846BDE8F08188000020BB
:1054200010B5031F4FF080741C601B1F21F0010199
:105430001960191F044B0B6014390A60091F6FF0C3
:10544000020244380A6010BD8D5200081CB500F0FD
:10545000B1F81B490820CDE900010023FA2219A167
:105460001B4800F0C7FD1B490F20CDE900010023B8
:10547000FA2219A11B4800F0BDFD032200210120E2
:1054800000F039FB1849032208600021012000F0D8
:1054900032FB1649032208600021012000F02BFB9B
:1054A00013490860012000F01BFB124908601248F4
:1054B000006800F07DF9BDE81C4000F09BB80000DA
:1054C00008000020506572696F645F7461736B003F
:1054D000253D00080C000020426C6550726F5F741F
:1054E00061736B00C1050008100000201800002047
:1054F000140000201C00002004000020D0E901322C
:1055000001699A60D0E901235A604A68824201D158
:1055100082684A60002202610868401E08600868CC
:1055200070470000034B036003F15C0008608020BB
:1055300010607047940B0020044B036003F15C0083
:1055400008604FF48070106070470000F00D00207C
:1055500000F108014FF0FF32C0E90112C1600161A2
:1055600000210160704700210161704730B50B6870
:105570005A1C02D000F1080202E0026904E022464F
:10558000546825689D42FAD953684B6099608A60D7
:10559000516008610168491C016030BD42684A6081
:1055A00093688B6093685960916008610168491C39
:1055B00001607047502080F31188BFF34F8FBFF315
:1055C0006F8F0A494868401C486001280CD1084880
:1055D000006810F0FF0F07D0502080F31188BFF350
:1055E0004F8FBFF36F8FFEE770470000A8000020C9
:1055F00004ED00E00849486828B1401E486001D128
:1056000080F311887047502080F31188BFF34F8FCB
:10561000BFF36F8FFEE70000A800002070B50028E0
:105620002AD0164DA0F1080460686969084207D1C4
:10563000502080F31188BFF34F8FBFF36F8FFEE7C9
:1056400022683AB1502080F31188BFF34F8FBFF327
:105650006F8FFEE78843606000F078F960686968E2
:10566000084468602046FFF789FC2869401C2861CF
:10567000BDE8704000F006BE70BD0000880000204C
:105680004FF0E02000210161816105494FF47A72F9
:105690000968B1FBF2F1491E4161072101617047C0
:1056A0003000002010B5FAF7FDFD114910280ED387
:1056B00000F1E02090F8F0030A78904207D25020E1
:1056C00080F31188BFF34F8FBFF36F8FFEE7094858
:1056D0000068896800F4E060884207D9502080F3B0
:1056E0001188BFF34F8FBFF36F8FFEE710BD00002F
:1056F000A80000200CED00E010B5084B002200BF10
:1057000053F832401CB1521C082AF9D310BD43F89B
:10571000321003EBC201486010BD00007805002084
:1057200070B515460E460446FFF744FF94F9441041
:105730000020491C01D184F8440094F94510491C0B
:1057400001D184F84500FFF755FFA06B28B92A4620
:10575000314604F1240000F099F82046BDE870407D
:10576000FFF7BABD10B5020014D00F48006B38B176
:10577000502080F31188BFF34F8FBFF36F8FFEE788
:1057800000F0E4F800211046FFF706FA00F07AFD79
:10579000002807D105494FF080500860BFF34F8FB4
:1057A000BFF36F8F10BD00003400002004ED00E057
:1057B00070B50546FFF7FEFE1E4C05B92568281D8D
:1057C000FFF79CFEA86A18B105F11800FFF796FED6
:1057D000606A401C60622068854207D1291D164816
:1057E000FFF7DCFE6068401C606007E0A068401EB8
:1057F000A0602846FFF7DBFAFFF7EEFCFFF7FAFEA2
:105800006069002814D02068854211D1206B38B11E
:10581000502080F31188BFF34F8FBFF36F8FFEE7E7
:1058200006494FF080500860BFF34F8FBFF36F8F72
:1058300070BD000034000020540A002004ED00E098
:1058400002490A6A0260C96841607047340000205A
:1058500001490120C86170473400002010B50C4692
:1058600050B1094909681831FFF780FE2046BDE8AC
:1058700010400121FFF790B9502080F31188BFF349
:105880004F8FBFF36F8FFEE73400002070B51446D2
:105890000D4668B10A4909681831FFF77FFE0CB15F
:1058A0004FF0FF3521462846BDE87040FFF774B938
:1058B000502080F31188BFF34F8FBFF36F8FFEE747
:1058C0003400002030B587B00024039405AA04A951
:1058D00003A80494FFF726FEDDE903010094CDE957
:1058E0000110002315A11748059A00F0B0FB164DD2
:1058F0000028E8621FD000F027FD012809D0401CD5
:1059000019D1502080F31188BFF34F8FBFF36F8FF1
:10591000FEE7502080F31188BFF34F8FBFF36F8FE6
:105920004FF0FF30A86201206861EC6007B0BDE86D
:10593000304000F045B807B030BD000049444C4548
:1059400000000000314E0008340000200248016BC6
:10595000491C01637047000034000020164810B550
:10596000016B11B10121C16110BD0021C16101694B
:10597000124A01E0B9B1491E01EB810352F823300C
:10598000002BF7D001EB810302EB830202F1080444
:1059900053685B685360A34201D15B685360DA6867
:1059A0000260016110BD502080F31188BFF34F8F5A
:1059B000BFF36F8FFEE7000034000020B805002021
:1059C0001CB537480168374A914207D1502080F30F
:1059D0001188BFF34F8FBFF36F8FFEE70068314927
:1059E000491E884207D1502080F31188BFF34F8FA2
:1059F000BFF36F8FFEE72C4908780190FF200870F5
:105A000008788DF800009DF800009DF8002000F057
:105A1000F000904207D0502080F31188BFF34F8FE1
:105A2000BFF36F8FFEE79DF80000204C00F05000A0
:105A300020700720A06005E09DF8002052008DF83E
:105A40000020401E9DF800201206F5D4A060032817
:105A500007D0502080F31188BFF34F8FBFF36F8FB3
:105A6000FEE74FF44070A060019808700C482030A9
:105A7000016841F470010160016841F0704101600A
:105A8000FFF7FEFD00206060FAF7D4FB08480168CC
:105A900041F040410160FAF7B9FB00201CBD000055
:105AA00000ED00E071C20F4100E400E0A80000201A
:105AB00034EF00E010B5502080F31188BFF34F8F12
:105AC000BFF36F8F00F002FB18B104494FF0805014
:105AD0000860002080F3118810BD000004ED00E094
