:020000040800F2
:100000006835012099020008293A00083D2C0008B3
:10001000253A00086D0A0008E143000800000000CE
:10002000000000000000000000000000D9010008EE
:10003000510E000800000000350200083D3D000898
:10004000B3020008B3020008B3020008B3020008BC
:10005000B3020008B3020008B3020008B3020008AC
:10006000B3020008B3020008B3020008B30200089C
:10007000B3020008B3020008B3020008B30200088C
:10008000B3020008B3020008B3020008B30200087C
:10009000B3020008B3020008B3020008B30200086C
:1000A000B3020008B3020008B3020008B30200085C
:1000B000B3020008B3020008B3020008B30200084C
:1000C000B3020008B3020008B3020008B30200083C
:1000D000B3020008B3020008D9420008B3020008C6
:1000E000B3020008B3020008B3020008B30200081C
:1000F000B3020008B3020008B3020008B30200080C
:1001000000000000B3020008B3020008B3020008B8
:100110000000000000000000B3020008B302000865
:10012000B3020008B3020008B3020008B3020008DB
:10013000B3020008B3020008B3020008B3020008CB
:10014000B3020008B3020008B3020008B3020008BB
:10015000B3020008B3020008B3020008B3020008AB
:10016000B3020008B3020008000000000000000015
:10017000000000000000000000000000000000007F
:10018000B3020008B30200080000000000000000F5
:10019000B3020008B30200080000000000000000E5
:1001A000000000000000000000000000000000004F
:1001B000B30200080000000000000000B3020008C5
:1001C000B3020008DFF80CD000F07EFB00480047C7
:1001D000F14D0008683501202C4B19680868B0E81B
:1001E000F04F80F30988BFF36F8F4FF0000080F36A
:1001F000118870470000000008480068006880F31C
:1002000008884FF0000080F3148862B661B6BFF32F
:100210004F8FBFF36F8F00DF00BF00BF08ED00E01E
:10022000DFF80C00016841F470010160704700BF05
:1002300088ED00E0EFF30980BFF36F8F134B1A686E
:100240001EF0100F08BF20ED108A20E9F04F10605B
:1002500009B44FF0500080F31188BFF34F8FBFF304
:100260006F8F06F0DFF94FF0000080F3118809BCB2
:1002700019680868B0E8F04F1EF0100F08BFB0EC26
:10028000108A80F30988BFF36F8F70472000002029
:10029000EFF3058070470000064880470648004796
:1002A000FEE7FEE7FEE7FEE7FEE7FEE7FEE7FEE726
:1002B000FEE7FEE74D3D0008C50100082DE9F05FAF
:1002C0000546002092469B468846064681464024C5
:1002D0001BE0284641464746224600F00AF95346AD
:1002E0005A46C01A914110D311461846224600F0D2
:1002F000F1F82D1A67EB01084F4622460120002134
:1003000000F0E8F817EB00094E41201EA4F10104AB
:10031000DFDC484631462A464346BDE8F09F40EAC6
:1003200001039B0703D009E008C9121F08C0042A73
:10033000FAD203E011F8013B00F8013B521EF9D25A
:100340007047D2B201E000F8012B491EFBD2704782
:100350000022F6E710B513460A4604461946FFF791
:10036000F0FF204610BD2DE9FE4F81EA030404F0A2
:10037000004421F0004100944FF0000B23F00043B3
:1003800050EA01045ED052EA03045BD0C3F30A547E
:10039000C1F30A552C44A4F2F3340194A0FB025497
:1003A000C1F3130141F48011C3F3130343F4801329
:1003B00001FB024400FB034E840A970A44EA81547D
:1003C00047EA8357A4FB076802958D0A05FB07855A
:1003D0004FEA932C04FB0C542705029D4FEA065864
:1003E00047EA1637B5EB08056EEB070C870E920E41
:1003F00047EA811742EA8312A7FB0201B6EB0B0121
:1004000064EB00042B0D43EA0C335E1844EB1C50E4
:10041000DA465146E7FB0201C5F313044FEA0B33FA
:1004200043EA14534FEA0432019C43EA0603A4F161
:100430000C040294009CCDE900B400F0B0F803B0C5
:10044000BDE8F08F00200146F9E700F0004230F0EF
:1004500000400AD0C10D01F56071C0F3160042EAF8
:100460000151C20840071143704700200146704700
:1004700001F0004330B421F0004150EA010206D0FF
:100480000A0DA2F56072C1F31301002A02DC30BC30
:1004900000207047440F44EAC104C100E01830BC9A
:1004A00000EBC25000F035B830B50B4601460020D5
:1004B0002022012409E021FA02F59D4205D303FA26
:1004C00002F5491B04FA02F52844151EA2F10102A7
:1004D000F1DC30BD202A04DB203A00FA02F10020D2
:1004E00070479140C2F1200320FA03F31943904072
:1004F0007047202A04DB203A21FA02F000217047DD
:1005000021FA02F3D040C2F120029140084319467B
:1005100070470029A8BF7047401C490008BF20F061
:100520000100704710B4B0FA80FC00FA0CF050EAF9
:10053000010404BF10BC704749B1CCF1200421FA7A
:1005400004F411FA0CF118BF012121430843A3EB75
:100550000C01CB1D4FEA00614FEA102042BF002082
:1005600010BC704700EBC35010440029A4BF10BC5E
:100570007047401C490008BF20F0010010BC7047C4
:1005800010B5141E73F1000408DA401C41F100019B
:1005900092185B411A4301D120F0010010BD2DE9F2
:1005A000F04D92469B4611B1B1FA81F202E0B0FAE9
:1005B00080F220329046FFF78DFF04460F4640EA56
:1005C0000A0041EA0B0153465A46084313D011462C
:1005D00053EA010019D0C8F140025046FFF789FFE5
:1005E00005460E46504659464246FFF773FF0843FC
:1005F00005D0012004E020463946BDE8F08D0020FA
:10060000054346EAE0762C4337430A986305E40A3B
:10061000A0EB08000022FD0A44EA47540A3002D544
:1006200000200146E9E7010510196941DDE90845A7
:1006300000196941BDE8F04DA2E72DE9FE4F804663
:1006400081EA0300C00F0C46009021F0004123F026
:100650000045B8EB0200A94105D24046214690462C
:100660001C460B46024623F00040104347D0270D9E
:10067000C7F30A00C3F30A510290401A01904028C0
:100680006BDAC3F3130040F4801B0098924620B14C
:100690000023D2EB030A63EB0B0B01985946C0F120
:1006A00040025046FFF716FF06460D465046594693
:1006B000019A00F01BF910EB08006141002487EA61
:1006C000115284EAE7731A4340D0009A62B3019A48
:1006D000012A4FEA075215DC001B61EB02014FF0C3
:1006E000004202EA0752CDE90042001C41F58011A8
:1006F00032462B46FFF753FF03B0BDE8F08F40466C
:100700002146F9E7001B61EB0201001C41F5801353
:1007100000185B412018A2F5001747EB030140EADF
:10072000D570B6196D4111E06D084FEA360645EAFD
:10073000C0754FEA0752001B61EB0201001C41F536
:10074000801149084FEA30000019514132462B46CA
:1007500003B0BDE8F04FFFF713BF0098012240003F
:100760000023D0EB020263EBE073009821464FEACE
:10077000E074B8EB000061EB0401E9E783F00043AB
:100780005BE781F0004158E72DE9F04D81EA030471
:1007900004F0004B21F0004514464FF0000A23F00E
:1007A000004150EA050220D054EA01021DD0C5F3F1
:1007B0000A570246C5F31303C1F31300C1F30A56E7
:1007C00040F4801543F48013A7EB0608101BD646AF
:1007D00008F2FD3873EB050002D308F1010801E0CF
:1007E00092185B41B8F1000F03DA00200146BDE822
:1007F000F08D00204FF48011064684460EE0171B52
:1008000073EB050705D3121B63EB050306434CEAA4
:10081000010C49084FEA300092185B4150EA010789
:10082000EDD152EA030012D082EA040083EA050106
:10083000084305D0101BAB4106D20122002306E07D
:1008400000224FF0004302E06FF0010253101AEB58
:1008500006004CEB085110EB0A0041EB0B01BDE820
:10086000F04DFFF78DBEC1F30A52C1F3130140F200
:10087000FF3341F480119A4202DA002001467047AA
:1008800040F233439A42A2F2334202DC5242FFF773
:1008900030BEFFF71FBE000030B5041E71F100042A
:1008A00004DB4FF00044404264EB0101141E73F17D
:1008B000000405DB1C464FF00043524263EB040387
:1008C000994208BF904230BD064C074D06E0E068F3
:1008D00040F0010394E8070098471034AC42F6D387
:1008E000FFF774FC5CF200087CF20008202A06DBAB
:1008F000CB17203A41FA02F043EAE07306E041FAEE
:1009000002F3D040C2F120029140084319467047DB
:1009100054494A6822F440324A604A6843681A439C
:100920004A600268526822F4807203685A60026862
:100930005368026943EA022203685A6002685268F7
:1009400022F0407203685A600268526883681A4352
:1009500003685A600268926822F4006203689A6031
:1009600002689268C3681A4303689A603E4B826AC1
:100970009A4218D00268926822F0706203689A6006
:1009800002689268836A1A4303689A6002689268F0
:1009900022F0405203689A6002689268C36A1A4360
:1009A00003689A600BE00268926822F07062036844
:1009B0009A600268926822F0405203689A60026866
:1009C000926822F0020203689A6002689368826962
:1009D00043EA420203689A60026AA2B1026852685E
:1009E00042F4006203685A600268526822F460426E
:1009F00003685A6002685368426A521E43EA4232F0
:100A000003685A6005E00268526822F400620368D5
:100A10005A600268D26A22F470020368DA620268DD
:100A2000D36A828B521E43EA02520368DA6202687A
:100A3000926822F4007203689A6002689368026BFD
:100A400043EA422203689A600268926822F4806254
:100A500003689A6002689368426943EA82220368E5
:100A60009A607047002301400100000F00BFFEE7BD
:100A700030B5F0EE400A354C94ED000AB4EEE00AD1
:100A8000F1EE10FA02D29FED320A30BD2F4C94EDF8
:100A9000200AB4EEE00AF1EE10FA02DD9FED2C0A16
:100AA000F3E70022202310202CE0284C04EB8004E4
:100AB00094ED000AB4EEE00AF1EE10FA06D2034615
:100AC0009C1804EBD475C5F347001BE01F4C04EBE6
:100AD000800494ED000AB4EEE00AF1EE10FA06DDAF
:100AE00002469C1804EBD475C5F347000AE000EBFE
:100AF0008004A4F1370100EE101AB8EEC01AB0EE6F
:100B0000410AC2E79C1A012CCFD100EB8004A4F16A
:100B100037010E4C04EB8204D4ED001A0B4C04EBAD
:100B2000830494ED002A30EEE10AF1EE042A20EE6F
:100B3000220A32EE613AC0EE032A00EE101AB8EE35
:100B4000C00A32EE801AB0EE410A9EE7C0F10008FA
:100B50000000000010B500222021024800F0FEFE37
:100B600010BD00000004024000BF0021084A1160CF
:100B7000084A1160084A1160084A1160084A116069
:100B8000084A1160084A1170084A11707047000045
:100B9000D8000020D4000020E4000020E000002065
:100BA000DC000020E8000020EC000020ED00002028
:100BB00008B561E04FF0FF313048006806F092F967
:100BC0002F4800783A2850D10020034602460321DE
:100BD00000902C48006806F04FFE29484078000439
:100BE0002749897840EA01202549C97808432649E0
:100BF0000860234840792249097940EA01202349C5
:100C000008601F488079224908601D48007A1C4905
:100C1000C97940EA01201F4908601948407A1E49F5
:100C200008701748807A1D4908701548C07A00047A
:100C30001349097B40EA01201149497B08431849BF
:100C400008600F48C07B0E49897B40EA01201549A6
:100C5000086006F0ABFA0446002003462246012154
:100C600000900848006806F007FEC8210448FFF716
:100C70006FFB00200C4908809CE70000B0000020BA
:100C8000C0020020B8000020DC000020E0000020AE
:100C9000E4000020E8000020EC000020ED0000202F
:100CA000D4000020D80000201E0000202DED088B6D
:100CB00082B0002008EE100A9FED530AF0EE408A41
:100CC0009FED510AB0EE409A9CE01421002000F004
:100CD0009FFA08EE100AB8EE480A10EE100AFFF765
:100CE000B4FB41EC1B0B9FED490B53EC102BFFF7B2
:100CF0003AFB41EC1A0BFFF7BBFB08EE900A9FEDA5
:100D0000450A30EE680ADFED440A20EE200AC0EE04
:100D1000280AB0EE609AB0EE490AFFF7A9FE3F48F4
:100D200080ED000A1421012000F072FA08EE100A8A
:100D3000B8EE480A10EE100AFFF787FB41EC1B0BD8
:100D40009FED320B53EC102BFFF70DFB41EC1A0B10
:100D5000FFF78EFB08EE900A9FED2E0A30EE680A30
:100D6000DFED2D0A20EE200AC0EE280AB0EE609AD0
:100D7000B0EE490AFFF77CFE294880ED000A2748BB
:100D800090ED000AF3EE0E0AB4EEE00AF1EE10FA6E
:100D900009DC234890ED000AF3EE0E0AB4EEE00AF7
:100DA000F1EE10FA02DD02F05DFE15E01B4890ED59
:100DB000000AF3EE090AB4EEE00AF1EE10FA0BD2E3
:100DC000174890ED000AF3EE090AB4EEE00AF1EEDE
:100DD00010FA01D2FFF7BEFEC82005F039FA10481C
:100DE0000068FFF732FB41EC1A0B0C480068FFF774
:100DF0002CFB41EC1B0B8DED00AB53EC1B2B09A026
:100E000000F028F861E700000000000066666666F2
:100E100066664A3F3333534000007A44BC000020EA
:100E2000C000002074656D70657261747572655FD5
:100E3000313A25352E31662C2074656D70657261EE
:100E4000747572655F323A25352E31662E0D0A00B3
:100E5000704700000FB400B5A1B023A80090802116
:100E600001A8009B229A03F0E1FA00200090411EA5
:100E70000848006806F036F801A907A003F0B2FAA6
:100E800000231A4619460348006805F091FD21B079
:100E90005DF814FBB40000202573000072B600BF9B
:100EA000FEE700002DE9FC5F0546884691469A461C
:100EB000DDF830B000950120019000245FE004EBE4
:100EC0000410374911F810009BF80010884253D1E4
:100ED00004EB0410324901EB400040789BF801100C
:100EE000884249D108F10F0083B205F10F0082B2A8
:100EF0004146284602F04AF900263BE0002734E04C
:100F00000D9890B904EB0410254901EB4000801CBA
:100F1000805D80213941084018B1484602F04EFDFD
:100F200021E0504602F04AFD1DE01E48A0F8009066
:100F300004EB04101A4901EB4000801C805D802105
:100F40003941084018B14146284601F05FFF681C4E
:100F500085B20098281A102805D1009D08F10100DB
:100F60001FFA80F803E0781CC7B2082FC8DB00BF67
:100F7000701CC6B2202EC1DB00BF601C84B2019879
:100F800084429CDB08484088401E83B206480088A3
:100F9000401E82B20021084602F0F8F8BDE8FC9F2E
:100FA000209B000812000020600100202DE9FC5F5A
:100FB0000546884691469A46DDF830B000950120F6
:100FC0000190002467E004EB840000EB44103A49F0
:100FD00011F810009BF80010884259D104EB8400EE
:100FE00000EB4410344901EB400040789BF80110BD
:100FF00088424DD108F1170083B205F1170082B283
:101000004146284602F0C2F800263FE0002738E0BB
:101010000D98A0B904EB840000EB4410264901EBC5
:101020004000801C805D80213941084018B148464D
:1010300002F0C4FC23E0504602F0C0FC1FE01F4851
:10104000A0F8009004EB840000EB44101A4901EB77
:101050004000801C805D80213941084018B1414624
:10106000284601F0D3FE681C85B20098281A18287B
:1010700005D1009D08F101001FFA80F803E0781CFB
:10108000C7B2082FC4DB00BF701CC6B2482EBDDB40
:1010900000BF601C84B20198844294DB08484088F9
:1010A000401E83B206480088401E82B200210846D6
:1010B00002F06CF8BDE8FC9F429B00081200002083
:1010C000600100202DE9FE4F0546884691469A466C
:1010D000DDF830B001953D48008800901620029060
:1010E00000245FE004EB8410394911F810009BF8EC
:1010F0000010884253D104EB8410354901EB4000C5
:1011000040789BF80110884249D108F11F0083B252
:1011100005F11F0082B24146284602F037F800264A
:101120003BE0002734E00D9890B904EB8410284987
:1011300001EB4000801C805D80213941084018B1DE
:10114000484602F03BFC21E0504602F037FC1DE02F
:101150001E48A0F8009004EB84101D4901EB4000EC
:10116000801C815D80203841014019B141462846EC
:1011700001F04CFE681C85B20198281A202805D180
:10118000019D08F101001FFA80F803E0781CC7B246
:10119000082FC8DB00BF701CC6B2802EC1DB00BFA9
:1011A000601C84B2029884429CDB08490098088045
:1011B00008484088401E83B206480088401E82B21C
:1011C0000021084601F0E2FFBDE8FE8F120000207A
:1011D0008C9B0008600100201FB50446009401208C
:1011E000019007200290002003906946074800F014
:1011F00057F8064800F0E4F90A21044800F082F9A3
:10120000024800F013F980B204B010BD1C31012077
:101210002DE9F04107460C460025002608E0384637
:10122000FFF7DAFF0544052005F012F8701CC6B27E
:10123000A642F4DBB5FBF4F080B2BDE8F08100001B
:101240002DE9F04706460F46154607F14F0083B2D9
:1012500006F1770082B23946304601F097FF00244C
:101260000AE015F8149005EB440090F8018049EA73
:10127000082002F0A3FB641CB4F5165FF1DB0748FD
:101280004088401E83B205480088401E82B200217B
:10129000084601F07BFFBDE8F087000060010020F8
:1012A00038B502460020009000BF92F83C000128AB
:1012B00001D1022038BD012082F83C0000BF08683F
:1012C000092816D91068C0680C780A3C04EB44055C
:1012D0000724AC40A0431468E0600C780A3C04EB9F
:1012E00044048868A0401468E46820431468E060FF
:1012F00013E0106800690C7804EB44050724AC4047
:10130000A043146820610C7804EB44048868A04072
:10131000146824692043146820614868072817D29C
:101320001068406B0C79641E04EB84051F24AC40EC
:10133000A04314686063088880B20C79641E04EBD3
:101340008404A0401468646B20431468606331E037
:1013500048680D2817D21068006B0C79E41F04EB65
:1013600084051F24AC40A04314682063088880B221
:101370000C79E41F04EB8404A0401468246B204320
:101380001468206316E01068C06A0C790D3C04EB09
:1013900084051F24AC40A0431468E062088880B232
:1013A0000C790D3C04EB8404A0401468E46A2043EB
:1013B0001468E062194B1A4C1068A04206D1086804
:1013C000122803D1586840F480005860144C10680B
:1013D000A0421CD10868102802D00868112816D134
:1013E000586840F400005860086810280FD10D4874
:1013F00000680D4CB0FBF4F000EB80004000009062
:1014000002E00098401E009000980028F9D100BF2B
:10141000002082F83C0000BF00BF4BE700230140E2
:10142000002001400001002040420F0001460868F2
:10143000C06C704770B5044600250CB9012070BD22
:101440001549A06A884200D000BF206C30B9002046
:10145000606484F83C00204600F020F8206C00F026
:10146000100088B9206C20F4885040F002002064FD
:101470002046FFF74DFA00206064206C20F0020047
:1014800040F00100206400E0012500BF002084F846
:101490003C0000BF2846D2E70100000F10B586B01F
:1014A000044600BF002000901448006840F480709B
:1014B000124908600846006800F48070009000BF80
:1014C00000BF00BF002000900C481438006840F0B6
:1014D00001000A49143908600846006800F001005C
:1014E000009000BF00BF03200190029000200390F5
:1014F00001A9034800F04EF906B010BD443802407F
:101500000000024070B504460D4600262068806841
:1015100000F4806078B12068806800F4807050B179
:10152000206C40F02000206400BF002084F83C00C4
:1015300000BF012070BD00F017FA064612E0681CDB
:1015400080B125B100F010FA801BA8420AD9206CA6
:1015500040F00400206400BF002084F83C0000BF7D
:101560000320E7E72068006800F002000228E6D1C7
:101570006FF0120021680860206C40F40070206455
:101580002068806800F04050B8B9A069A8B9206808
:10159000C06A00F4700020B12068806800F48060A8
:1015A00058B9206C20F480702064206C00F48050C6
:1015B00018B9206C40F0010020640020BAE7000058
:1015C00008B501460020009000BF91F83C000128BA
:1015D00001D1022008BD012081F83C0000BF08684D
:1015E000806800F00100A0B90868806840F0010040
:1015F0000B6898602E4800682E4BB0FBF3F000EBB0
:101600004000009002E00098401E009000980028E2
:10161000F9D10868806800F00100002845D0086C06
:1016200040F20163984340F48070086408684068A1
:1016300000F4806028B1086C20F4005040F4805021
:101640000864086C00F4805020B1486C20F006005B
:10165000486401E00020486400BF002081F83C009D
:1016600000BF154A6FF022000B681860506800F048
:101670001F0058B90868806800F04050A8B9086891
:10168000806840F080400B6898600EE00B4B086863
:1016900098420AD10868806800F0405028B908686C
:1016A000806840F080400B689860002092E700005E
:1016B0000001002040420F000023014000200140B3
:1016C00070B50446A56D00F04FF9064694F8350054
:1016D000022808D08020606500BF002084F8340014
:1016E00000BF012070BD2068006820F0160021684E
:1016F00008602068406920F0800021684861206C03
:1017000008B9A06C28B12068006820F008002168A2
:1017100008602068006820F00100216808600FE080
:1017200000F022F9801B05280AD92020606500BF3F
:10173000002084F8340000BF032084F83500D1E78E
:101740002068006800F001000028E9D194F85C10DE
:101750003F208840A86000BF002084F8340000BF0C
:10176000012084F835000020BCE7014691F83500DF
:10177000022803D08020486501207047052081F8A9
:1017800035000868006820F001000A681060002039
:10179000F3E70000F8B503460A46002500240020C0
:1017A0000021C8E0012606FA01F5166806EA0504DC
:1017B000AC4273D15668022E02D05668122E13D155
:1017C000CF0803F1200656F827004E07F70E0F2624
:1017D000BE40B0434F07FF0E1669BE403043CF08EE
:1017E00003F1200646F8270018684F000326BE4084
:1017F000B043167906F003064F00BE403043186030
:101800005668012E08D05668022E05D05668112E53
:1018100002D05668122E13D198684F000326BE409E
:10182000B0434F00D668BE403043986058680126E8
:101830008E40B0431679C6F300168E403043586090
:10184000D8684F000326BE40B0434F009668BE40A4
:101850003043D860566806F08056B6F1805F69D193
:1018600000BF00260096364E366846F48046344F58
:101870003E603E46366806F48046009600BF00BFD4
:10188000304E8F0856F827008E07370F0F26BE40C0
:10189000B0432D4EB34202D1002610E04AE02B4E59
:1018A000B34201D101260AE0294EB34201D10226FA
:1018B00005E0284EB34201D1032600E007268F073A
:1018C0003F0FBE4030431F4E8F0846F82700224E80
:1018D0003068A043566806F48036B6F5803F00D1E4
:1018E00020431D4E3060361D3068A043566806F414
:1018F0000036B6F5003F00D12043174E361D30604C
:10190000361D3068A043566806F48016B6F5801F71
:1019100000D12043104E08363060361D3068A04399
:10192000566806F40016B6F5001F00D120430A4E93
:101930000C363060491C1029FFF434AFF8BD0000AC
:1019400044380240083801400000024000040240D0
:1019500000080240000C0240003C01400AB18161D5
:1019600001E00B0483617047014800687047000084
:101970000800002010B50D48006840F400700B49C5
:1019800008600846006840F4806008600846006807
:1019900040F480700860032000F07CF80F2000F015
:1019A00007F800F02BF8002010BD0000003C0240BA
:1019B00070B504460E4800784FF47A71B1FBF0F030
:1019C0000C490968B1FBF0F5284600F05DFD08B14F
:1019D000012070BD102C07D200222146501E00F0BD
:1019E0001BF80548046001E00120F2E70020F0E761
:1019F00010000020000100200C000020704700BFF4
:101A000000F01F02012191404209920002F1E02200
:101A1000C2F8001100BF70472DE9F05F80460D4607
:101A20001646002702F002F8074639462A46334692
:101A300001F00700C0F1070ABAF1040F02D94FF014
:101A4000040A01E0C0F1070AD14600F1040ABAF124
:101A5000070F02D24FF0000A01E0A0F1030AD446BA
:101A60004FF0010A0AFA09FAAAF1010A0AEA020A7F
:101A70000AFA0CFA4FF0010B0BFA0CFBABF1010B5D
:101A80000BEA030B4AEA0B042146404601F0D6FF5D
:101A9000BDE8F09F00BF00F00702064B19684FF643
:101AA000FF031940044B0B4343EA0221014B196029
:101AB00000BF70470CED00E00000FA0570B5044669
:101AC0000D460CB9012070BD5848006800F00700B1
:101AD000A84209D255490D700846006800F0070079
:101AE000A84201D00120EEE7207800F00200022891
:101AF0001DD1207800F00400042805D14C4800686E
:101B000040F4E0504A490860207800F008000828B6
:101B100005D14748006840F46040454908604448A2
:101B2000006820F0F000A16808434149086020786F
:101B300000F00100A8B36068012807D13C480838CC
:101B40000068C0F34040B8B90120BCE760680228D3
:101B500002D06068032807D1354808380068C0F310
:101B6000406048B90120AEE7314808380068C0F34A
:101B7000400008B90120A6E72D48006820F00300C6
:101B8000616808432A490860FFF7EEFE064609E04F
:101B9000FFF7EAFE801B41F28831884202D9032018
:101BA00091E707E02248006800F00C006168B0EBA4
:101BB000810FEDD11D48006800F00700A84209D947
:101BC0001A490D700846006800F00700A84201D0CD
:101BD000012078E7207800F00400042807D1144899
:101BE000006820F4E050E16808431149086020785B
:101BF00000F00800082808D10D48006820F4604073
:101C0000216940EAC1000A49086000F03DF808492E
:101C10000968C1F30311074A515CC84006490860CE
:101C20000F20FFF7C5FE00204DE70000003C0240FA
:101C30000838024044F20008000100200148006812
:101C4000704700000001002000B5FFF7F7FF0449CE
:101C50000968C1F38221034A515CC84000BD0000FD
:101C60000838024054F2000800B5FFF7E7FF0449C6
:101C70000968C1F34231034A515CC84000BD00000D
:101C80000838024054F200082DE9F04700240025EE
:101C90000026A1462548006800F00C0020B1042869
:101CA00005D008283AD105E0DFF8849039E0DFF864
:101CB000849036E01D48001F006800F03F041B4878
:101CC000001F006800F4800078B11A481749091F06
:101CD0000968C1F38811A0FB017001462246002368
:101CE0003846FEF7EBFA05460EE011480F49091F8A
:101CF0000968C1F38811A0FB017001462246002348
:101D00003846FEF7DBFA05460848001F0068C0F3B6
:101D10000140401C4600B5FBF6F902E0DFF81090E8
:101D200000BF00BF4846BDE8F08700000838024009
:101D30000024F40040787D01F8B5044600252078A1
:101D400000F00100002874D0F748006800F00C0093
:101D500004280DD0F448006800F00C00082813D1C6
:101D6000F148001F006800F48000B0F5800F0BD12F
:101D7000ED4808380068C0F34040002859D060683A
:101D8000002856D10120F8BD00BF6068B0F5803F43
:101D900008D1E5480838006840F48030E249083945
:101DA00008601EE06068B0F5A02F0DD1DE4808384D
:101DB000006840F48020DC49083908600846006863
:101DC00040F4803008600CE0D7480838006820F400
:101DD0008030D549083908600846006820F4802022
:101DE000086000BF606890B1FFF7BEFD054606E0E1
:101DF000FFF7BAFD401B642801D90320C3E7CA4896
:101E000008380068C0F340400028F1D011E0FFF727
:101E1000ABFD054606E0FFF7A7FD401B642801D98E
:101E20000320B0E7C04808380068C0F340400028ED
:101E3000F1D1207800F0020002285FD1BA48006892
:101E400000F00C0058B1B848006800F00C000828F9
:101E50001CD1B548001F006800F48000B0B9B2483A
:101E600008380068C0F3400020B1E068012801D0C4
:101E7000012088E7AC480838006820F0F8002169A4
:101E800040EAC100A8490839086037E0E06800B3BB
:101E90000120A6490860FFF767FD054606E0FFF749
:101EA00063FD401B022801D903206CE79E480838D7
:101EB0000068C0F340000028F1D09B480838006853
:101EC00020F0F800216940EAC1009749083908600C
:101ED00014E0002095490860FFF746FD054606E03E
:101EE000FFF742FD401B022801D903204BE78E4833
:101EF00008380068C0F340000028F1D1207800F0D5
:101F0000080008282CD16069A8B101208849086020
:101F1000FFF72AFD054606E0FFF726FD401B0228D5
:101F200001D903202FE780486C300068C0F34000DF
:101F30000028F1D014E000207D490860FFF714FD6F
:101F4000054606E0FFF710FD401B022801D90320DB
:101F500019E775486C300068C0F340000028F1D1E3
:101F6000207800F00400042870D100266E48383034
:101F7000006800F0805090B900BF002000906A48CF
:101F80003830006840F080506749383108600846B2
:101F9000006800F08050009000BF00BF0126654837
:101FA000006800F48070B0B96248006840F4807046
:101FB00060490860FFF7D8FC054606E0FFF7D4FC4F
:101FC000401B022801D90320DDE65A48006800F4CE
:101FD00080700028F2D000BFA068012808D15248C4
:101FE0006830006840F001004F49683108601DE02A
:101FF000A06805280DD14C486830006840F0040006
:102000004949683108600846006840F001000860EE
:102010000CE045486830006820F001004249683112
:1020200008600846006820F00400086000BFA0684F
:10203000A8B1FFF799FC054609E0FFF795FC401BA6
:1020400041F28831884202D903209CE626E03648D6
:1020500068300068C0F340000028EED013E0FFF7BE
:1020600083FC054608E0FFF77FFC401B41F2883106
:10207000884201D9032086E62B4868300068C0F307
:1020800040000028EFD1012E07D1274838300068E2
:1020900020F0805024493831086000BFA069D8B3CF
:1020A0002148006800F00C00082861D0A0690228CF
:1020B00049D100201D490866FFF756FC054606E099
:1020C000FFF752FC401B022801D903205BE61648AB
:1020D00008380068C0F340600028F1D1D4E9070156
:1020E0000843616A40EA81110122A06AC2EB5000F4
:1020F00041EA00412C20005D41EA00613020005D92
:1021000041EA00700849091F086001200749086674
:10211000FFF72AFC05460FE02CE0FFF725FC401BEB
:10212000022809D903202EE6083802400000474261
:10213000800E4742007000400F480068C0F34060C6
:102140000028EAD016E000200C490866FFF70CFCD6
:10215000054606E0FFF708FC401B022801D90320D2
:1021600011E605480068C0F340600028F2D101E0A4
:10217000012008E6002006E6003802400000474241
:1021800010B504460CB9012010BD606A00B900BF4B
:10219000A06AB0F5005F00D100BF94F8510028B9E3
:1021A000002084F85000204600F03AF8022084F81D
:1021B00051002068006820F0400021680860D4E9E0
:1021C00001010843E1680843216908436169084344
:1021D000218B01F400710843E1690843216A084337
:1021E000A16A0843216808600421A06901EA10403F
:1021F000616A084321684860A06AB0F5005F02D1B7
:102200002168E06A08612068C06920F400602168E4
:10221000C86100206065012084F851000020B3E708
:1022200010B586B00446142101A8FEF791F81B49A9
:10223000206888422FD100BF002000901848006815
:1022400040F48050164908600846006800F4805049
:10225000009000BF00BF00BF00200090104814385D
:10226000006840F001000E49143908600846006813
:1022700000F00100009000BF00BFE02001900220AC
:10228000029000200390032004900520059001A9EE
:102290000448FFF77FFA06B010BD0000003001408F
:1022A00044380240000002402DE9F84304460D4640
:1022B00017461E464FF00008C14600BF94F8500074
:1022C000012802D10220BDE8F883012084F85000E3
:1022D00000BFFFF749FB804694F85100012802D067
:1022E0004FF00209C6E005B117B94FF00109C1E08E
:1022F000032084F85100002060652563A786E786E7
:10230000A063A087E08760642064A068B0F5004FF8
:1023100005D12068006840F4804021680860A06A08
:10232000B0F5005F0ED100BF206800684DF6FF7168
:102330000840216808602068006840F40050216867
:10234000086000BF2068006800F04000402805D009
:102350002068006840F0400021680860E068B0F53F
:10236000006F2AD1606810B1E08E012806D128885C
:102370002168C860AD1CE08E401EE08619E0206830
:10238000806800F00200022807D128882168C86010
:10239000AD1CE08E401EE0860BE03EB1701C40B1EB
:1023A000FFF7E2FAA0EB0800B04202D34FF00309B6
:1023B00060E0E08E0028E2D129E0606810B1E08E94
:1023C000012806D12878216808736D1CE08E401E14
:1023D000E08619E02068806800F00200022807D13A
:1023E0002878216808736D1CE08E401EE0860BE0A3
:1023F0003EB1701C40B1FFF7B7FAA0EB0800B04245
:1024000002D34FF0030935E0E08E0028E2D13346D5
:10241000012202212046CDF8008001F069FB10B1B5
:102420004FF0030926E042463146204601F04CFBBE
:1024300020B14FF00109202060651BE0A06850B971
:1024400000BF002000902068C0680090206880686D
:10245000009000BF00BFA06AB0F5005F05D1206802
:10246000006840F4805021680860606D08B14FF04A
:10247000010900BF012084F8510000BF002084F84A
:10248000500000BF48461EE770B504462546681E4A
:10249000B0F1807F01D301200FE0681E4FF0E021F2
:1024A00048610F214FF0FF3001F0C8FA00204FF0D3
:1024B000E021886107200861002070BD704700009E
:1024C00038B50446204600F061F800F0010050B134
:1024D00000BF0020009020680068009020684068DD
:1024E000009000BF32E0204600F050F800F00200FB
:1024F00050B100BF00200090206800680090206864
:102500004068009000BF21E0204600F03FF800F056
:10251000040050B100BF00200090206800680090C7
:1025200020684068009000BF10E0204600F02EF8C0
:1025300000F0080050B100BF002000902068006843
:10254000009020684068009000BF00BF09492068E3
:10255000884205D101220849084800F0A5FA08E0A0
:1025600007492068884204D101220649064800F044
:102570009BFA38BD001001401800002070010020B7
:10258000004400401C0000207C0200200146086C32
:10259000704701460022002391F83D2091F83E301B
:1025A00042EA0300704700002DE9F84F0446206816
:1025B00005682068C668206847694FF00009CA4668
:1025C00005F00F09B9F1000F0AD105F0200038B16C
:1025D00006F0200020B1204601F03AFCBDE8F88F5B
:1025E000B9F1000F7BD007F0010018B906F4907024
:1025F000002874D005F0010030B106F4807018B1E5
:10260000206C40F00100206405F0040030B107F0B8
:10261000010018B1206C40F00200206405F00200B7
:1026200030B107F0010018B1206C40F004002064C4
:1026300005F0080048B106F0200010B907F00100CD
:1026400018B1206C40F008002064206C002845D0B0
:1026500005F0200028B106F0200010B1204601F05E
:10266000F7FB20684069C0F3801A206C00F0080076
:1026700010B9BAF1000F2CD0204601F0A3FB20685E
:10268000406900F0400000B300BF00BF2168143172
:1026900051E8001F21F040002168143141E8000298
:1026A000002AF3D100BFA06B50B18748A16B086529
:1026B000A06BFFF75AF888B1A06B016D88470DE059
:1026C0002046FFF7FDFE09E009E02046FFF7F8FE8F
:1026D00004E02046FFF7F4FE002020647EE7206B34
:1026E000012877D105F01000002873D006F0100003
:1026F0000028FAD000BF00200090206800680090F9
:1027000020684068009000BF00BF2068406900F06A
:102710004000E8B3A06B006840681FFA80F8B8F189
:10272000000F56D0A08D404553DDA4F82E80A06B3D
:10273000C069B0F5807F45D000BF00BF21680C3173
:1027400051E8001F21F4807021680C3141E800023B
:10275000002AF3D100BF00BF00BF2168143151E847
:10276000001F21F001002168143141E80002002A15
:10277000F3D100BF00BF00BF2168143151E8001F32
:1027800021F040002168143141E80002002A00E0F5
:1027900021E0F1D100BF202084F83E00002020631A
:1027A00000BF00BF21680C3151E8001F21F010006C
:1027B00021680C3141E80002002AF3D100BFA06B70
:1027C000FEF77EFFA08DE28D801A81B22046FFF7D2
:1027D00075FE03E740E0A08DE18D401A1FFA80F8F6
:1027E000E08DC0B3B8F1000F35D000BF00BF216845
:1027F0000C3151E8001F21F4907021680C3141E840
:102800000002002AF3D100BF00BF00BF21681431CD
:1028100051E8001F21F001002168143141E8000255
:10282000002AF3D100BF202084F83E00002020635E
:1028300000BF00BF21680C3151E8001F21F01000DB
:1028400021680C3141E80002002AF3D100BF414663
:102850002046FFF733FEC1E605F01000E8B106F0B0
:102860001000D0B12068C06820F010002168C86056
:10287000204600F02BF800BF002000902068006880
:10288000009020684068009000BF00BF2068C068CA
:1028900040F010002168C860A0E605F0800030B16B
:1028A00006F0800018B1204601F087FC96E605F09E
:1028B000400030B106F0400018B1204601F0B8FAEF
:1028C0008CE600BF8AE60000B13D000838B504463A
:1028D0000E492068884218D00D492068884214D1DA
:1028E0000C480088012810DB69460B48006804F09A
:1028F000C3F900BF009838B14FF080500749086015
:10290000BFF34F8FBFF36F8F00BF38BD0010014082
:10291000004400401E000020B000002004ED00E054
:1029200010B504460CB9012010BDA06900B100E04B
:1029300000BF94F83D0028B9002084F83C002046F0
:1029400000F028F8242084F83D002068C06820F4B6
:1029500000502168C860204601F0F6FA206800693E
:1029600020F49040216808612068406920F02A0026
:10297000216848612068C06840F400502168C86040
:1029800000202064202084F83D0084F83E000020D0
:10299000CAE7000010B586B00446142101A8FDF76F
:1029A000D7FC3D492068884231D100BF002000900B
:1029B0003A48006840F0010038490860084600685D
:1029C00000F00100009000BF00BF00BF0020009099
:1029D00032481430006840F010003049143108606B
:1029E0000846006800F01000009000BF00BF4FF4E0
:1029F000C060019002200290002003900320049008
:102A00000720059001A92648FEF7C4FE41E02549AC
:102A1000206888423DD100BF002000901F48006818
:102A200040F001001D4908600846006800F0010000
:102A3000009000BF00BF00BF00200090174810307A
:102A4000006840F4003015491031086008460068FD
:102A500000F40030009000BF00BF0420019002206D
:102A6000029001200390032004900720059001A903
:102A70000B48FEF78FFE0820019001A90848FEF7D9
:102A800089FE2620FEF7BBFF00220D212620FEF73F
:102A9000C3FF06B010BD00000010014030380240F6
:102AA000000002400044004070B504460D46164642
:102AB00094F83E00202816D105B10EB9012070BD52
:102AC00000BF94F83C00012801D10220F7E7012063
:102AD00084F83C0000BF002020633246294620468F
:102AE00001F048FBEBE70220E9E7000010B5164AC9
:102AF0000168914211D115490A7815490B88098856
:102B0000491C134C21801349CA5421460988C729FE
:102B100018DD00212246118014E00F4A016891421D
:102B200010D10E490B780E490A880988491C0C4CB3
:102B300021800C498B5421460988C72902DD0021D8
:102B40002246118010BD0000001001401800002036
:102B50001A000020B4010020004400401C000020A6
:102B60001E000020C00200202DE9F84F04460E464A
:102B7000174699464FF0000A94F83D0020285AD194
:102B800006B117B90120BDE8F88F00BF94F83C00EA
:102B9000012801D10220F6E7012084F83C0000BFA3
:102BA00000202064212084F83D00FEF7DDFE8246EF
:102BB000A784E784A068B0F5805F04D1206910B9CC
:102BC0000025B04602E035464FF0000800BF002067
:102BD00084F83C0000BF1BE05346002280212046C1
:102BE000CDF8009001F019FB08B10320CBE745B9FF
:102BF000B8F80000C0F308002168486008F1020836
:102C000003E02878216848606D1CE08C401EE08459
:102C1000E08C0028E0D15346002240212046CDF828
:102C2000009001F0FAFA08B10320ACE7202084F804
:102C30003D000020A7E70220A5E7704700BFFEE7A0
:102C400000B587B000BF002001901E48006840F02A
:102C500001001C4908600846006800F0010001906E
:102C600000BF00BF00BF002001900846006840F090
:102C7000020008600846006800F00200019000BFF2
:102C800000BF8815029001200390002004900320CB
:102C9000059002A90C48FEF77DFD2020029001203E
:102CA0000390002004900320059002A90748FEF736
:102CB00071FD00224FF480710348FEF74FFE07B00C
:102CC00000BD000030380240000002400004024015
:102CD00070B5064616484088401E83B214480088E6
:102CE000401E82B20021084600F050FA00224FF444
:102CF00000411048FEF732FE012251030D48FEF755
:102D00002DFE00240AE0002503E0304600F056FEC8
:102D10006D1C07480088A842F7D8641C0448408806
:102D2000A042F0D80122D1030248FEF717FE70BD81
:102D300060010020000402402DE9F84304460D46DE
:102D400016461F46DDF820803B463246294620467F
:102D5000CDF8008000F088F8BDE8F8832DE9FF4F3A
:102D600085B081468A460020049003900798A0EB26
:102D700009050898A0EB0A06CDF80890CDF804A044
:102D8000002D01DD012705E00DB9002702E04FF01D
:102D9000FF376D42002E02DD4FF0010806E016B944
:102DA0004FF0000802E04FF0FF387642B54201DDF7
:102DB0002C4600E034464FF0000B21E0019A91B21E
:102DC000029A90B200F022F80498284404900398E4
:102DD000304403900498A04205DD0498001B049041
:102DE0000298384402900398A04205DD0398001B26
:102DF00003900198404401900BF101001FFA80FB01
:102E0000601C8345DADD09B0BDE8F08F70B504467B
:102E10000D462946204600F0AFF90248008800F030
:102E2000CDFD70BD120000202DE9F04104460D4695
:102E300016461F462B46324629462046FFF78EFF90
:102E40003B46224629462046FFF788FF3B4632464E
:102E500039462046FFF782FF3B4632462946304638
:102E6000FFF77CFFBDE8F0812DE9F05F04460D46D9
:102E700016461F46301B401C1FFA80FA781B401C68
:102E80001FFA80FB3B4632462946204600F07EF979
:102E90004FF000080FE04FF0000906E00A9800F03C
:102EA0008DFD09F101001FFA80F9D145F6DB08F12B
:102EB00001001FFA80F8D845EDDB07484088401E26
:102EC00083B205480088401E82B20021084600F007
:102ED0005DF9BDE8F09F00006001002000B587B0FB
:102EE000142102A8FDF734FA00BF00200190244805
:102EF000006840F00200224908600846006800F0BF
:102F00000200019000BF00BF00BF002001900846F2
:102F1000006840F0040008600846006800F0040003
:102F2000019000BF00BF00224FF440511548FEF74A
:102F300015FD00224FF400411248FEF70FFD00225C
:102F40004FF480410F48FEF709FD4FF4E040029036
:102F50000120039000200490059002A90948FEF783
:102F600019FC4FF4004002900120039000200490CF
:102F7000059002A90348FEF70DFC07B000BD000054
:102F8000303802400004024010B500F075FDFFF734
:102F9000A5FF00F0DBF8F72000F0FCF9A92000F015
:102FA000DBF9512000F0D8F92C2000F0D5F982206F
:102FB00000F0D2F9C02000F0EDF9112000F0CCF9BA
:102FC000092000F0C9F9C12000F0E4F9412000F027
:102FD000C3F9C52000F0DEF9002000F0BDF90A2099
:102FE00000F0BAF9802000F0B7F9B12000F0D2F972
:102FF000B02000F0B1F9112000F0AEF9B42000F0DB
:10300000C9F9022000F0A8F9B62000F0C3F90220A7
:1030100000F0A2F9422000F09FF9B72000F0BAF9C1
:10302000C62000F099F9BE2000F0B4F9002000F0AD
:1030300093F9042000F090F9E92000F0ABF90020AA
:1030400000F08AF9362000F0A5F9682000F084F934
:103050003A2000F09FF9662000F07EF9E02000F0B1
:1030600099F9002000F078F9072000F075F9102098
:1030700000F072F9092000F06FF9172000F06CF9E8
:103080000B2000F069F9412000F066F9892000F07A
:1030900063F94B2000F060F90A2000F05DF90C2084
:1030A00000F05AF90E2000F057F9182000F054F9FA
:1030B0001B2000F051F90F2000F04EF9E12000F044
:1030C00069F9002000F048F9172000F045F91A20AE
:1030D00000F042F9042000F03FF90E2000F03CF926
:1030E000062000F039F92F2000F036F9452000F0D5
:1030F00033F9432000F030F9022000F02DF90A20C6
:1031000000F02AF9092000F027F9322000F024F914
:10311000362000F021F90F2000F01EF9112000F0F8
:1031200039F9782001F012FE292000F033F903204C
:1031300000F060F9012211030348FEF70FFC0020A4
:10314000FFF7C6FD10BD00000004024010B50022CC
:103150004FF480410748FEF701FC642001F0F6FDC2
:10316000012291030348FEF7F9FB642001F0EEFD14
:1031700010BD00000004024070B504460D462B4609
:1031800022462946204600F001F870BD2DE9F041A5
:1031900004460D4616461F461149887A00F0FAF893
:1031A000201200F0D9F8E0B200F0D6F8301200F0AA
:1031B000D3F8F0B200F0D0F80949087B00F0EAF843
:1031C000281200F0C9F8E8B200F0C6F8381200F092
:1031D000C3F8F8B200F0C0F800F0FAF8BDE8F081EA
:1031E000600100202DE9FF4F85B080468946924658
:1031F000DDE912645348008801900C2C01D10027AE
:1032000006E0102C01D1002702E0202C00D101277C
:10321000A6F12000C6B204EBD47008EB6000401E9B
:1032200082B209EB0400401E83B249464046009436
:10323000FFF7ACFF0C2C03D0102C01D0202C6FD149
:1032400000256BE00C2C07D106EB46003E4901EB54
:103250008000405D039017E0102C05D13B4800EB47
:103260000610405D03900FE0202C0DD1384800EB94
:1032700086116800401C085C354901EB861111F885
:10328000151040EA012002904FF0000B3FE017B10B
:10329000012F1ED10DE0039800F0800010B1012035
:1032A000049001E00020049003984006000E039073
:1032B0000FE0029800F4004010B10120049001E0FA
:1032C000002004904FF6FF71029801EA400002903E
:1032D00000BF00BF049888B1149818B9504600F098
:1032E0006DFB10E01748A0F800A009EB050291B2B1
:1032F00008EB0B0290B2FFF789FD04E0149810B9B7
:10330000089800F05BFB0BF1010000F0FF0B04EBF1
:10331000D471BBEB610FBADB681CC5B2A54291DB6F
:103320000849019808800B484088401E83B209482C
:103330000088401E82B200210846FFF727FF09B02F
:10334000BDE8F08F12000020FC780008707D0008B6
:10335000608300086001002001B500224FF40041A5
:103360000A48FEF7FBFA012251030848FEF7F6FA75
:103370004FF6FF73012269460548FEF795FF0122CB
:10338000D1030248FEF7EAFA08BD0000000402403B
:103390000801002001B500224FF400410A48FEF761
:1033A000DDFA00224FF400510748FEF7D7FA4FF636
:1033B000FF73012269460548FEF776FF0122D1031B
:1033C0000148FEF7CBFA08BD0004024008010020C6
:1033D00010B50249087AFFF7DDFF10BD600100203B
:1033E00070B505460C462846FFF7D4FFE0B2FFF75C
:1033F000B3FF70BD10B504462A20204948812B2018
:1034000088812C20088134B1012C10D0022C1AD0D4
:10341000032C30D123E04FF4A070184908804FF4FA
:10342000F070488008213620FFF7DAFF24E04FF4DF
:10343000F070124908804FF4A0704880682136204F
:10344000FFF7CEFF18E04FF4A0700C4908804FF44E
:10345000F0704880C8213620FFF7C2FF0CE04FF41F
:10346000F070064908804FF4A0704880A8213620EB
:10347000FFF7B6FF00E000BF00BF10BD60010020F5
:1034800008B5002500244FF47A640020FFF720FCE3
:103490006EE202F04DFB02F06DFB02F02FFDFE48E4
:1034A000007820B1012804D0022858D155E0002529
:1034B00055E0FA48006838B1F848006849F64041DC
:1034C000884201D2012547E0F448006849F64041AE
:1034D000884209D30846012101FB0400EF4909682D
:1034E000884201D9022537E049F64040012101FB1D
:1034F0000400EA49096888420AD849F64040022196
:1035000001FB0400E5490968884201D9032523E04D
:1035100049F64040022101FB0400E0490968884265
:103520000AD849F64040032101FB0400DB49096841
:10353000884201D904250FE049F64040032101FBF0
:103540000400D6490968884206D8D44800684DF678
:10355000C021884200D2052501E00A2500BF00BF36
:103560000B2D4ED2DFE805F0FE064E97E3FD4D4DE4
:103570004D4DFC004FF6FF704FF49973F1224FF45C
:1035800089710090D220FFF7D7FB00204FF4997388
:103590004FF48C72911F0090F520FFF7CDFB0020B7
:1035A0004FF4997340F23F124FF4897100904FF439
:1035B0008E70FFF7C1FB00204FF499734FF4B37284
:1035C0004FF48971009040F24310FFF7B5FB0020E3
:1035D0004FF4997340F28D124FF4897100904FF4BB
:1035E000B570FFF7A9FB4FF4FA7002F031FE00202E
:1035F0004FF49973F1224FF489710090D220FFF7B4
:103600009BFBB0E14FF6FF704FF49973F1224FF43A
:1036100089710090D220FFF78FFB4FF6FF704FF4B7
:1036200099734FF48C72911F0090F520FFF784FB83
:1036300000204FF4997340F23F124FF489710090CB
:103640004FF48E70FFF778FB00204FF499734FF41E
:10365000B3724FF48971009040F24310FFF76CFB96
:1036600000204FF4997340F28D124FF4897100904D
:103670004FF4B570FFF760FB4FF4FA7002F0E8FD0D
:1036800000204FF499734FF48C72911F0090F52035
:10369000FFF752FB67E14FF6FF704FF49973F12289
:1036A0004FF489710090D220FFF746FB4FF6FF7070
:1036B0004FF499734FF48C72911F0090F520FFF72F
:1036C0003BFB4FF6FF704FF4997340F23F124FF4FB
:1036D000897100904FF48E70FFF72EFB00204FF49D
:1036E00099734FF4B3724FF48971009040F2431014
:1036F000FFF722FB00204FF4997340F28D124FF434
:10370000897100904FF4B570FFF716FB4FF4FA7013
:1037100002F09EFD00204FF4997340F23F124FF4E7
:10372000897100904FF48E70FFF706FB1BE14FF696
:10373000FF704FF49973F1224FF489710090D220F9
:10374000FFF7FAFA4FF6FF704FF499734FF48C724B
:10375000911F0090F520FFF7EFFA4FF6FF7002E09F
:1037600084E035E0C6E04FF4997340F23F124FF425
:10377000897100904FF48E70FFF7DEFA4FF6FF70FC
:103780004FF499734FF4B3724FF48971009040F283
:103790004310FFF7D1FA00204FF4997340F28D12D5
:1037A0004FF4897100904FF4B570FFF7C5FA4FF4EC
:1037B000FA7002F04DFD00204FF499734FF4B3728C
:1037C0004FF48971009040F24310FFF7B5FACAE058
:1037D0004FF6FF704FF49973F1224FF48971009006
:1037E000D220FFF7A9FA4FF6FF704FF499734FF408
:1037F0008C72911F0090F520FFF79EFA4FF6FF7034
:103800004FF4997340F23F124FF4897100904FF4D6
:103810008E70FFF791FA4FF6FF704FF499734FF4E3
:10382000B3724FF48971009040F24310FFF784FAAD
:103830004FF6FF704FF4997340F28D124FF4897177
:1038400000904FF4B570FFF777FA4FF4FA7002F07A
:10385000FFFC00204FF4997340F28D124FF48971F0
:1038600000904FF4B570FFF767FA7CE04FF6FF70F9
:103870004FF49973F1224FF489710090D220FFF731
:103880005BFA4FF6FF704FF499734FF48C72911FEF
:103890000090F52004E00000EC000020DC00002097
:1038A000FFF74AFA4FF6FF704FF4997340F23F1258
:1038B0004FF4897100904FF48E70FFF73DFA4FF688
:1038C000FF704FF499734FF4B3724FF48971009005
:1038D00040F24310FFF730FA4FF6FF704FF4997340
:1038E00040F28D124FF4897100904FF4B570FFF7DC
:1038F00023FA38E000204FF49973F1224FF48971D4
:103900000090D220FFF718FA00204FF499734FF47B
:103910008C72911F0090F520FFF70EFA00204FF4F3
:10392000997340F23F124FF4897100904FF48E70FA
:10393000FFF702FA00204FF499734FF4B3724FF47B
:103940008971009040F24310FFF7F6F900204FF420
:10395000997340F28D124FF4897100904FF4B57055
:10396000FFF7EAF900BF00BF4FF4FA7002F070FCF5
:103970008FE5000000B587B000BF002001900D4822
:10398000006840F004000B4908600846006800F039
:103990000400019000BF00BF4FF4E07002900120CE
:1039A000039004900320059002A90348FDF7F2FE5E
:1039B00007B000BD303802400008024010B5044690
:1039C000F82101EA2420FFF7C7FCFC2101EAE4000A
:1039D000FFF7C2FCE106080EFFF7BEFC10BD0000B9
:1039E00010B50D480D4908604FF480304860002143
:1039F0000A488160C1600161416181610121C16149
:103A0000002101624162064981620021C1620163B5
:103A1000FDF710FD10BD0000002001401C31012009
:103A20000100000F00BFFEE7704700000248006879
:103A3000C0F30220704700000CED00E010B5002834
:103A400007DA0A07140E054A00F00F031B1FD454AF
:103A500003E00A07130E024A135410BD18ED00E0EC
:103A600000E400E010B5012220210248FDF776FFB6
:103A700010BD00000004024010B50122D1030F4820
:103A8000FDF76CFF0E480F4908604FF482704860E4
:103A900000210C488160C160016141614FF40071F7
:103AA00081610021C1610162416281620A21C162BA
:103AB000FEF766FB08B1FDF7F1F910BD0004024006
:103AC0000030014008010020F8B504460D461646B6
:103AD0002B46002280212046009600F009F828B1EC
:103AE000606D40F0200060650320F8BD0020FCE719
:103AF0002DE9F04104460E4617461D46DDF81880B4
:103B00003FE0681CE0B32DB1FDF72EFFA0EB0800ED
:103B1000A84236D32068406820F0E0002168486061
:103B20006068B0F5827F0DD1A068B0F5004F03D07A
:103B3000A068B0F5806F05D12068006820F04000D3
:103B400021680860A06AB0F5005F0ED100BF206850
:103B500000684DF6FF710840216808602068006821
:103B600040F400502168086000BF012084F8510033
:103B700000BF002084F8500000BF0320BDE8F081A2
:103B8000FFE7206880683040B04201D1012000E0AA
:103B90000020B842B5D10020F0E700002DE9FF4F2A
:103BA00083B006460F469146DDE91148109DB246A6
:103BB0004FF0000B5FE0BBF1000F2ED104EBD4718E
:103BC0002F4A1288A2EB6101B14204DB2C494988DB
:103BD000091BB94202DA07B0BDE8F08F28788028C7
:103BE00002DD4FF0010B46E028780D2804D138198A
:103BF00087B256466D1C0EE028788DE811014A46C2
:103C000039463046069BFFF7EDFA204604EBD071AB
:103C100006EB61018EB26D1C2DE019480088001B77
:103C2000B04204DB16484088001BB84200DAD2E7F5
:103C30004FF0000B202C08D1CDE900584A463946F8
:103C40003046069BFDF73EFA12E0182C08D1CDE96C
:103C500000584A4639463046069BFDF7A7F907E06B
:103C6000CDE900584A4639463046069BFDF71AF919
:103C7000AD1C301986B2287800289CD100BFAAE775
:103C8000600100202DE9F04393B004460D4616462E
:103C90009846002700BF002000902748006840F0A9
:103CA0008050254908600846006800F08050009068
:103CB00000BF00BF012006900004079002200C9076
:103CC00041050D910E950F941096CDF8448006A8ED
:103CD000FEF732F807460FB100BFFEE70F20019054
:103CE00002200290002003904FF4805004900020A6
:103CF0000590032101A8FDF7E1FE07460FB100BFC3
:103D0000FEE7FDF79BFF4FF47A71B0FBF1F94846EF
:103D1000FEF7BAFBFDF792FF4FF47A71B0FBF1F9B1
:103D20004846FEF7B1FB00221146501EFDF774FE17
:103D300013B0BDE8F08300004038024010B503F036
:103D400025FA012801D002F067FD10BD1448006873
:103D500040F47000124908601248006840F0010009
:103D60001049086000200F49083108600D480068BC
:103D70000D4908400B4908600C48091D0860081FE0
:103D8000006820F48020091F0860002005490C31DC
:103D900008604FF0006002498039086070470000F9
:103DA00088ED00E000380240FFFFF6FE10300024EE
:103DB00070B50546AC6B0020E085E0842046FEF738
:103DC0007FFB70BD00BF00BF02680C3252E8002FBD
:103DD00022F4907102680C3242E80013002BF3D1F8
:103DE00000BF00BF00BF0268143252E8002F22F06B
:103DF00001010268143242E80013002BF3D100BF26
:103E0000016B01290ED100BF00BF02680C3252E8DD
:103E1000002F22F0100102680C3242E80013002B40
:103E2000F3D100BF202180F83E10002101637047CC
:103E300010B504462068C06820F040002168C860C2
:103E4000202084F83D002046FEF7F7FE002010BD3C
:103E5000F8B5044694F83E00222873D1A068B0F566
:103E6000805F0CD1206950B90025A66A206840689F
:103E7000C0F308003080A06A801CA06215E0A56A2B
:103E80000026A068B0F5805F03D0A06828B920693B
:103E900018B920684068287004E02068406800F085
:103EA0007F002870A06A401CA062E08D401E80B296
:103EB000E085002844D12068C06820F020002168F7
:103EC000C8602068C06820F480702168C8602068DD
:103ED000406920F0010021684861202084F83E00FC
:103EE000206B012826D10020206300BF00BF21687D
:103EF0000C3151E8001F21F0100021680C3141E81D
:103F00000002002AF3D100BF2068006800F0100012
:103F100010280AD100BF002000902068006800909F
:103F200020684068009000BF00BFA18D2046FEF7CA
:103F3000C5FA02E02046FEF7D9FD0020F8BD01E0F9
:103F40000020FBE70220F9E72DE9F84F044620683E
:103F5000006920F44050E168084321680861216944
:103F6000A068084361690843E1690843009020683C
:103F7000C06849F20C618843009908432168C86011
:103F80002068406920F44070A169084321684861B5
:103F900076492068884203D075492068884203D159
:103FA000FDF762FE814602E0FDF74EFE8146E069C4
:103FB000B0F5004F6CD102206168A0FB01500346B0
:103FC0001920A9FB007001462A463846FCF776F90D
:103FD0006421B0FBF1F04FEA001A02206168A0FBF7
:103FE00001510B461920A9FB00712A463846FCF7FF
:103FF00065F9834602206168A0FB01500346192041
:10400000A9FB00712A463846FCF758F96421B0FB39
:10401000F1F000EBC00101EB0010ABEB80003221AE
:1040200001EBC0006421B0FBF1F000F0F8000AEBF6
:10403000400A02206168A0FB015003461920A9FB39
:10404000007001462A463846FCF738F983460220BC
:104050006168A0FB015003461920A9FB00712A46A4
:104060003846FCF72BF96421B0FBF1F000EBC001FE
:1040700001EB0010ABEB8000322101EBC0006421AA
:10408000B0FBF1F000F007005044216888606AE05E
:1040900004206168A0FB015003461920A9FB0070B1
:1040A00001462A463846FCF709F982460420616831
:1040B000A0FB015003461920A9FB007001462A46C7
:1040C0003846FCF7FBF86421B0FBF1F000EBC001CF
:1040D00001EB0010AAEB8000322101EB00106421FB
:1040E000B0FBF1F000F0F00A04206168A0FB017061
:1040F00003461920A9FB00513A462846FCF7DEF892
:104100006421B0FBF1F00AEB001A04206168A0FB07
:1041100001510B461920A9FB00712A463846FCF7CD
:10412000CDF8834604206168A0FB015003461920A6
:10413000A9FB007001462A463846FCF7BFF8642107
:10414000B0FBF1F000EBC00101EB0010ABEB800025
:10415000322101EB00106421B0FBF1F000F00F0000
:10416000504421688860BDE8F88F000000100140CD
:104170000014014010B5034699629A85DA85002043
:104180001864222083F83E0000BF002083F83C0022
:1041900000BF1868C06840F480701C68E060186850
:1041A000406940F001001C6860611868C06840F018
:1041B00020001C68E060002010BD014691F83D0021
:1041C000212828D18868B0F5805F0BD1086948B9EB
:1041D0000A6A1088C0F308000B685860086A801CDF
:1041E000086205E00B6A581C086218780B68586072
:1041F000C88C401E80B2C88458B90868C06820F0D6
:1042000080000B68D8600868C06840F040000B6808
:10421000D860002070470220FCE72DE9F0410446F9
:104220000D4617469846069E34E0701C88B32EB1A2
:10423000FDF79AFBA0EB0800B0422BD900BF00BFEE
:1042400021680C3151E8001F21F4D07021680C3135
:1042500041E80002002AF3D100BF00BF00BF21687F
:10426000143151E8001F21F001002168143141E8A8
:104270000002002AF3D100BF202084F83D0084F81A
:104280003E0000BF002084F83C0000BF0320BDE8D2
:10429000F081FFE7206800682840A84201D1012092
:1042A00000E00020B842C0D00020F0E710B5084878
:1042B000084908604FF4E1304860002105488160FA
:1042C000C160016181610C214161FEF729FB10BDD4
:1042D000001001407001002070B500240F4D1048FF
:1042E000FEF762F900BF03E0641CAC4200D904E0B1
:1042F0000B48FEF74EF92028F6D100BF002403E05A
:10430000641CAC4200D906E0012206490448FEF7CD
:10431000CBFB0028F4D100BF70BD0000FFFF0100FF
:104320007C0200201C00002000B587B0142102A8E8
:10433000FCF70EF800BF002001902448006840F010
:104340000100224908600846006800F00100019061
:1043500000BF00BF102002900120039000200490B5
:10436000059002A91A48FDF715FA002210211848F5
:10437000FDF7F4FA1748184908604FF4E130486037
:10438000002115488160C160016181610C2141619A
:10439000FEF7C6FA012211490F48FEF785FB00BF60
:1043A000002001900C480068006801900A480068ED
:1043B0004068019000BF00BF07480068C06840F037
:1043C000100005490968C86007B000BD30380240D8
:1043D00000000240004400407C0200201C0000203D
:1043E00000BFFEE70FB4054B10B503A9044A0298BD
:1043F00000F004F910BC5DF814FB0000D94D000872
:10440000040100200FB4084B10B504A902AA0398B8
:1044100000F0F4F8044602A9002000F091FC2046C8
:1044200010BC5DF814FB0000414D00087CB504464B
:1044300000201D46164600290BD0491ECDE900413B
:10444000044B6A462946304600F0D8F8009A00210D
:1044500011707CBD2B4D000802E008C8121F08C176
:10446000002AFAD170477047002001E001C1121FF5
:10447000002AFBD1704700002DE9FF5F82B00021C8
:10448000DDE90430020DDDF840B0034318D044F6F6
:104490001050A2F2FF3242431514119801281FD088
:1044A000A5EB0B00401C5FEA000A4FF000064E4FE0
:1044B000DFF83891B046504615D5CAF1000413E034
:1044C000119801244AA3012801D16FEA0B01029837
:1044D000119AC0E90031C0E9024206B0BDE8F09F80
:1044E000CBF10000DFE704460021404A491842EBC7
:1044F0000450CDE9001012E0E00707D032463B46F9
:1045000040464946FBF72FFF8046894632463B46E8
:1045100010461946FBF727FF06460F466410002C8D
:10452000EAD1DDE90401DDE90023BAF1000F06DA82
:10453000FBF719FF42464B46FBF715FF05E0FCF77A
:1045400023F942464B46FCF71FF904460E4600226B
:10455000284BFCF7A1F903D84FF0FF30014607E0E4
:104560000022254B20463146FCF767F8FCF77BF923
:10457000102409E0002C0ADB0A220023FBF79EFE30
:10458000039B30321A55641E50EA0102F2D1641CBA
:10459000039AC4F111031444119A012A03D0012291
:1045A00008430DD10AE0084304D000204FF0110B5E
:1045B000119072E7A3EB0B056D1E0DE05B4504DD6A
:1045C0004FF0000205F1010504E003DA4FF00002AC
:1045D000A5F10105002AECD002981199C0E9023139
:1045E000C0E9004579E70000000014400000F03FFA
:1045F000300000000000F0430000E03F2DE9FF4FD5
:1046000095B09B468946064600250FE2252877D1BE
:1046100000242746F84A0121059400E0044316F8D7
:10462000013F203B01FA03F01042F7D130782A28ED
:1046300011D06FF02F033078A0F13002092A16D87C
:10464000059A44F0020402EB820203EB420210449A
:10465000761C0590EFE759F8042B0592002A03DA3F
:10466000504244F40054059044F00204761C307823
:104670002E2816D116F8010F44F004042A280DD074
:104680006FF02F023078A0F13003092B09D807EB27
:10469000870302EB4303C718761CF3E759F8047B42
:1046A000761C30786C280FD006DC4C2817D0682890
:1046B0000DD06A2814D104E0742810D07A280FD1C4
:1046C0000DE044F400140AE044F4801401E044F4E2
:1046D00040147278824202D104F58014761C761C54
:1046E000307866280BD013DC582877D009DC0028F6
:1046F00075D04528F6D04628F4D047281AD19DE138
:1047000018E0632835D0642879D0652812D195E166
:10471000702873D008DC6728F1D069286FD06E2824
:104720000DD06F2806D1B5E073282CD0752875D030
:10473000782874D05A46179990476D1C75E1C4F3D8
:104740000250022809D003280DD0D9F800100428FF
:104750000DD00D6009F1040967E1D9F80010EA17DE
:10476000C1E90052F6E7D9F800100D80F2E70D70AC
:10477000F0E719F8041B8DF8001000208DF80100F7
:10478000EA46012003E059F804AB4FF0FF3061071F
:104790004FF0000102D40DE008F101018846B94252
:1047A0000FDA8045F8DB1AF808100029F4D108E088
:1047B00008F1010188468142FADB1AF80810002945
:1047C000F6D105985B46A0EB080721463846179AB4
:1047D00000F094FA284400EB080507E04DE029E1D9
:1047E0000DE01AF8010B5A4617999047B8F10108E5
:1047F000F7D25B4621463846179A13E142E00A2277
:104800000092C4F302524FF0000A022A08D059F86D
:1048100004CB032A4FEAEC710AD00DE029E02AE02C
:1048200009F1070121F00702F2E802C1914609E00F
:104830000FFA8CFC4FEAEC71042A03D14FFA8CFC7E
:104840004FEAEC71002907DA0A460021DCF1000C7E
:1048500061EB02012D2202E0220504D52B228DF806
:104860000420012203E0E20701D02022F7E790466E
:1048700059E00A2102E010220DE010214FF0000A59
:1048800000910BE010224FF0000A44F004040827C6
:10489000009203E008224FF0000A0092C4F3025293
:1048A000022A05D059F804CB0021032A08D009E0D8
:1048B00009F1070121F00702F2E802C1914605E083
:1048C0001FFA8CFC042A01D10CF0FF0C4FF00008F9
:1048D000220728D5702806D0009B83F0100353EAE6
:1048E0000A0305D00EE040228DF80420012208E0E2
:1048F0005CEA010206D030228DF804208DF8050014
:1049000002229046009B83F0080353EA0A030AD16F
:104910005CEA010201D1620705D530228DF804203E
:104920004FF001087F1E582804D034A003900EA831
:1049300002900DE036A0F9E753466046009AFBF777
:10494000BDFC84460398825C0298401E029002706F
:104950005CEA0100F0D1029806A9081A00F1200AC9
:10496000600702D524F4803400E00127574502DDBA
:10497000A7EB0A0000E0002000EB0A010090059878
:104980004144401A0590E00306D45B462146179A3D
:10499000059800F0B3F90544002706E001A85A463F
:1049A000C05D179990476D1C7F1C4745F6DBE003FF
:1049B0000CD55B462146179A059800F09FF90544EF
:1049C00004E030205A46179990476D1C0099481E04
:1049D00000900029F5DC08E0029802995A46007818
:1049E000491C0291179990476D1CBAF10001AAF178
:1049F000010AF1DC65E100000928010030313233A1
:104A0000343536373839616263646566000000000A
:104A100030313233343536373839414243444546F4
:104A20000000000000F058F90544761C307800289A
:104A30007FF4ECAD19B02846BDE8F08F620700D4D2
:104A4000062709F1070222F0070CFCE80223E146E1
:104A500003F000485FEA080C02D00FF2702C0DE062
:104A60005FEA045C02D50FF2682C07E05FEAC47CC1
:104A700002D00FF2602C01E0AFF2700C4FF0FF3863
:104A800023F00043CDF850C065280CD006DC452843
:104A900009D046281DD047283DD13DE0662818D0D2
:104AA00067287ED138E00021112F01DB112000E0C2
:104AB000781CCDE9000106A90EA8FFF7DDFCDDE9B1
:104AC0000F010E9A03910021009207F1010A04914F
:104AD0004DE04FF000400097CDE9011006A90EA867
:104AE000FFF7CAFCDDE90F0203920E9B1199002229
:104AF000DDF80CA00093049211B9791C00EB010AB7
:104B0000B7EB0A0004D4C0F1FF3007F1010A0490AA
:104B1000AAEB0700019044E0012F00DA01270021F1
:104B2000112F01DD112000E03846CDE9000106A972
:104B30000EA8FFF7A1FCDDE90F010E9A03910021F9
:104B400004910092BA4621070CD40399514500DA2A
:104B50008A46BAF1010F05DD009AAAF10101515C04
:104B6000302908D0B84202DA10F1040F06DA012128
:104B7000CDE9011015E0AAF10101E9E7002805DC03
:104B8000049901440491AAEB000102E0411C514543
:104B900000DD8A460499401A401C01904FF0004005
:104BA0000290200704D40198504501DBCDF8048021
:104BB00000208DF84F0002980DF14F07B0F1004F23
:104BC00025D02B200E9002984FF0020800280CDA16
:104BD000404202902D200E9007E00A210298FBF738
:104BE00063FC3031029007F8011DB8F10001A8F113
:104BF0000108F2DC02980028EFD1791E0E980870A7
:104C0000307800F0200040F0450007F8020D12A8AF
:104C1000C01B00F107081498007800B1012000EBD8
:104C20000A01019801EBE07105984144401A401EC9
:104C30000590E00306D45B462146179A059800F0DC
:104C40005DF805441498007818B15A4617999047B2
:104C50006D1CE00324D55B462146179A059800F0A9
:104C60004DF805441CE00498002807DBDDE903014A
:104C7000884203DD0098405C179901E017993020C5
:104C80005A469047049805F10105401C049001988C
:104C9000401E019004D12E205A46179990476D1C52
:104CA000BAF10001AAF1010ADDDC05E017F8010BF9
:104CB0005A46179990476D1CB8F10001A8F10108F8
:104CC000F4DC5B462146179A0598ABE62D00000000
:104CD0002B000000200000002DE9F04104460025D3
:104CE0001E461746880404D405E039462020B04704
:104CF0006D1C641EF9D52846BDE8F0812DE9F04110
:104D0000044600251E469046C80301D5302700E022
:104D10002027880404D505E041463846B0476D1C7D
:104D2000641EF9D52846BDE8F0814A68002A06D0FD
:104D30000A68531C0B6010704868401E486070473A
:104D40000A68531C0B6010707047000070B5044671
:104D500002F01CFA012811D00C480088844206DBBE
:104D60000A48008894FBF0F5284601F071FA0748DC
:104D7000008894FBF0F100FB114084B24FF47A718B
:104D800004FB01F000F004F870BD000004000020F6
:104D900070B5034600224FF0E02675690D4E366867
:104DA00003FB06F44FF0E026B16910E04FF0E02677
:104DB000B06988420BD0884202D20E1A324402E017
:104DC0002E1A0E4432440146A24200D300E0EDE721
:104DD00000BF70BD0000002013B50C466423012203
:104DE00069460248FDF7C0FE00981CBD7001002016
:104DF0001CB5FCF7BFFD02231A460C216020FEF70C
:104E000041FFFEF7B7FDFEF7BFF8FFF74FFAFFF7D8
:104E10008BFAFEF7E5FDFDF713FF0748012100239C
:104E20008022CDE9001005A1074802F07FF901F0CA
:104E3000A3FB00201CBD0000A00000207374617261
:104E4000745F7461736B00004D5A00082DE9F041E6
:104E500005460E462648076826480068001D01F0F2
:104E60006DF850B92348006890F82C100120884054
:104E700021490968814320480160681CD8B9D6B12E
:104E80001E4948681B49096888601A498268096890
:104E9000CA6018490968091D826851601549096886
:104EA000091D8160154A134909684A61114609685C
:104EB000491C11601AE07C190E4800684460BC422D
:104EC00007D20C480168091D0D48006801F05AF826
:104ED0000CE008480168091D0A48006801F052F812
:104EE00009480068844201D207480460BDE8F081A7
:104EF000340000202000002038000020E0040020C2
:104F000028000020240000205000002010B5044696
:104F100001F05EF831480068401C304908603048B4
:104F2000006840B92E4804600846006801280DD189
:104F300000F046FA0AE02B48006838B928480068B3
:104F4000C06AE16A884201D82548046026480068A2
:104F5000401C2549086008460068206494F82C101D
:104F60000120884021490968084320490860E16A16
:104F700001EB81011E4A02EB81014868A060826852
:104F8000E260211D826851608160E16A01EB81016C
:104F9000174A02EB81026261E16A01EB8101144A66
:104FA00052F82110491CE26A02EB8202104B43F8CE
:104FB000221001F037F80B48006868B10848006813
:104FC000C06AE16A884207D24FF080500949086000
:104FD000BFF34F8FBFF36F8F10BD00003000002074
:104FE000200000203C0000204C0000203800002061
:104FF000C803002004ED00E010B500F0E9FF104800
:105000000068D0B90F4800F0ADFF0F4800F0AAFFCC
:105010000C480E4908600C480D49086000220C211C
:105020000A2001F024FC064908600846006820B107
:1050300008A10348006801F0B5F800F0F3FF10BDC7
:1050400068000020F4040020080500206000002013
:1050500064000020546D72510000000010B516E08D
:1050600000F0B6FF0C48C068C468201D00F066FF61
:105070000A480068401E0949086009480068401E47
:105080000749086000F0CEFF204600F05FF80448B2
:1050900000680028E4D110BDCC04002030000020BE
:1050A0002C00002070B504460D46206C70B1216CB8
:1050B000E0680144E160D4E90210884201D321682C
:1050C000E1602846226CE168FBF729F970BD2DE903
:1050D000F04104460F4615464FF00008A66B206CC1
:1050E00048B9206800282CD1A06802F043F9804616
:1050F0000020A06025E07DB93946226C6068FBF78E
:105100000EF9216C606808446060D4E901018842AE
:1051100017D32068606014E03946226CE068FBF722
:10512000FEF8216CE068411AE1602168E06888427D
:1051300003D2216CA068411AE160022D01D106B1B1
:10514000761E701CA0634046BDE8F08110B5044691
:10515000206B00F085FF204600F082FF10BD014665
:105160004A6A22B10A6B1268C2F10A0000E000200C
:10517000704700000146084A126812680AB9012205
:1051800000E000220A600A6822B9034A1268D26865
:10519000106800E0002070476000002030B54FF438
:1051A0009633174800F007042CB1C01D20F007000B
:1051B000134C041B1B1B0246124C22600024114D91
:1051C0006C60D018083820F007000F4C20600024D5
:1051D0000D4D2D686C600C4D2D682C601146441AE5
:1051E0004C60094C24680C60084D4C682C60084DDC
:1051F0004C682C604FF00044064D2C6030BD000020
:105200001C050020740000207C0000208400002089
:10521000800000209000002000BFFFF71FFF06481D
:1052200000680128F9D94FF0805004490860BFF3A5
:105230004F8FBFF36F8FF0E7C803002004ED00E04D
:1052400010B5044654B10020A06020600021E16048
:1052500000231A461946204601F0AAFB10BD2DE98D
:10526000F04106460D4617469846069C0DB9246047
:1052700000E02760E66325640121204601F02AFB57
:1052800084F84C80BDE8F0812DE9F05F82460F463E
:1052900090469B460A9E0C9C4FEA8801A522206BF3
:1052A000FBF74FF8A8F10100216B01EB800929F011
:1052B000070909F0070008B9012000E0002050B9F3
:1052C00000BF502080F31188BFF34F8FBFF36F8F63
:1052D00000BF00BFFEE787B1002507E0795D04F15C
:1052E00034004155785D00B902E06D1C0A2DF5D3FC
:1052F00000BF00213D20015502E0002084F8340069
:105300000A2E01D2012000E0002050B900BF502039
:1053100080F31188BFF34F8FBFF36F8F00BF00BFC3
:10532000FEE70A2E00D30926E662A6640020E064A8
:10533000201D00F024FE04F1180000F020FE24617E
:10534000C6F10A00A06164620020206584F8540060
:105350005A465146484600F063FB20600B9808B15E
:105360000B980460BDE8F09F2DE9F04706460D4616
:1053700017469846DDE908940DB1012000E00020B1
:1053800050B900BF502080F31188BFF34F8FBFF397
:105390006F8F00BF00BFFEE7FFF72EFE2660A561FE
:1053A000C4F81C80C4F82090201D00F0E8FD2FB147
:1053B00094F8280040F0040084F82800BDE8F08745
:1053C00010B5002407E004EB84010F4A02EB8100D2
:1053D00000F0C8FD641C0A2CF5D30C4800F0C2FD97
:1053E0000B4800F0BFFD0B4800F0BCFD0A4800F080
:1053F000B9FD0A4800F0B6FD0448094908600448B0
:105400000849086010BD0000C80300209004002077
:10541000A4040020B8040020CC040020E0040020F4
:10542000240000202800002010B50146164800E0A6
:10543000006803688B42FBD30246436813448B42E7
:1054400004D143684C682344436001460A464B68D4
:1054500013440468A34211D10C4C03682468A3428E
:1054600008D04B680468646823444B6003681B6879
:105470000B6005E0054B1B680B6001E003680B60E7
:10548000884200D0016010BD740000207C00002024
:105490002DE9F04104460D4616461F464FF0000820
:1054A00065602461B5420CD8F01BA169884202D323
:1054B0004FF0010811E0211D0948006800F062FD6D
:1054C0000BE0BE4204D2BD4202D34FF0010804E01B
:1054D000211D0448006800F055FD4046BDE8F081FC
:1054E000640000206000002070B5054600F070FDEB
:1054F000A86B08B9012400E0002400F093FD2046C9
:1055000070BD70B5054600F063FDA86BE96B88427D
:1055100001D1012400E0002400F084FD204670BD8C
:1055200070B505460E460E480068C068C468201D68
:1055300000F004FD94F8280000F0040028B1324681
:105540002946204600F0D6F805E094F8280020F01F
:10555000010084F828002046216A884770BD0000B9
:10556000600000207FB57FE0019800287CDB039C71
:10557000606908B9012000E0002010B9201D00F08A
:10558000DDFC684600F0E2F8054601980A2869D279
:10559000DFE800F06805072E365806082F3700BFF1
:1055A00000BF00BF94F8280040F0010084F82800F4
:1055B0000298A269811803462A462046FFF768FF31
:1055C000A8B194F8280000F0040038B10298A2694C
:1055D00081182A46204600F08DF805E094F828004E
:1055E00020F0010084F828002046216A88473AE02C
:1055F00000BF94F8280020F0010084F8280032E071
:1056000000BF94F8280040F0010084F828000298B8
:10561000A061A06908B1012000E0002050B900BFDE
:10562000502080F31188BFF34F8FBFF36F8F00BFFF
:1056300000BFFEE7A06941192B462A462046FFF726
:1056400027FF10E094F8280000F0020018B9204667
:1056500000F006FD05E094F8280020F0010084F831
:10566000280000E000BF00BF002201A90348006835
:1056700001F084FB00287FF477AF7FBD6800002035
:10568000F8B505460C4600F0C5FF684600F05EF828
:105690000646009820BB44B9B54206D801F0E8FFA1
:1056A00031462846FFF73CFF1CE03CB10E4800683D
:1056B000006808B9012000E000200446A91B22462A
:1056C0000A48006800F09EFD01F0D2FF50B94FF08B
:1056D000805007490860BFF34F8FBFF36F8F01E021
:1056E00001F0C6FFF8BD0000640000206800002043
:1056F00004ED00E070B504460D46164604E0A069CE
:1057000005442046216A8847A06941192B46324644
:105710002046FFF7BDFE0028F1D170BD09480068A2
:10572000006808B9012000E0002020B14FF0FF30F0
:105730000549086005E003480068C0680068024940
:1057400008607047240000205000002070B5044617
:1057500001F02CFD054607480068854204D200F0A0
:105760000BF80120206001E0002020600148056066
:10577000284670BD7000002070B508E00D48006834
:10578000C06804684FF0FF312046FFF7C9FE0948A2
:105790000068006808B9012000E000200028EDD072
:1057A000044805680448006802490860024805602A
:1057B00070BD000060000020640000200E480068FA
:1057C000401C08B9012000E0002050B900BF502063
:1057D00080F31188BFF34F8FBFF36F8F00BF00BFFF
:1057E000FEE700BF502080F31188BFF34F8FBFF357
:1057F0006F8F00BF00BFFEE79400002008B500BF18
:105800006846FFF7B7FC044620460099FFF738FFCB
:10581000FFF7A8FEF4E770B5044600F0D9FB94F951
:10582000455010E0606A08B9012000E0002038B956
:1058300004F1240001F08CFE18B100F0BDFD00E081
:1058400003E0681E45B2002DECDC00BFFF2084F8A9
:10585000450000F0E7FB00F0BBFB94F9445010E07A
:10586000206908B9012000E0002048B904F11000C7
:1058700001F06EFE08B100F09FFD681E45B200E029
:1058800001E0002DECDC00BFFF2084F8440000F0B4
:10589000C9FB70BD2DE9F04104464FF0000800F04F
:1058A000B9FE5148006808B9FFF778FC4F48006816
:1058B000204000287ED13CB304F10800A04223D947
:1058C000083404F0070000B304F00700C0F108003A
:1058D0002044A04216D904F00700C0F10800044497
:1058E00004F0070008B9012000E0002068B900BFFB
:1058F000502080F31188BFF34F8FBFF36F8F00BF2D
:1059000000BFFEE7002400E00024002C54D03848FB
:105910000068844250D8374E3046056801E02E4674
:105920002D686868A04202D228680028F7D12E4866
:105930000068854240D0306800F10808286830606F
:105940006868001B102819D92F1907F0070008B93B
:10595000012000E0002050B900BF502080F31188E2
:10596000BFF34F8FBFF36F8F00BF00BFFEE76868C4
:10597000001B78606C603846FFF756FD1C4968686C
:105980000968081A1A490860084600681A4909682F
:10599000884203D2164800681749086013496868AE
:1059A0000968084368600020286014480068401CAB
:1059B000124900E000E0086001F05AFE08F007001C
:1059C00008B9012000E0002050B900BF502080F34A
:1059D0001188BFF34F8FBFF36F8F00BF00BFFEE78B
:1059E0004046BDE8F08100007C00002090000020CF
:1059F0008000002074000020840000208800002027
:105A00000648006830B10549096801F14C00C96CCD
:105A1000491C016001480068704700002000002018
:105A2000001F4FF080730360001F21F0010303602B
:105A3000001F054B036014380260001F6FF0020363
:105A40000360203870470000BD5700081CB50446AD
:105A500000F0BEFA1D4803210023C822CDE9001042
:105A60001BA11E4801F062FB1D4805210023C8222E
:105A7000CDE900101BA11F4801F058FB1E4808216A
:105A80000023C822CDE900101CA11F4801F04EFBE5
:105A9000012000F0DBFE1D490860032200210120E7
:105AA00000F0E5FE1A4908601A4800231A4640F63D
:105AB000B831009018A001F097FE1B4908601B4800
:105AC000006800F0F3FB00F0ADFA1CBDA40000205C
:105AD0004C43445F7461736B000000008134000824
